:10400000007F0020E1CF000089CE0000DDCF00005E
:10401000DDCF0000DDCF0000DDCF0000DDCF0000F0
:10402000000000000000000000000000DDCF0000E4
:10403000DDCF000000000000DDCF0000DDCF00007C
:104040000000000000000000000000000000000070
:104050000000000000000000000000000000000060
:104060000000000000000000000000000000000050
:104070000000000000000000000000000000000040
:104080000000000000000000000000000000000030
:104090000000000000000000000000000000000020
:1040A0000000000000000000000000000000000010
:1040B0000000000000000000000000000000000000
:1040C00010B5054C237833B9044B13B10448AFF352
:1040D00000800123237010BD0004002000000000B8
:1040E0004C60010008B5034B1BB103490348AFF313
:1040F000008008BD00000000040400204C600100A6
:1041000070B5204C0BF086FB1F4A23681268C31A57
:104110009342054631D31D4AB2F86010B2F84020F0
:104120000B1203F1007303F500535B01C9B2D3F81E
:104130000600131203F1007303F500535B01D2B2C2
:10414000D3F80660012303FA02F2324218BF1A467E
:1041500003FA01F308BF0022034214BF0123002326
:104160000B4E9A42D6E900014FF00002094B05D0F0
:104170000EF0B6FAC6E90001256070BD0EF0B2FA85
:10418000F8E700BF7C06002024000020D05A010080
:10419000600500200000F03F70B5204C0BF03AFBAA
:1041A0001F4A23681268C31A9342054631D31D4A39
:1041B000B2F86010B2F840200B1203F1007303F55F
:1041C00000535B01C9B2D3F80600131203F1007368
:1041D00003F500535B01D2B2D3F80660012303FA62
:1041E00002F2324218BF1A4603FA01F308BF002256
:1041F000034214BF012300230B4E9A42D6E900016B
:104200004FF00002094B05D10EF06AFAC6E9000131
:10421000256070BD0EF066FAF8E700BF7C0600204E
:1042200024000020D05A0100600500200000F03F6B
:1042300070B51F4C0BF0EEFA1E4A23681268C31AC1
:10424000934205462FD31C4A118A128B0B1203F19D
:10425000007303F500535B01C9B2D3F806001312D3
:1042600003F1007303F500535B01D2B2D3F806608B
:10427000012303FA02F2324218BF1A4603FA01F38D
:1042800008BF0022034214BF012300230B4E9A42B1
:10429000D6E900014FF00002094B05D00EF020FADC
:1042A000C6E90001256070BD0EF01CFAF8E700BFFA
:1042B0008006002024000020D05A0100680500205C
:1042C0000000F03F70B51F4C0BF0A4FA1E4A2368A3
:1042D0001268C31A934205462FD31C4A118A128BC7
:1042E0000B1203F1007303F500535B01C9B2D3F85D
:1042F0000600131203F1007303F500535B01D2B201
:10430000D3F80660012303FA02F2324218BF1A46BC
:1043100003FA01F308BF0022034214BF0123002364
:104320000B4E9A42D6E900014FF00002094B05D12D
:104330000EF0D6F9C6E90001256070BD0EF0D2F985
:10434000F8E700BF8006002024000020D05A0100BA
:10435000680500200000F03F10B5164C0022002335
:10436000D4E900010EF004FE60B1012111200BF030
:1043700079F9114B1A7882F001021A7019780E201F
:104380000BF070F900220023D4E900010EF0D2FDF9
:1043900070B1002111200BF065F9074B1A7882F0FB
:1043A00001021A7019780E20BDE810400BF05AB9BE
:1043B00010BD00BFB80600201D08002010B5164C27
:1043C00000220023D4E900010EF0D2FD60B10121EA
:1043D00009200BF047F9114B1A7882F001021A708C
:1043E000197807200BF03EF900220023D4E90001E0
:1043F0000EF0A0FD70B1002109200BF033F9074B3E
:104400001A7882F001021A7019780720BDE810406E
:104410000BF028B910BD00BFC00600201E08002008
:1044200010B5044604F040FF2168BDE8104004F0D8
:1044300063BF73B505460646012401A80194FFF742
:10444000EFFF0134492C06F8010BF6D1284602B0E3
:1044500070BD73B502AD002345F8043D04460E4619
:1044600004F022FF2A46216804F0B1FF01280CD194
:1044700004F01AFF2268314604F052FF04F014FFE2
:1044800004F06DFF204602B070BD04F00DFF2268FD
:10449000314604F045FFF5E72DE9F04F414B424A24
:1044A000424E434F93ED060B2DED048B93ED088B9D
:1044B00082ED000B3F4A93ED0A9BD3E91089D3E9C3
:1044C0000E4582ED008BD3E90C013B4A3B4B82ED5C
:1044D000009BC3E900893A4A3A4B82ED009BC3E94D
:1044E0000001394A394BC2E90001C3E90045384AA5
:1044F000384B83B086ED000BC2E90045C3E9008963
:1045000087ED008B53EC102B8DED000B0EF0E8F8CF
:104510000022314B0EF0C6FB304B82468B46C3E97E
:1045200000AB204653EC182B29460EF0D9F8002298
:10453000294B0EF0B7FB2A4B04460D46C3E9004554
:10454000404653EC192B49460EF0CAF80022224B84
:104550000EF0A8FBB0EE492AF0EE692AB0EE481A38
:10456000F0EE681A1F4BC3E900011F4BC3E900AB13
:104570001E4BC3E900451E4B9DED000BC3E9000136
:104580001C4804F041FB0E4A1B4892ED002B97EDAE
:10459000001B96ED000B03B0BDEC048BBDE8F04FA3
:1045A00004F032BB8005002070040020800400204D
:1045B0006004002050040020300400203804002053
:1045C00040040020880400207804002068040020B3
:1045D000580400204804002000804640F8050020D0
:1045E000E8050020D805002000060020F005002086
:1045F000E0050020C806002040070020FFFFFFFF65
:104600002DE9F04F89B01D46149B0093159B019333
:10461000169B0293704BDDF864901B780493032B78
:104620000C4683469246DDE91216DDE9177830D153
:1046300000226A4BD9E900010EF00AFAD8E90023FA
:104640000EF050F80022CDE90401644BD7E90001D7
:104650000EF0FEF9029BD3E900230EF043F8CDE9FA
:10466000020101995D4BD1E9000100220EF0F0F941
:10467000009BD3E900230EF035F89DED042B9DED52
:10468000021B41EC100B304609B0BDE8F04F04F0BE
:10469000BBBA4FA3D3E90023D1E900010EF068FCB7
:1046A00000284AD04E4B1B78002B46D1049B002B90
:1046B00043D09BF8003043B90BF0A6F801232060EB
:1046C0008BF8003009B0BDE8F08F0BF09DF823683F
:1046D000C01A1328F6D90BF097F82368C31A2D20B7
:1046E00058434FF4FA7390FBF3F02D28A8BF2D2008
:1046F0000123CAF800002B700EF040F9D9E900231D
:1047000004460D460EF0A4F9D8E900230DF0EAFFA7
:10471000D7E90023CDE90401204629460EF098F997
:10472000029BD3E900230DF0DDFF019BCDE90201DF
:10473000D3E900232046294698E72B78002B3DD06B
:10474000DAF800000028BDDD0138CAF800000EF0DC
:1047500015F9D9E90023CDE904010EF079F9D8E97A
:1047600000230DF0BFFFD7E90023CDE90601DDE905
:1047700004010EF06DF9029BD3E900230DF0B2FFA6
:10478000019BCDE90201D3E90023DDE904010EF02C
:104790005FF9009BD3E900230DF0A4FF9DED062BEC
:1047A00041EC100B9DED021B304604F02DFADAF8B7
:1047B000003003B92B702B78002B83D100238BF8AA
:1047C00000300BF021F820607CE700BFAFF30080E1
:1047D000FCA9F1D24D62503F990000200080464074
:1047E0003D060020284B1B78023B012B70B531D8C9
:1047F000264B1B78002B2DD1254D264ED5E90001E7
:10480000D6E900230EF0A0FB234B70B31A78234C9B
:104810000ABB01221A700AF0F7FF2060204CD6E98B
:104820000023D4E900010EF08FFB1E4B48B31A7829
:104830001D4EE2B901221A700AF0E6FF306095F8C9
:10484000313013B994F8313023B1184A0123137071
:10485000174A137070BD0AF0D7FF2368C01A1328D7
:10486000DCD9012385F83130D8E71870D6E70AF093
:10487000CBFF3368C01A1328E1D9012384F8313003
:10488000DDE71870DBE700BF70050020640600203C
:10489000D0000020B0000020B9070020BC07002095
:1048A00028010020BA070020C0070020B807002018
:1048B00014080020FFFFFFFF38B5194C194DD4E94B
:1048C0000001D5E900230EF02BFB68B9D4E90023E1
:1048D000C5E9002310A3D3E90023D4E900010EF0B9
:1048E000B7F8114BC3E90001104C114DD4E9000198
:1048F000D5E900230EF014FB68B9D4E90023C5E91B
:10490000002305A3D3E90023D4E900010EF0A0F8A9
:10491000084BC3E9000138BD3AFCDA9F30CD293F8E
:1049200060050020400800202006002068050020C7
:10493000480800202806002038B50E4D0E4C2846A9
:10494000002104F0FAF92046002104F0F6F90B49A1
:1049500000230022C1E9002309492846C1E90023B8
:10496000012104F0EAF920460121BDE8384004F0B5
:10497000E4B900BFC80600204007002098040020CA
:10498000A00400202DE9F84304202E4F2E4E0AF0FB
:1049900075FE3A788242044602D00AF035FF306054
:1049A0000AF032FF3368DFF8BC80284E251CA0EBEC
:1049B000030018BF01250F2808D93378A34205D07A
:1049C00035701CB90AF020FFC8F800000520204C03
:1049D0003D700AF053FE23781E4F8342054602D0F5
:1049E0000AF012FF38600AF00FFF3B681A4F15F10A
:1049F0000009A0EB030018BF4FF001090F2809D9E7
:104A0000164B1A78AA4205D083F8009015B90AF01F
:104A1000FBFE3860D8F800203B68317884F80090BD
:104A20009A422CBFD31A9B1A0D4A49B90B490978EF
:104A300031B9B3F5AF7F03D801231370BDE8F88314
:104A40000023FAE79C0000206806002020000020D8
:104A50009D0000206C060020580500202100002049
:104A600015080020540500202DE9F8430620344F96
:104A7000344C0AF003FE3B788342804602D00AF0B1
:104A8000C3FE20600AF0C0FE23682F4D2F4C18F1A2
:104A90000009A0EB030018BF4FF001090F2817D938
:104AA0002B4E3378434513D0236886F80090B8F135
:104AB000000F07D11BB90AF0A7FE264B1860236828
:104AC0000133236033781BB12368012B08BF2B709F
:104AD000236887F80090022B17D11D4B1E78BEB9B2
:104AE0002B78ABB11B4F0AF08FFE3B68C01A40F227
:104AF000DB53984209D80AF087FE3B68C01A962813
:104B000081BF154B2E7001221A702368012B09DD1D
:104B10000F4B1B7833B1104A0023137023602B70A6
:104B2000BDE8F8832B78002BFAD00AF06DFE094B14
:104B30001B68C01A40F2DC539842ECD8F0E700BF83
:104B40009E00002078060020D0070020C807002023
:104B500084000020CC0700203406002008B5114B4B
:104B6000114902221A70114B01221A60104B114A8E
:104B70000020C3E90001104BD3E900010F4BC3E94A
:104B80000001002313700E4A00200021C2E9000139
:104B90000C4AC2E900010C4A13700AF035FE0B4BB7
:104BA000186008BD99000020000024406006002025
:104BB0000808002080010020180000205006002076
:104BC00040060020C8050020D0050020C8080020AD
:104BD00008B5194B1B78002B26D0184A00231370F8
:104BE000174AD2E90001174AC2E90001164A1370B8
:104BF000164A03211170164A16490020C2E9000125
:104C00000BA1D1E90001144AC2E90001134A0020B6
:104C10000021C2E90001124AC2E90001114A1370E1
:104C20000AF0F2FD104B186008BD00BFAFF3008022
:104C30009A9999999999A9BF1C0800208001002090
:104C4000300800203808002098000020990000203B
:104C500008080020000014405006002040060020F4
:104C6000C8050020D0050020C8080020114B1A7884
:104C7000114BBAB9114A1278A2B9114A12788AB9FD
:104C8000104A127872B9104A12785AB90F4A12783B
:104C900042B90F4A12782AB90E4A127812B90E4A4E
:104CA00012782AB10D4A127812B101221A70704797
:104CB0000022FBE71906002064060020C10800203E
:104CC000A8060020A50600201C0400201F080020C4
:104CD00025080020C4070020B80700201408002081
:104CE0001A4B0122D0B51A70194B1A4A0026002718
:104CF000C3E90067184B00241C70184BC3E9006718
:104D0000174B1360174A1360FFF716FE164BC3E9E3
:104D10000067164B06221A70154B1C60154BD3E921
:104D20000001154BC3E90001144B1C70144B1C709F
:104D30000AF06AFD134B14491860144B14480522FD
:104D4000BDE8D0401A700AF01DBB00BF98000020DB
:104D50004006002070010020D0050020C80500207A
:104D600000E1F505740100200808002099000020EA
:104D70006006002050060020580600205005002044
:104D800048060020280800205F560100700000201F
:104D9000DC160020FFFFFFFF2DE9F04FA64BDFF8E8
:104DA000E4B21E78A54DA64C85B09946A6B90AF086
:104DB0002BFD99F80030CBF8000083F0010389F84F
:104DC0000030A04B00200021C3E900019E4B1E7063
:104DD000D4E90023C5E90023D4E900679B4CDFF840
:104DE000B8A294ED007B304653EC172B39468DED7D
:104DF000007B0EF09FF8002800F01F82944B1B7878
:104E0000002B40F01A820123CAF800300AF0FCFCA3
:104E1000DBF80030C01A042840F2BE80D4E9002339
:104E2000D5E900010EF07CF8002840F0B580894BF0
:104E30001B7823B9864B1B78002B00F0AD80864C85
:104E40002378BFF35B8FDB0715D420460DF025FCDC
:104E500088B10AF0D9FCDBF80030C01A0DF07EFDF5
:104E600073A3D3E900230DF0F3FD7C4BC3E90001EC
:104E700020460DF01EFC7A4BDFF8C8811B78023B00
:104E8000012B94BF77497849784B0020C3E9000192
:104E9000DAF800000DF072FD95ED007B6F4BD3E961
:104EA000004553EC172B8DED027BCDE900010DF091
:104EB000CFFD664B0646D3E900230F46DDE900012E
:104EC0000DF0C6FD6A4BD3E900230DF009FC024644
:104ED0000B46304639460EF041F8D8E900AB46465D
:104EE000002800F0BA815A4B1B78002B40F0B581A6
:104EF00000225D4B5F4F204629460DF0A9FD02467A
:104F00000B46504659460DF0EBFB4F4B0122002655
:104F10001A70C8E9000132463B460EF015F808B198
:104F2000C8E90067544BDFF81C81D3E90067D8E972
:104F3000000132463B460EF01BF808B1C8E9006795
:104F4000D8E9006722462B46304639460DF080FDF1
:104F5000DDE900230DF07CFDDDE902230DF0C2FB4D
:104F6000364BC3E90001384B1B788BB932463B46C0
:104F7000304639460DF06CFD0022404B0DF092FE9C
:104F80003F4BD3E900230DF0ADFB394BC3E90001E2
:104F90000AF03AFC3B4B1860284F2C4EDFF8F8A083
:104FA000D7E90045D6E90023204629460DF0B8FF91
:104FB000BB46002872D1274B1B78002B6ED1244BA7
:104FC0001A78002A6AD199F8003083F0010389F831
:104FD00000301B4BC3E900451B4B1A70194BD3E93A
:104FE0000023104619460DF033FD0022234B0DF02F
:104FF00059FE234BD3E900230DF074FB1C4BC3E98E
:105000000001174B1B78043B012B47D81E4B1B7824
:10501000002B43D00123CAF800301C4B1C491D480B
:1050200003221A700AF0AEF9FFF798FD36E000BFD0
:1050300012FE7F7B2278F13E8001002030080020A4
:105040003808002040060020D0050020500600202F
:105050004805002048060020D00400202805002034
:10506000990000200000694000407F40300500208A
:10507000C80500200000E03F0808002000408F40E5
:1050800078010020E8070020500500207000002073
:10509000C3570100DC16002060060020DAF800008B
:1050A0000DF06CFCDBE90023D6E90045804689461B
:1050B0000DF0CEFC224606460F462B46404649469A
:1050C0000DF0C6FC02460B46304639460DF046FF51
:1050D000002800F0D080694EC6E90045684C23786E
:1050E000012B01D1FFF7FCFD2378042B01D1FFF741
:1050F000F7FD237813F0FD0F01D1FFF7F1FD2378C1
:10510000052B40F0B8805F4B00931A78002A76D0C8
:105110005D4DDFF8B0812B781BB90AF075FBC8F83C
:1051200000005A4A5A4913784FF0010983EA0903EB
:105130001370DBE90023C6E90023564B85F8009085
:10514000D3E90067D1E9000132463B460DF0FCFE91
:10515000DFF864B120B19BF800300BB98BF80090F8
:105160004D4B3046D3E9002339460DF0F7FE20B110
:105170004A4B1A780AB901221A709BF8003013B111
:10518000464B1B7813B9464B1B788BB1454B4649B0
:10519000464804221A700AF0F5F8404A00232B70A2
:1051A0008BF8003013700123CAF80030FFF7D6FCEB
:1051B0000AF02AFBD8F80030C01A0DF0CFFB3C4BA8
:1051C000D3E900230DF0D4FEB0B19BF80030334A90
:1051D0000BB1137883B9002313702B708BF8003058
:1051E0000123CAF800302F4B3249304806221A708A
:1051F0000AF0C8F8FFF7B2FC2378052B3BD1009BDF
:105200001B78002B37D12C4B24491A780AB10A7825
:105210008ABB00221A701C480A700123CAF80030A9
:10522000204B02702549214803221A700AF0AAF87F
:1052300005B0BDE8F04FFFF791BC4FF0FF33CAF85F
:1052400000303046DDE9002339460DF069FE0028C4
:105250003FF4DCADFFF744FDD8E5194B2046D3E918
:10526000002329460DF0F4FB52465B460DF03AFA56
:10527000C6E9000156E605B0BDE8F08F3808002009
:1052800099000020340600204805002080010020FD
:10529000200400200800002028040020B80400207A
:1052A0000200002070000020D4570100DC1600200E
:1052B00010000020E557010090040020C3570100B2
:1052C000300500204C050020B54B1B782DE9F74335
:1052D000002B00F00B81B3499BA3D3E90023D1E954
:1052E00000010DF0B5FB4FF06632AF4B0DF0FAF94F
:1052F0000022AE4B04460D460DF03AFE08B9AB4D08
:105300000024AB4BAB4E1A780E2AC6E9004537464F
:1053100048D1A94FD7E90089204642464B46294645
:105320000DF096FB22462B46CDE90001404609F1DF
:1053300000410DF08DFB9DED001B41EC100B9F48D3
:1053400003F08BFCD7E90045D6E9006720463246DA
:105350003B4629460DF07CFB3246CDE900013B4639
:10536000204605F100410DF073FB9DED001B41EC63
:10537000100BE2E09FED761B9FED770B8F4803F05B
:105380006CFC9FED731B9FED740BD6E09FED741BBF
:105390009FED750B894803F060FC9FED711B9FED3D
:1053A000720BCAE0864B1B782BBB22462B4620464D
:1053B00029460DF097F90022CDE900014FF0404356
:1053C000204629460DF044FB9DED001B41EC100BDF
:1053D0007A4803F042FCD6E9004522462B46204697
:1053E00029460DF07FF9CDE9000100224FF040433E
:1053F00020462946B7E7023B012B3AD871495CA306
:10540000D3E90023D1E900010DF0B2FD002840F0FE
:1054100089806D4956A3D3E90023D1E900010DF03D
:10542000A7FD00287ED152A3D3E9002320462946B8
:105430000DF00EFB50A3D3E90023CDE90001204677
:1054400029460DF005FB9DED001B41EC100B5B4860
:1054500003F003FCD6E9004545A3D3E90023204629
:1054600029460DF0F5FA44A3D3E90023CDE9000164
:10547000BEE7102A56D1554B1B788BB15149544B7E
:105480000022D1E900010DF073FD00284AD14E49F8
:105490004F4B0022D1E900010DF06AFD002841D1F7
:1054A00037A3D3E90023204629460DF0D1FA36A3CD
:1054B000D3E90023CDE90001204629460DF0C8FAC2
:1054C0009DED001B41EC100B3C4803F0C6FBD7E9F7
:1054D00000452BA3D3E90023204629460DF0B8FA56
:1054E00029A3D3E90023CDE9000181E73549384BF1
:1054F0000022D1E900010DF03BFD48B93249344B9F
:105500000022D1E900010DF033FD00283FF43EAF49
:105510002E4B1B78002B3FF42DAF254B1B78192BFE
:105520003FF428AF9FED1A1B9FED1B0B234803F0A0
:1055300094FB9FED171B9FED180B264803B0BDE8A9
:10554000F04303F08ABB00BF0000000000C05C40D5
:105550000000000000408F400000000000408FC0AD
:10556000000000000000694000000000000069C069
:105570009A9999999999C93F9A9999999999C9BF6D
:10558000666666666666D63F666666666666D6BFA9
:105590000000000000A8A6400000000000A8A6C06F
:1055A00048060020400600206666264000804040F5
:1055B000A4060020B006002090000020C8060020AD
:1055C00099000020D000002028010020A60600201D
:1055D0000000F03F40070020D0B5D0E90667044640
:1055E00000220D4B304639460DF0C2FC48B1002276
:1055F0000A4B304639460DF09DFC10B173232374DD
:10560000D0BD0022044B304639460DF09DFC08B158
:105610006E23F4E77023F2E7000024C0000024406A
:105620002DE9F347444D454F454C464EDFF824A144
:10563000D5E90223D5E900010DF052F889468046EC
:105640000AF0E2F83B68C01A0DF088F938A3D3E9F4
:1056500000230DF0FDF902460B46404649460DF089
:1056600021FBD5E90023C6E90001C5E90223D4E9FD
:105670000001D4E902230DF033F8894680460AF090
:10568000C3F83B68304FC01A0DF068F928A3D3E97E
:1056900000230DF0DDF902460B46404649460DF069
:1056A00001FBD4E90023CDE90001C4E90223DAE9D2
:1056B0000001D6E900230DF015F8244E80468946F6
:1056C000D7E90023DDE90001CAE900890DF00AF8F5
:1056D00033680133022BCDE90001C7E900013360D3
:1056E00020DD00221A4B404649460DF0DBFA00222D
:1056F000C5E90601164BDDE900010DF0D3FA0022E1
:105700000023C4E90601CAE90023C7E900232846AB
:1057100000233360FFF760FF204602B0BDE8F0478A
:10572000FFF75ABF02B0BDE8F08700BFAFF30080BB
:105730007A88ED07E879F13ED0000020F0070020DC
:105740002801002018050020100500202005002059
:1057500000000840080500202DE9F04F2DED028BD8
:1057600085B00AF051F8C04A03921368DFF844A3E9
:10577000DFF844B3C01ABD4B1B689842C0F0D48018
:10578000DAF800000DF0FAF806460F4602460B461E
:10579000DBE900010DF086FAB54B0D46B54904462C
:1057A000C3E9004532463B46D1E900010DF07AFAE3
:1057B000B14B80468946C3E900892046A0A3D3E9BE
:1057C000002329460DF044F90022AC4BAC4CAD4D02
:1057D0000DF068FA06460F46C4E9086798A3D3E9B6
:1057E0000023404649460DF033F90022A34B0DF04B
:1057F00059FA80468946C5E90889D4E90A23304622
:1058000039460CF06DFF06460F46D5E90A2340469F
:105810004946C4E900670CF063FF80468946C5E944
:10582000008900220023304639460DF0A1FB029585
:105830004FF00105002800F0F98083A3D3E900238D
:10584000304639460DF080FB00B90546EDB29FEDBC
:10585000808B0DB184ED008B002200234046494629
:105860000DF086FB4FF00105002800F0278176A39C
:10587000D3E90023404649460DF066FB00B90546D2
:10588000EDB215B1029B83ED008B7F4B7F4E1B78F1
:10589000052B07D0012B40F019817D4B1B78002B85
:1058A00000F047817B4B1B7A002B00F042817A4B42
:1058B000D3E900890022794BD4E900010DF0F2F917
:1058C00042464B460DF0C4F80022002304460D4624
:1058D0000DF04EFB08B90024002502996F4B002201
:1058E000C6E90045D1E900010DF0DCF942464B461E
:1058F0000DF0AEF80022002304460D460DF038FBF3
:1059000008B900240025664BC3E900450023CAF806
:105910000030584B8BED008B83ED008BFFF780FE42
:1059200009F072FF039B18600F2009F0D3FA0646B6
:10593000102009F0CFFA41F294140023054640F2FA
:10594000FF3219460094304609F0E2FB0DF016F8DC
:105950000022544B0DF0A6F9002340F2FF32064618
:105960000F4600941946284609F0D2FB0DF006F8C0
:1059700000224C4B0DF096F9002204460D464A4B8E
:10598000304639460DF0F4FA002840F0D880002265
:10599000464B304639460CF0A3FE0022444B0DF036
:1059A00057F82DA3D3E900230DF052F8002200236D
:1059B0000CF098FE06460F4600223B4B2046294637
:1059C0000DF0D6FA002840F0BE800022374B20466A
:1059D00029460CF085FE0022354B0DF039F81EA348
:1059E000D3E900230DF034F8002200230CF07AFEF6
:1059F00004460D46DAF800300133CAF8003032466A
:105A00003B46DBE900010CF06DFECBE900011949D2
:105A100022462B460C46D1E900010CF063FEC4E996
:105A2000000105B0BDEC028BBDE8F08F0CA3D3E9FB
:105A30000023304639460DF091FA05E7AFF30080B8
:105A40002A51CB8B0F96214052B81E85EB51B83F9F
:105A500000000000000000007B14AE47E153AC40A2
:105A600052B81E85EB51B8BFF00700206801002036
:105A700038050020A80800204005002000409F4075
:105A8000D00000202801002099000020D808002024
:105A9000A606002080050020A0000020000029406C
:105AA000E008002000408F40000012400000E03F6E
:105AB0000000D03F10080020A00800202CA3D3E94C
:105AC0000023404649460DF049FAD7E6022B30D173
:105AD000234B1B7A6BB3234BD3E900890022224B63
:105AE000D4E900010DF0DEF842464B460CF0B0FF61
:105AF00017A3D3E900230CF0F3FD00220023044692
:105B00000D460DF035FA08B9002400250299164B10
:105B1000C6E900450022D1E900010DF0C3F8424674
:105B20004B460CF095FF0AA3D3E900230CF0D8FDF7
:105B3000E0E60E4B86ED008B83ED008BE6E606A7D4
:105B4000D7E9006738E704A5D5E9004552E700BF6B
:105B50007B14AE47E17A743F7B14AE47E153AC400F
:105B600080050020A000002000002940E00800205F
:105B700052B81E85EB51B8BF19491A4BD0B5002257
:105B8000D1E900010DF0F4F938B91749154B00229D
:105B9000D1E900010DF0ECF9E8B1144B1B78023BA0
:105BA000012B18D9124C134F002632463B46D4E93C
:105BB00000010DF0DDF968B1C4E900670E4C2378EF
:105BC00043B90E4B0E490F4811221A7009F0DAFB47
:105BD00001232370D0BD084B00221A70FAE700BFE2
:105BE000D000002000002340280100209900002060
:105BF000080800200000144000050020700000206C
:105C00006F560100DC160020164B174A1B7813B99B
:105C10001649097821B9117811B91549087800B3E6
:105C20001278DAB91249114A0878124912780978BB
:105C300021B942B13BB938B9022070471AB113B942
:105C400010B90320704760B10B4B1B7843B90B4B65
:105C50001B78002B14BF00200420704701207047E0
:105C600000207047640600203D0600201C0800202C
:105C70000208002098000020A8060020A5060020A9
:105C8000042800F2A480DFE800F00362659C9F0016
:105C9000544B1B7813B9544A13707047534B1B78FD
:105CA000002B00F09E80524B1B7813B14E4B01220B
:105CB0001A70504B1B7813B14B4B02221A704E4B8B
:105CC0001B7863B14D4B93F830204D4B93F8301057
:105CD000454B002931D0002A32D103221A70494B9A
:105CE0001B7853B1454B93F83120454B93F8311055
:105CF0003D4B39B34ABB06221A70434B1B7813B194
:105D0000394B09221A70414B1B7813B1364B0A22CA
:105D10001A703F4B1B7813B1334B0B221A703D4B5B
:105D20001B7813B1304B0C221A703B4B1B78002BA5
:105D300057D02D4B0D221A7070470AB10422CDE7BF
:105D40000522CBE70AB10722D6E70822D4E7264B83
:105D50000E22F0E7314B1B7813B9234B0F22EAE7F1
:105D6000012B07D12E4B1A781F4B0AB11022E2E704
:105D70001122E0E7042B07D12A4B1A781A4B0AB1FB
:105D80001222D8E71322D6E7052B26D1264B1B7803
:105D90005BB1264A264B12781B78DAB90BBB124B43
:105DA0001422C8E7104B1522C5E70F4B1622C2E795
:105DB000204B1B78ABB90C4B1722BCE70A4B1822BF
:105DC000B9E7094B1922B6E7074B1A22B3E7064B8E
:105DD0001B22B0E7002BE5D17047022BE8D0032B44
:105DE000ECD070471C080020A406002064060020A8
:105DF0001C04002019060020C407002028010020F0
:105E0000D0000020B807002025080020C10800208D
:105E1000A80600201F080020A506002099000020E9
:105E200015080020480600203406002090040020B9
:105E3000B80400203D060020244B0021002010B5AE
:105E4000C3E90001224B234CC3E90001224BC3E903
:105E50000001224BC3E90001214BC3E90001214BA2
:105E6000C3E90001204BC3E90001204BC3E9000155
:105E70001F4BC3E900011F4B01221A701E4A002369
:105E800013701E4A84F8313013701D4A13701D4A76
:105E900013701D4A13701D4A13701D4A13701D4A5A
:105EA00013701D4A13701D4A13701D4A13701D4A4A
:105EB00013701D4A13701D4AC4E90A01C2E90A01A0
:105EC0001B4982F831300B7010BD00BF6005002007
:105ED00068050020D000002038080020300800208D
:105EE0005006002040060020080800202004002062
:105EF000280400201C08002019060020C1080020EA
:105F0000A8060020A50600201F0800202508002064
:105F1000C40700201C040020140800203C060020B8
:105F20004805002090040020B8040020280100202B
:105F3000B8070020FFFFFFFF2DE9F74F0191002870
:105F40004ED05D4CD4E900890022002340464946EA
:105F50000CF07EFD0022002306460F460DF008F8E7
:105F6000A34610B907F100431F46DFF868A1DAE93C
:105F7000004542464B46204629460CF0B1FB002224
:105F80000023804689460CF0F3FF10B909F1004365
:105F9000994642464B46304639460CF0DFFF90B1F9
:105FA00000220023204629460CF0E2FF00286BD097
:105FB0003DA3D3E90023204629460CF0D9FF10B1B8
:105FC0003E4B1B7863B102F013FC3D4802F032FCFB
:105FD0003C4B186802F03AFCDAE90023CBE90023D5
:105FE000019B002B4DD0384CD4E9008900220023BE
:105FF000404649460CF02CFD0022002306460F4681
:106000000CF0B6FFA34610B907F100431F46DFF8B6
:10601000C8A0DAE9004542464B46204629460CF026
:106020005FFB00220023804689460CF0A1FF10B9D7
:1060300009F10043994642464B46304639460CF03A
:106040008DFF88B100220023204629460CF090FFE6
:1060500010B315A3D3E90023204629460CF088FF8E
:1060600010B1164B1B7863B102F06AFC174802F0BE
:1060700089FC174B186802F091FCDAE90023CBE9A0
:10608000002303B0BDE8F08F09A3D3E90023204625
:1060900029460CF04FFF92E705A3D3E900232046E1
:1060A00029460CF047FFDBE70000000000E07540E8
:1060B0000000000000E075C0D807002002080020A2
:1060C0005943000070010020E0070020BD4300009C
:1060D00074010020B8060020C0060020F0B4049C23
:1060E000D0B11B4E1B4D95FBF4F5002DCCBF1A4DC6
:1060F0001A4D95FBF4F53560194D00263AB9194F44
:10610000C5E9006749B90120F0BCFFF715BF012AB6
:106110000CBF154F0027F3E7C1B10E4A92FBF4F212
:10612000002ACCBF0C4A0D4A92FBF4F40F4A1460CB
:106130000F4A00242BB90B4DC2E9004530B90121AB
:10614000E2E7012B0CBF084D0025F5E70121DAE756
:1061500070010020C0270900E0930400206CFBFFC1
:10616000B80600200000F03F0000F0BF74010020DE
:10617000C0060020FFFFFFFF2DE9F041A04F09F00E
:1061800043FB3B68C01A082845D9FFF79DF89D4B93
:106190009D49DFF8CC82D3E90045D1E900012246D0
:1061A0002B460CF09DFA0B4698490246D1E90001B6
:1061B0000CF098FA964BC3E90001964922462B460B
:1061C000D1E900010CF08CFA0B4693490246D1E963
:1061D00000010CF087FA914BC3E90001904802F0EE
:1061E000FBFB904802F0F8FB8F4B5B7DABB18F4B14
:1061F000C8F800308E4BDFF86C825B7D002B00F01E
:1062000081808A4BC8F8003001210846FFF794FED0
:1062100009F0FAFA3860BDE8F081864B864ED3E982
:106220000045864B1B78FBB9C6E90045844B1B78BB
:10623000023B012BD6E9004503D9824B1B780E2B7C
:106240004DD100220023204629460CF073FED8B918
:1062500065A3D3E90023204629460CF089FEA8B1A6
:1062600061A5D5E9004511E0774B18680CF086FB75
:10627000764BD3E900230CF0EBFB22462B460CF0C7
:1062800031FAC6E90001D1E700240025C6E900453E
:10629000D6E9004500220023204629460CF040FEA6
:1062A0000028A4D122462B4651A1D1E900010CF0CF
:1062B000F9FC0022664B0CF0F5FC0022002304469A
:1062C0000D460CF055FEB8B1624B0022204629461F
:1062D0000CF0BEFB0CF06CFEC8F800008AE746A389
:1062E000D3E90023204629460CF024FE0028AFD035
:1062F00041A5D5E90045C9E7204605F10041002246
:10630000544BE5E7544B554ED3E900454B4B1B78B6
:10631000DBB9C6E900454A4B1B78023B012BD6E9A5
:1063200000454ED800220023204629460CF002FEEC
:10633000D8B92DA3D3E90023204629460CF018FE36
:10634000A8B129A5D5E9004511E03F4B18680CF02C
:1063500015FB3E4BD3E900230CF07AFB22462B467B
:106360000CF0C0F9C6E90001D5E700240025C6E914
:106370000045D6E9004500220023204629460CF0BE
:10638000CFFD00287FF43DAF22462B4618A1D1E96E
:1063900000010CF087FC00222D4B0CF083FC002246
:1063A000002304460D460CF0E3FDB8B1294B002252
:1063B000204629460CF04CFB0CF0FAFDC8F8000012
:1063C00022E70DA3D3E90023204629460CF0B2FDB5
:1063D0000028AED008A5D5E90045C8E7204605F15C
:1063E000004100221B4BE5E70000000000A8A6408A
:1063F00000000000389C8C410000000000A8A6C0EE
:10640000F80700203008002020060020D8080020CF
:106410002004002028060020E00800202804002096
:10642000C806002040070020B800002000E1F50564
:106430001001002098040020B80600204806002023
:1064400099000020A406002060060020B00600206D
:10645000000059400000E03FA0040020C0060020DA
:1064600070010020740100202DE9F8434C4C09F024
:10647000CBF92368C01A082878D9FEF725FF494BC5
:1064800049494A4DD3E90067D1E9000132463B460C
:106490000CF026F9464BC3E90001464932463B461B
:1064A000D1E900010CF01CF9434BC3E9000143485A
:1064B00002F092FA424802F08FFA424BD3E9008987
:1064C000414BC3E90089414BD3E90067404B0022AF
:1064D000C3E900674046002349460CF021FD00282F
:1064E0004CD142464B462CA1D1E900010CF0DAFB1D
:1064F0000022384B0CF0D6FB002200238046894650
:106500000CF036FDA0B3344B0022404649460CF057
:106510009FFA0CF04DFD28600022002330463946DA
:106520000CF0FEFC2D4D90BB32463B461AA1D1E942
:1065300000010CF0B7FB0022264B0CF0B3FB00224D
:10654000002306460F460CF013FDD0B1224B00226B
:10655000304639460CF07CFA0CF02AFD2860012107
:106560000846FFF7E9FC09F04FF92060BDE8F88321
:10657000404609F100410022174BC8E7184B2B6039
:10658000CAE7304607F100410022134BE2E7144B03
:106590002B60E4E7AFF3008000000000389C8C41E2
:1065A000F80700205006002020060020700100207F
:1065B000200400202806002028040020C80600200F
:1065C0004007002098040020B8060020A004002006
:1065D000C0060020000059400000E03F7401002088
:1065E00000E1F50510B50C4620B102F001F9054BAC
:1065F000054A1A6024B102F0A3F9044B024A1A605A
:1066000010BD00BF7001002000E1F50574010020FD
:10661000012110B50846FFF7E5FF1B4900220023C2
:10662000C1E900231949C1E900231949C1E900233F
:106630001849C1E900231849C1E900231749C1E9F4
:1066400000231749C1E900231649C1E9002316496F
:10665000C1E90023154B06221A70154B00241C704B
:10666000144B5C75144B5C75144B1C70144B1C70F4
:10667000144B1C70144B1C6009F0C6F8134B1860C7
:10668000134B1C7010BD00BF600500206805002082
:106690003808002030080020500600204006002066
:1066A0000808002020040020280400209900002071
:1066B0003D060020B8000020100100204805002001
:1066C00090040020B804002098080020CC08002086
:1066D0003C060020FFFFFFFF274938B5D1E9000144
:1066E0001DA3D3E900230CF02FFC40B123491AA3CA
:1066F000D3E90023D1E900010CF026FCC8B92049F8
:1067000017A3D3E90023D1E900010BF0EBFF00222E
:10671000002304460D460CF02BFC88B112A3D3E9EC
:106720000023204629460CF005FC10B9154B1B78B8
:1067300073B1154B01221A70BDE83840FFF768BFEE
:106740000BA3D3E90023204629460CF011FCECE70B
:10675000BDE83840FEF73CBA9A9999999999C93F92
:106760009A9999999999A93FFCA9F1D24D62503F04
:10677000FCA9F1D24D6250BFD000002028010020BA
:1067800030080020020800201408002038B5104B03
:106790005B7AE3B109F038F80E4B1B68C01A0E4B58
:1067A0001B68984213D90D4D2A7882B90C4B0124ED
:1067B0001C7009F029F80B4B18600B4B1B78032B4E
:1067C00003D00A4B1C70FFF787FF01232B7038BDE5
:1067D00080050020D008002094010020D40800206B
:1067E000350600203806002099000020A50600206C
:1067F000F8B5D0E90E230546D0E900010BF072FF91
:1068000000221D4B0CF024F906460F46C5E90A6725
:10681000002200230CF0ACFB4FF00104C8B112A31E
:10682000D3E90023304639460CF0A2FB00B90446F8
:10683000E4B2B4B100220023C5E90A230F4A0123C0
:1068400013700F4A85F830301370BDE8F840FFF739
:1068500043BF07A3D3E90023304639460CF06AFB57
:10686000E4E785F83040F8BD666666666666D63F42
:10687000666666666666D6BF0000E03FC407002015
:106880001408002037B5154D154C2B789BB9012104
:1068900040F24A22084600921A46FFF71FFC0123E5
:1068A0002B70104B1049114807221A7008F06AFD2E
:1068B00008F0AAFF206008F0A7FF2368C01A42F280
:1068C0001073984207D90A4B01221A7003B0BDE831
:1068D0003040FFF79DBE03B030BD00BF3C06002036
:1068E00030060020700000202E570100DC1600202A
:1068F00014080020FFFFFFFF2DE97043D0E9008955
:106900003D4D044638A3D3E90023404649462E684E
:106910000CF02EFB00283BD035A3D3E900234046E2
:1069200049460CF007FB002832D0A368013300224F
:10693000B342A360C4E9032204DB73232375A36875
:10694000B34207DAE368B34204DA2369B342BCBF57
:106950006623237508F058FF284B1B68C01A41F2C4
:1069600088339842264B2ED91A78192A00D052BB68
:10697000244A12783ABB94F91430702B28D10121A3
:10698000214B08461970FFF72DFEFFF7A5FE24E006
:1069900015A3D3E90023404649460CF0D5FA48B187
:1069A000E36801330022B342E3602261A260C6DBE8
:1069B0006E23C3E72369A0600133B342C4E9030334
:1069C000BDDB7023BAE71B780E2B0AD1142305E038
:1069D0006E2B02D12B68052BD1D10A232B60BDE889
:1069E00070830523FAE700BF7B14AE47E17A84BFCA
:1069F0007B14AE47E17A843F040000202808002081
:106A0000A40600206406002025080020FFFFFFFFE9
:106A10002DE9F0472E4C08F0F7FE2368C01A132822
:106A20004DD92C4F2C4D2D4EDFF8BCA0D5E90023BD
:106A3000D7E900010BF054FE8946804608F0E4FED9
:106A40002368C01A0BF08AFF1FA3D3E900230BF0C1
:106A5000FFFF02460B46404649460CF023F9D7E9B2
:106A600000231F4FC5E90023C6E90001D7E9002331
:106A7000DAE900010BF034FE8946804608F0C4FED6
:106A80002368184DC01A0BF069FF0FA3D3E9002348
:106A90000BF0DEFF02460B46404649460CF002F979
:106AA000DAE90023C5E900013046C7E90023FFF712
:106AB00023FF2846FFF720FF08F0A6FE2060BDE870
:106AC000F08700BFAFF300807A88ED07E879F13EE8
:106AD000FC0700202006002088060020B8000020C7
:106AE0009006002010010020280600204C4B2DE9C4
:106AF000F74FDFF858B1DFF858A1D3E90067DBE9B9
:106B00000001484B9AED007BD3E9004532463B46F5
:106B10008DED007B0BF0E6FD2246804689462B4634
:106B2000DDE900010BF0DEFD02460B46404649461A
:106B30000BF0D6FD002200230CF01AFADBE900234B
:106B4000DAE90089002838D0304639460BF0CAFD12
:106B5000424606460F464B46204629460BF0C2FDEC
:106B600002460B46304639460BF0BAFD02460B464C
:106B70002D492E4D2E4CC1E900232E49D1E90001AB
:106B80000CF0D8F9002844D02B4B1B78002B40D1B7
:106B90002A4B1B78002B3CD0294B1B78002B38D17B
:106BA000284B1B78ABBB2B78EBB908F02DFE0123EB
:106BB00020602B7003B0BDE8F08F304639460BF0F3
:106BC00091FD424606460F464B46204629460BF0AD
:106BD00089FD02460B46304639460BF081FD0246E0
:106BE00001F10043C4E708F00FFE2368C01AB0F5B6
:106BF000FA7FDFD3144C2378002BDBD10121084628
:106C0000FFF7F0FC0123237003B0BDE8F04FFFF75E
:106C100063BD00232B7008F0F7FD2060CAE700BFBA
:106C2000D8080020E00800201006002018060020E8
:106C30001C060020780000203D060020990000205E
:106C4000020800206406002019060020200600200B
:106C500028060020564B2DE9F047D3E90045554B57
:106C6000DFF88081D3E9006722462B46D8E900018E
:106C70000BF036FD32463B460BF034FD002200237C
:106C80000CF076F922462B4600285DD0D8E90001A9
:106C90000BF026FD32463B460BF024FD06460F4620
:106CA000454BDFF844A1C3E90067444BD3E90089B1
:106CB00022462B46DAE900010BF012FD42464B4614
:106CC0000BF010FD002200230CF052F922462B4657
:106CD000002845D0DAE900010BF002FD42464B46A0
:106CE0000BF000FD04460D46354BC3E90045354B1E
:106CF000D3E9008932463B46404649460CF01AF932
:106D0000314F324E38B922462B46404649460CF0A8
:106D100011F9002845D02E4B1B78002B41D12D4B6B
:106D20001B78002B3DD02C4B1B78002B39D12B4BE3
:106D30001B78002B35D13B78F3B908F065FD0123B2
:106D400030603B70BDE8F087D8E900010BF0C8FC6B
:106D500032463B460BF0C6FC064601F100479FE772
:106D6000DAE900010BF0BCFC42464B460BF0BAFCE2
:106D7000044601F10045B7E708F046FD3368C01A44
:106D8000B0F5FA7FDED3164C2378002BDAD101213F
:106D90000846FFF727FC01232370BDE8F047FFF703
:106DA0009BBC00233B7008F02FFD3060CAE700BF9A
:106DB00030080020D8080020B0080020E00800209B
:106DC000B808002088010020C0080020C408002066
:106DD0003D060020990000200208002064060020E3
:106DE000C108002020060020280600201D4B1B782B
:106DF00010B51D4C002B32D11C491D4B0022D1E98E
:106E000000010CF0B5F838B91A49194B0022D1E944
:106E100000010CF0ADF810B3174B1B78FBB92378C9
:106E20002BB908F0F1FC154B18600123237023786F
:106E3000BBB108F0E9FC114B1B68C01A47F2305394
:106E400098420ED90E4C23785BB901210846FFF712
:106E5000C9FB01232370BDE81040FFF73DBC0023B0
:106E6000237010BD4806002024080020D000002018
:106E700000001040280100206406002020080020A7
:106E80001F08002070B50A202B4C2C4E08F0F6FB92
:106E900022788242054602D008F0B6FC306008F045
:106EA000B3FC33682A1CA0EB030018BF012228287A
:106EB00004D9234B1978A94218BF1A7022700B20ED
:106EC000204C214E08F0DAFB22788242054602D09F
:106ED00008F09AFC306008F097FC33682A1CA0EB9D
:106EE000030018BF0122282804D9184B1978A94299
:106EF00018BF1A702270164A1178E1B9104B1B782E
:106F000013B1124B1B78B3B9124B1B789BB9124BC0
:106F10001B7883B11149097869B11149097851B9D0
:106F20000121032B117006D00846FFF75BFBBDE87B
:106F30007040FFF7D1BB70BD9A00002070060020A2
:106F4000000000209B0000207406002001000020AB
:106F50001C0400203D060020990000201C08002091
:106F600002080020FFFFFFFFF7B50138032805D80E
:106F7000DFE810F00B002801FA01FF0101210846AB
:106F800003B0BDE8F040FFF72DBB754C754E23688C
:106F9000002B36D1744B75490020C3E900017449B8
:106FA000744B0020C3E90001734B01251D70734B26
:106FB00002221A70FDF7F0FEFFF7DEF808F024FC5D
:106FC0006F4B1B68C01AB0F5C87F1AD36D4996F98C
:106FD000143091F91420732B08BF7575732A40F093
:106FE000A88001224A756E2B0BD1674B6749684810
:106FF00001221A70674B08221A7008F0C3F9FFF7D4
:107000006BFB737D6BB15F4B5B7D53B1236843B901
:10701000FEF712FF01210846FFF7E4FA2368013367
:10702000236023685C4D012B05D108F0EDFB23683C
:1070300028600133236008F0E7FB2B68C01A0BF0CF
:107040008DFC3FA3D3E900230BF088FF90B12368A8
:10705000022B0FD1514BD3E90001C3E90E01504B74
:10706000D3E90001C3E90E0108F0CEFB23682860D4
:107070000133236008F0C8FB2B68C01A0BF06EFCCC
:1070800031A3D3E900230BF069FF08B32368032B76
:107090001ED1444B1B782BB94048FFF7A9FB404851
:1070A000FFF7A6FB404900220023C1E900233F4926
:1070B000C1E9002308F0A8FB23682860013323609E
:1070C000C823009301231A4619461846FFF706F80D
:1070D00008F09AFB2B68C01A0BF040FC0022344BDE
:1070E0000BF03CFF18B32368042B20D10121084684
:1070F000FFF778FA214B002515A1D1E900011D7099
:107100001C4BC3E9000114A1D1E90001164BC3E9EE
:107110000001284B1D7008F077FB274B7575186030
:10712000264B25601D70174B5D75254B1D7003B0F8
:10713000F0BD6E2B3FF459AF6E2A55E7AFF30080D8
:1071400000000000007097400000000000C0624096
:10715000CDCCCCCCCCCCDC3F9A9999999999A9BF4C
:1071600098080020B80000205006002000001840B9
:1071700000001E400808002048060020990000205A
:10718000CC08002010010020A506002018560100A0
:10719000DC16002070000020EC070020D00000204A
:1071A0002801002002000020600500206805002062
:1071B00000409F4098000020F80700208001002038
:1071C0003D060020904C8AA3D3E90023D4E90001B6
:1071D0000BF0CEFE38B98D4900220023D1E9000121
:1071E0000BF0B2FE30B18A4BD3E90023C4E900238F
:1071F000FDF776FD874D2B78012B07D1864B1A784A
:10720000864B1A70FDF7C8FDFEF7B6FF2B78043BDE
:10721000012B29D8824B1A78804B1A70814B197830
:1072200011B90AB101221A707F4973A3D3E900236F
:10723000D1E900010BF056FA7C4BD3E900230BF0A7
:1072400079FE68B1724BD3E90023C4E90023FDF74E
:1072500047FD774B7749784809221A7008F092F871
:10726000FDF79AFDFEF788FF2B78022B36D16F4B86
:10727000D4E90001D3E900230BF070FE002862D0AE
:10728000664B01221A7008F0BFFA6C4B1B68C01ADB
:1072900040F2ED2398421DD969496A4B0022D1E999
:1072A00000010BF065FEA8B1674B93F914306E2B0B
:1072B00004D0664B93F914306E2B0BD1644B6549A7
:1072C0005D4801221A705A4B0A221A7008F05AF8C7
:1072D000FFF702FAFDF760FDFEF74EFF2B78032B58
:1072E00023D15D4946A3D3E90023D1E900010BF086
:1072F0003FFE40B9594942A3D3E90023D1E9000137
:107300000BF036FE50B3564B1B7823BB474BD4E9EA
:107310000001D3E900230BF021FEE0B13F4B012235
:107320001A70FDF739FDFEF727FF2B78002B7FF44D
:10733000FEAE3A4B01221A70FDF72EFD03B0BDE8F8
:10734000F040FEF719BF324BD3E90023C4E9002314
:10735000FDF7C6FCBEE7FFF795FAE6E7414B0122D1
:107360001A70FFF755F9E0E703B0BDE8F040FFF70A
:107370007BB83D4C227882B93C4D297869B93C4BA9
:107380003C4F40F6C4121A603B4B00260120C3E973
:107390000067FEF7D1FD01232B7023783BB101F08C
:1073A00027FA334B354A1A60304B00221A70344C9E
:1073B000227882B9334D287868B9334B2D4F40F687
:1073C000C4121A60314B00260121C3E90067FEF7A1
:1073D000B3FD01232B702378002B3FF4A8AE01F0FE
:1073E000AFFA294B254A1A60264B00221A709EE6F6
:1073F0009A9999999999A9BF2D431CEBE2361A3FA6
:107400009A9999999999C93F500600200808002037
:10741000580600209900002015080020480600208A
:1074200034060020500500201800002030080020FD
:107430007000002030560100DC160020C808002033
:10744000400600200000F83FB80000201001002096
:10745000A506002046560100D0000020280100208B
:107460001C04002014080020200000200008002038
:10747000700100200000F0BFB806002000E1F50513
:10748000210000200108002074010020C006002017
:1074900010B5124904460CF067F9B8B110492046FE
:1074A0000CF062F9A0B10F4920460CF05DF988B1EB
:1074B0000D4920460CF058F970B10C4B0C490D48A1
:1074C0000E221A7007F05EFF062010BD0120FCE7B7
:1074D0000420FAE70520F8E70220F6E77B560100D2
:1074E00082560100885601008D5601007000002070
:1074F00095560100DC16002038B58A4C08F084F956
:107500002368C01AC72840F20B8108F07DF986492C
:1075100020608648864C874D07F026FF864B8348BF
:107520001B781A2B96BF854A854952F8231007F01D
:107530001BFF7C217D4807F01BFF82497B4807F039
:1075400013FF814B794893ED000B042108F034F8C8
:107550007C21764807F00CFF7C49744807F004FF53
:107560007B4B724893ED000B042108F025F87C2139
:107570006E4807F0FDFE77496C4807F0F5FE764B44
:107580006A4893ED000B042108F016F87C21674847
:1075900007F0EEFE7149654807F0E6FE704B634860
:1075A00093ED000B012108F007F87C215F4807F0FC
:1075B000DFFE6C495D4807F0D7FE94ED000B042117
:1075C0005A4807F0F9FF7C21584807F0D1FE664978
:1075D000564807F0C9FE95ED000B0421534807F00B
:1075E000EBFF7C21514807F0C3FE60494F4807F08C
:1075F000BBFE5F4B4D4893ED000B012107F0DCFF14
:107600007C214A4807F0B4FE5A49484807F0ACFECE
:10761000594B464819780A2207F0FEFE7C21434860
:1076200007F0A6FE5549414807F09EFE544B3F48DF
:1076300019780A2207F0F0FE7C213C4807F098FEFA
:1076400050493A4807F090FE4F4B384819780A22C3
:1076500081F0010107F0E0FE7C21344807F088FE4C
:107660004A49324807F080FED5E90023D4E90001F9
:107670000BF036F80022002304460D460BF078FC90
:1076800010B905F100431D46414B284845EC104B0D
:107690000321C3E9004507F08FFF7C21234807F051
:1076A00067FE3C49214807F05FFE3B4B1F4893EDC6
:1076B000000B012107F080FF7C211C4807F058FED9
:1076C00036491A4807F050FE354B184893ED000B29
:1076D000012107F071FF7C21144807F049FE314970
:1076E000124807F041FE304B104819780A2207F083
:1076F00093FE2E4B1B786BB17C210C4807F038FEB3
:107700002B490A4807F030FE2A4B084819680A221C
:1077100007F084FE28490548BDE8384007F032BE2E
:1077200038BD00BFF4070020A7560100DC1600207A
:107730003008002050060020A40600202855010033
:10774000FE570100B056010020060020B756010088
:1077500028060020BE56010010060020C356010076
:1077600040060020C8560100D2560100DC56010038
:1077700008080020E756010020000020EE56010016
:1077800021000020F556010084000020FB56010076
:107790000806002004570100D00000200B5701000C
:1077A00028010020125701001C04002002000020C4
:1077B0001B570100980600202157010038B5354CB1
:1077C000354D3649204607F0CFFD95ED000B0121E0
:1077D000204607F0F1FE7C21204607F0C9FD0A2271
:1077E000297A204607F018FE7C21204607F0C0FDCC
:1077F0000A22697A204607F00FFE7C21204607F016
:10780000B7FD95ED040B0321204607F0D5FE7C2142
:10781000204607F0ADFD95ED060B0021204607F050
:10782000CBFE7C21204607F0A3FD95ED080B00213F
:10783000204607F0C1FE7C21204607F099FD95ED1A
:107840000A0B0021204607F0B7FE7C21204607F0F6
:107850008FFD95ED0C0B0021204607F0ADFE7C213D
:10786000204607F085FD95ED0E0B0021204607F020
:10787000A3FE7C21204607F07BFD002195ED100B37
:10788000204607F099FE20460549BDE8384007F03C
:1078900079BD00BFDC1600208005002023570100C1
:1078A0002C57010010B5184C1849204607F05CFD14
:1078B000174B042193ED000B204607F07DFE7C2141
:1078C000204607F055FD134B0A221978204607F091
:1078D000A3FD7C21204607F04BFD0F4B012193EDCA
:1078E000000B204607F068FE7C21204607F040FD93
:1078F0000A4B204619780A2207F08EFD20460849D7
:10790000BDE8104007F03EBDDC160020F75701002F
:1079100018000020A60600205008002002080020C1
:107920002C57010038B5414B1B78002B3CD0404A06
:107930001278002A38D13F4B3F49D3E90045D1E9BD
:10794000000122462B460BF013FB38B93B4B204677
:10795000D3E9002329460BF0EDFA10B3384B1B781E
:107960003BB907F051FF374B1860354B01221A70B5
:1079700038BD07F049FF334B1B68C01A324B1B68F8
:107980009842F5D3314B1B78002BF1D101210846E9
:10799000FEF728FE2D4B01221A70BDE83840FEF795
:1079A0009BBE274B0022E2E7294A1278012A03D81E
:1079B0001F4A127802B91BB1264A1278002A2CD02D
:1079C000254B1D49D3E90045D1E9000122462B464C
:1079D0000BF0CEFA40B9194B2046D3E900232946D3
:1079E0000BF0A8FA0028DCD0154B1B78002BB8D080
:1079F00007F00AFF134B1B68C01A134B1B68984211
:107A0000B6D3124B1A78002AB2D1124B197800293A
:107A1000BCD01A70FFF746FFB8E7002BA8D1044B83
:107A20001B78002BA4D10D4B86E700BFA6060020D3
:107A30006406002050080020D0000020280100200B
:107A4000A7060020AC060020D4040020A8060020D1
:107A50009900002002080020A800002080050020D6
:107A600008B5144B1B7823B307F0CEFE124B1B68EE
:107A7000C01A41F28833984203D8104B1B78032B6D
:107A800017D00F4B0F4910480B221A7007F07AFCE1
:107A900001210846FEF7A6FDBFF34F8F0B490C4BA3
:107AA000CA6802F4E0621343CB60BFF34F8F00BF9C
:107AB000FDE708BD350600203806002099000020AB
:107AC00070000020A9570100DC16002000ED00E046
:107AD0000400FA0510B5124C2278FAB107F094FEB2
:107AE000104B1B68C01A41F28833984203D80E4BE2
:107AF0001B78032B12D001210846FEF773FDFEF719
:107B000087FD0A4A0A490B480023137023700A4B69
:107B10000C22BDE810401A7007F034BC10BD00BF45
:107B20001608002018080020990000205C0500209D
:107B3000B6570100DC160020700000202DE9F04F40
:107B400085B00DF11008002348F8083D0F46914616
:107B50001446482601F0A8FB4246394601F037FC9E
:107B6000012821D1029DB54228BF354604EB050A04
:107B7000A7EB040B544504EB0B030DD014F8011BC9
:107B8000019103A80393FCF74BFC01998142F1D0CA
:107B900003A8FCF75EFCEDE7761B2F4401F084FBA5
:107BA00001F0DDFB002ED5D1484605B0BDE8F08FD1
:107BB00037B502AC002544F8045D2046FCF730FCE4
:107BC000AA280ED0094A0A480121FFF7B7FFAA21C7
:107BD00020460195FCF73DFC0648FCF72AFC03B063
:107BE00030BD0448FCF725FC0348F6E728000020D8
:107BF000D8040020800500205008002007B5094A5D
:107C000009480121FFF79AFF0848FCF712FC02A877
:107C1000002340F8043DAA21FCF71BFC03B05DF8EB
:107C200004FB00BF28000020D804002080050020AD
:107C300013B5144B144A154915480024009493EDCC
:107C4000002B144B93ED001B134B93ED000B134BC8
:107C500001F0EAF8124B009493ED002B114B124AFD
:107C60001249134893ED001B124B93ED000B124B7E
:107C700001F0DAF8114B124A1B680333136002B0AB
:107C800010BD00BF30040020980400202004002014
:107C9000C80600205004002070040020C00400200A
:107CA0004004002060040020A004002028040020DC
:107CB0004007002080040020C80400206801002044
:107CC000D404002010B502210C2007F0B3FC0221DF
:107CD000082007F0AFFC082006F0F9FC0222374923
:107CE000374C06F065FD0C2006F0F1FC0222354908
:107CF00006F05EFD0221084607F09CFC02210320ED
:107D000007F098FC022006F0E2FC02222E4906F061
:107D10004FFD032006F0DBFC02222C4906F048FD53
:107D200001210E2007F086FC0121112007F082FCC2
:107D30000121072007F07EFC0121092007F07AFCD1
:107D4000204600F001FD204600F0A6FD0121084676
:107D5000FEF748FC0221042007F06CFC02210520FC
:107D600007F068FC0221062007F064FC184C002193
:107D70000A2007F05FFC00210B2007F05BFCFFF7F7
:107D800017FFFCF789FB2046012100F0D6FF2046B3
:107D9000104C072100F03BFF2046012100F0CDFFF1
:107DA0000721204600F033FF042007F0B1F84FF41C
:107DB000E1310948BDE810400AF019B9014100005D
:107DC00040420F009941000031420000C5420000CE
:107DD000C806002040070020DC160020FFFFFFFF40
:107DE0002DE9F0412DED028B9F4882B00AF010F989
:107DF00058B19D480AF06EF940B23C289B4B09D11E
:107E000001221A709A4B00221A6002B0BDEC028B5C
:107E1000BDE8F0813E2840F0968300221A70944B12
:107E2000944E954D1B682968F25430460BF09CFC2B
:107E3000924C80B12278924B6AB3012291498A48D0
:107E40001A7007F091FA3146874807F08DFA8E498B
:107E5000854807F097FA296886480BF085FCE8B951
:107E600025789DB901232370854B7F480D221A7018
:107E7000864B196807F086FAFFF7A0FCFFF712FDA2
:107E8000834B4FF4FA701D7007F07AFC07F0BCFCCE
:107E9000804B1860B9E71A707F49D9E72378002B27
:107EA000B3D07E4973480BF05FFC58B97C4B1B780C
:107EB000113BDBB2082B05D840F2651222FA03F31E
:107EC000DB073AD477496B480BF04EFC002844D0CE
:107ED000754968480BF048FC00283ED07349654856
:107EE0000BF042FC002849D0714962480BF03CFC81
:107EF000002843D004226F495E480BF047FC00285D
:107F000077D06D495B480BF02FFC002840F09E8035
:107F10006A4B01221A706A4B1A7812B11870FFF777
:107F2000C1FC5B4B1B78002B00F08C8002B0BDECD9
:107F3000028BBDE8F041FEF7CFBB624B6249D3E94B
:107F40000023C1E900236149C1E9002302B0BDEC6F
:107F5000028BBDE8F041FCF7C3BE524945480BF027
:107F600003FC5B4B40B901221A7002B0BDEC028BDE
:107F7000BDE8F041FFF796BC0022F5E74B493D48CC
:107F80000BF0F2FB50B9464B1B780D2B00D02BB9F0
:107F9000504B1B7813B1504B1B780BBB44493548F1
:107FA0000BF0E2FB044600287FF42FAF444B1A7815
:107FB000002A3FF42AAF1870404B01251D70FFF7CF
:107FC00071FC29462846FEF70DFB444B1C70444BC0
:107FD0001C7002B0BDEC028BBDE8F041FEF718BB8F
:107FE000374B01221A70354A002313703D4A137033
:107FF000BBE73D480BF075FA354B1B7851EC100B85
:10800000002B3FF402AF0AF0F3FF08EE100A0AF06B
:10801000C7FC364BD3E9004522462B4606460F46A1
:108020000AF088FF50B9F2EE097AB4EEE78AF1EE71
:1080300010FAC7BF2E4D002434463D462D4BC3E9F0
:10804000004592E72C4B01221A70DEE62B490948C5
:108050000BF08AFB002853D102B0BDEC028BBDE8C7
:10806000F041FFF7ABBB00BFDC160020F904002095
:10807000FC040020D9040020900100205C050020B1
:10808000700000205B570100B35901008000002000
:108090001C080020D008002043570100945501001F
:1080A000A40600209B550100A8550100B65501000B
:1080B000C4550100D3550100D8550100A506002084
:1080C0000208002030080020500600203808002058
:1080D000A60600202000002021000020000800202B
:1080E00001080020A8060020DD040020A8000020D0
:1080F000000029405008002014080020DD55010030
:1081000099499A480BF030FB00283FF42EAF98496C
:1081100096480BF029FB10B9FFF770FD9CE7954BD3
:10812000924819680BF020FB78B9934B01221A7022
:1081300007F06AFB914B1860914B1B78032B3FF4BF
:1081400064AE904B01221A70F0E68F4B8748196895
:108150000BF00AFB30B98D4B01221A7007F054FB6B
:108160008B4BE8E78B4981480BF0FEFA10B98A4B3C
:108170001B78CBB189497D4803220BF007FB0146F0
:1081800000284FD00322864978480BF0FFFA0028D8
:108190005DD184480BF0A5F9834A82ED000B0121E3
:1081A0008248FFF7CBFC57E7814B8249D3E9004572
:1081B000D1E9000122462B460AF0DAFE40B97E4B97
:1081C0002046D3E9002329460AF0B4FE044658B1FC
:1081D0007A4B7B4902221A707A4802B0BDEC028BBE
:1081E000BDE8F04107F0CEB8774B784901221A700C
:1081F00000220023C1E900237549C1E90023754924
:10820000C1E90023744908707449C1E9002307F0EB
:10821000FBFA734B186007F0F7FA724B1860724B59
:108220001C60F2E55F480CF0D3F84DA3D3E90023BE
:1082300051EC100B8DED000B0AF086FE00283FF488
:1082400094AE9DED000B694B83ED000B8DE6032290
:10825000674946480BF09AFA40B952480BF044F986
:10826000514A003018BF0120107298E7032261497B
:108270003E480BF08BFA40B94A480BF035F94A4AB0
:10828000003018BF0120507289E703225A4937484D
:108290000BF07CFA30B943480BF023F9424A82EDE7
:1082A000040B7CE70322554930480BF06FFA90B974
:1082B0003C480BF016F93C4A82ED060B01213B4885
:1082C000FFF73CFCFFF77AFA02B0BDEC028BBDE889
:1082D000F041FCF7E1B80322494924480BF056FA73
:1082E00030B930480BF0FDF82F4A82ED080BE5E776
:1082F000032244491D480BF049FA30B929480BF0D4
:10830000F0F8294A82ED0A0BD8E703223E491748C4
:108310000BF03CFA30B923480BF0E3F8224A82ED27
:108320000C0BCBE70322394910480BF02FFA30B978
:108330001C480BF0D6F81C4A82ED0E0BBEE7032258
:1083400033490A480BF022FA002863D115480BF094
:10835000C8F8154A82ED100BB0E700BFAFF30080FC
:108360009A9999999999A9BFE0550100D9040020DB
:10837000E355010088000020350600203806002063
:1083800099000020A50600206C010020160800209E
:1083900018080020E655010002080020E9550100F8
:1083A000ED550100DC04002080050020D8040020E9
:1083B000A8000020D000002028010020700000202C
:1083C00093570100DC1600203D06002060050020C8
:1083D00068050020300800208001002038080020B7
:1083E000F8070020CC080020980800201800002082
:1083F000F1550100F5550100F9550100FD55010049
:108400000156010005560100095601000D560100F4
:1084100011560100584B1B78192B40F08F8057499B
:1084200057480BF0E9FF5549054600200BF0E4FFE3
:108430005249044600200BF0DFFF06460DB104B19F
:1084400020B9504B50490F221A70C5E6284600212A
:108450000BF0BEFF42A3D3E9002351EC100B0AF04E
:10846000F7FA41EC100B0AF0E3FF3DA3D3E9002338
:1084700051EC100B0AF016FC444DC5E90001002137
:1084800020460BF0A5FF424C304684ED000BFEF772
:10849000FFFFD5E900673F4B0022187039463E4B7D
:1084A00030460AF05BFDA046C0B12FA3D3E90023FC
:1084B000304639460AF048FD80B1D4E900672CA364
:1084C000D3E90023304639460AF048FD30B1002296
:1084D000324B304639460AF037FD88B9294B2A49D4
:1084E0002F480F221A7006F04DFF1FA3D3E9002377
:1084F000C5E900231EA3D3E90023C8E9002384E4CF
:10850000284A00231370284A1370284A00210020AB
:10851000C2E90001264AC2E90001264A1370264A30
:108520005375264A5375264BC3E9000107F06CF9D1
:10853000244B186007F068F9234BAAE4114B234938
:1085400010221A7048E61B78002B3FF45EAC204ADC
:1085500013681E2BDFBF0A49C8540133136054E46B
:1085600000000000006AF8409A9999999999A9BF6A
:108570009A9999999999B93FA40600201556010036
:10858000D9040020700000206E5701005006002022
:108590000808002099000020000010C000002E40B4
:1085A000DC160020980000203D060020B8060020C0
:1085B000C006002080010020B8000020100100202B
:1085C00040060020F8070020C8080020805701005E
:1085D000FC04002030B53A4C237889B01BB107F079
:1085E00019F9384B1860FFF7FBFB374B1B78002B52
:1085F00058D0FCF761F9FEF77FFFFEF777FA237892
:108600002BB9FEF727FBFEF73DFCFCF7EBF8FEF776
:10861000FFF92E4B07932E4B06932E4B05932E4BB3
:1086200004932E4B03932E4B02932E4B01932E4B10
:1086300000932E4A2E4B2F492F48304DFBF7E0FF79
:108640002F4B07932F4B06932F4B05932F4B0493E0
:108650002F4B03932F4B02932F4B01932F4B304AF9
:10866000304931480093314BFBF7CAFFFFF75AF905
:10867000FDF782FAFCF786F9FCF7F6F92878FDF7A2
:10868000FFFAFDF769F8FCF7F1FAFEF77FF8FEF75D
:10869000ADFBFDF7B9FA2870FEF766FCFFF71AFA92
:1086A000FFF7DEF9237843B107F0B4F8204B1860E8
:1086B000044B1B68C01A1F4B186009B030BD00BFC7
:1086C00002000020A00600205C050020D805002044
:1086D00030040020E805002050040020F8050020A8
:1086E00070040020C8060020B00800207405002097
:1086F000A8040020AC040020A9040020700500207C
:10870000E005002040040020F00500206004002067
:10871000000600208004002040070020B808002048
:1087200078050020B4040020B1040020B00400202B
:108730009C06002098060020014B1B68184700BFCC
:10874000EC080020FFFFFFFF2DE9F341204F3C78AC
:108750005CBB204B204D18600AF000F902460B4626
:1087600019A1D1E900010AF09DFA0AF041FCDFF8F5
:108770007C802C70C8F800002146284604F066FE74
:10878000164E0028307014DB2B7893B90021144862
:10879000009033782A780191DFED120A98ED000AF3
:1087A0001148012404F0F8FE3C70204602B0BDE8F8
:1087B000F0810121084804F049FE00283070E5DA14
:1087C000F3E700BFAFF300800000000080842E417B
:1087D000F808002034090020E8080020F0080020F4
:1087E0003987000000000000FC080020F408002089
:1087F000034B1B7813B1034804F051BF704700BF0F
:10880000F8080020FC08002008B5084B1B7863B16D
:1088100000220C21064805F013F8054804F018FF63
:108820000348BDE8084004F051BF08BDF808002027
:10883000FC080020034B1B781BB1034B1860FFF7AB
:10884000E3BF7047F8080020EC08002008B5064B8D
:108850001B7843B10AF082F8BDE8084041EC100BE8
:10886000024804F0C5BF08BDF8080020FC0800203D
:10887000014804F029BD00BFFC080020014804F0B5
:1088800077BF00BFFC080020014B1B68184700BFE2
:108890003C090020FFFFFFFF2DE9F341204F3C780A
:1088A0005CBB204B204D18600AF058F802460B467E
:1088B00019A1D1E900010AF0F5F90AF099FBDFF8F6
:1088C0007C802C70C8F800002146284604F0BEFDCC
:1088D000164E0028307014DB2B7893B90021144811
:1088E000009033782A780191DFED120A98ED000AA2
:1088F0001148012404F050FE3C70204602B0BDE84F
:10890000F0810121084804F0A1FD00283070E5DA6B
:10891000F3E700BFAFF300800000000080842E4129
:10892000480900208409002038090020400900205F
:1089300089880000000000004C0900204409002044
:10894000034B1B7813B1034804F0A9BE704700BF66
:10895000480900204C09002008B5084B1B7863B17A
:1089600000220C21064804F06BFF054804F070FE5D
:108970000348BDE8084004F0A9BE08BD480900202E
:108980004C090020034B1B781BB1034B1860FFF709
:10899000E3BF7047480900203C09002008B5064B9A
:1089A0001B7843B109F0DAFFBDE8084041EC100B39
:1089B000024804F01DBF08BD480900204C090020F2
:1089C000014804F081BC00BF4C090020014804F0BC
:1089D000CFBE00BF4C0900202DE9F04F90F8705039
:1089E00089B0044625B90025284609B0BDE8F08FB6
:1089F00006F00AFF636CA26DC31A9A428046F2D851
:108A0000A36B216C93ED007BD1E9000153EC172B94
:108A10008DED007B09F064FED4E91423CDE9040157
:108A2000DDE9000109F05CFED4E90823CDE9060187
:108A3000DDE904010AF00CF8D4E9122309F052FE32
:108A400094F8719006460F46C4E91267B9F1000F19
:108A50000DD1D4E90623DDE9060109F0F9FF02464C
:108A60000B463046394609F03BFEC4E9120194ED4D
:108A7000127BD4E91AAB51EC170B52465B468DEDD5
:108A8000027B0AF075FA00283AD0C4E912ABB9F1BA
:108A9000000F42D0D4E90623DDE9040109F0D8FF34
:108AA00006460F46D4E90A23DDE9060109F0D0FFA6
:108AB00002460B46D4E9120109F012FE32463B464B
:108AC00009F010FE06460F4602460B465046594630
:108AD0000AF030FA50B9D4E918AB32463B4650465A
:108AE00059460AF045FA08B9B246BB469DED007BEF
:108AF000E36BC3E900AB84ED147BC4F8448073E7F7
:108B0000D4E91867DDE9020132463B460AF012FA61
:108B10000028BCD0C4E91267B9E700260027C1E7E6
:108B20002DE9F74F55EC104B82468B46002200236F
:108B300010EE100A294659EC118B57EC126B0AF013
:108B4000F9F900285BD100220023404649460AF08B
:108B5000F1F9002853D100220023304639460AF0AB
:108B6000E9F900284BD10BF1FF33CAF834B0D3F147
:108B7000000B4BEB030BCAE90289CAE904678AF8C8
:108B800071B0CAE90045DAF8580009F0E7FE0022A2
:108B90001C4B0AF087F8CAE90645CDE900010246F8
:108BA0000B464046494609F053FF80468946DDE9B9
:108BB000002330463946CAE908890AF073F8DAF822
:108BC000303006460F46012BCAE90A6717D1224604
:108BD0002B460020002109F083FD4246CAE9060128
:108BE0004B460020002109F07BFD3246CAE908010E
:108BF0003B460020002109F073FDCAE90A0103B0D9
:108C0000BDE8F08F00408F40416BFFF789BFF8B59A
:108C10000D1E044620DD284609F0B0FE0646A06D74
:108C20000F4609F09BFE02460B46304639460AF0D5
:108C300039F802460B4606460F46D4E9080109F00A
:108C400007FF3246C4E908013B46D4E90A010AF0AD
:108C500029F8C4E90A01A565F8BD2DE9F84F55ECDE
:108C6000104B57EC116B824611EE102A3B4610EE6A
:108C7000100A29460AF072F9002837D19AF87030A4
:108C8000CAE91845CAE91A67002B2FD0DAF83CB0B8
:108C9000DBE90089304642464B4639460AF04AF93C
:108CA00078B1CBE90067DAE91267DAE91A453046AC
:108CB00022462B4639460AF05BF968B1CAE91245EB
:108CC00014E042464B46204629460AF051F9002856
:108CD000E9D0CBE90045E6E7DAE918453046224617
:108CE0002B4639460AF026F90028E7D1BDE8F88F6F
:108CF000C36B2DE9D043D3E90067C0E91267836BEA
:108D0000D0E91A89D3E900230446C0E9142339467F
:108D100042464B4630460AF02BF910B1C4E912899D
:108D200009E0D4E91889304642464B4639460AF0F4
:108D300001F90028F2D1BDE8D083012938B50446F5
:108D40000CBF0125002504D190F870300BB9FFF756
:108D5000CFFF84F8705038BD38B590F870300446B5
:108D60000D46D3B1036B8B4217D0D0E90623002107
:108D7000002009F0B5FCD4E90823C4E9060100206D
:108D8000002109F0ADFCD4E90A23C4E90801002060
:108D9000002109F0A5FCC4E90A01256338BDFFFFE5
:108DA00010B52DED068BB0EE408AF0EE608AB0EE85
:108DB000419AF0EE619A03640023C0E90E12B0EE0E
:108DC00042AAF0EE62AA80F8703000220023C0E9C7
:108DD000182313A3D3E90023C0E91A23642304460C
:108DE00083650999FFF7B8FFB0EE4A2AF0EE6A2AC8
:108DF000B0EE491AF0EE691A0899B0EE480AF0EEA2
:108E0000680A2046FFF78CFE06F0FEFCBDEC068BE0
:108E1000A36DC01A6064204610BD00BFAFF3008090
:108E20000000000000E06F4037B5069D0195012568
:108E300000950446FFF7B4FF204603B030BD012083
:108E400070472DE9D04F9B4603681B6B9246044642
:108E5000DDE90889984702460B46504659460AF014
:108E600067F9134302D00020BDE8D08F2368204665
:108E70001B6B984702460B46404649460AF058F994
:108E80001343F0D123681AEB08069B6C20464BEB8A
:108E900009079847B94208BFB0422CBF0120002003
:108EA000E2E701682DE9F041C96B14461D4606460C
:108EB000884702460B46204629460AF039F91343F3
:108EC00002D00020BDE8F081DDE90623A71845EBBC
:108ED0000308336817F1FF32D96B304648F1FF338E
:108EE000884702460B46384641460AF021F91343AB
:108EF000E7D1336830469B6C9847414508BFB8427C
:108F00002CBF01200020DDE72DE9D04F9B460368F0
:108F10005B6B92460446DDE90889984702460B469A
:108F2000504659460AF004F9134302D00020BDE828
:108F3000D08F236820465B6B984702460B4640461D
:108F400049460AF0F5F81343F0D123681AEB0806F6
:108F50009B6C20464BEB09079847B94208BFB042CB
:108F60002CBF01200020E2E700207047002070475E
:108F70004FF0FF30704703689B6B1847704770478E
:108F800003681B68184703685B68184710B40468D7
:108F9000A468A4465DF8044B604790F8803010B593
:108FA000044653B9036A43B100F16C013430984769
:108FB00010B9012384F8803010BD0620FCE790F83A
:108FC000803010B504463BB1036B2BB13430984769
:108FD000002384F8803010BD0620FCE7D0E90601AC
:108FE0007047D0E90401704700487047BA59010042
:108FF00010B58821044609F069FB204610BDFFFF2B
:109000001649016230B51649164C41621649174A95
:109010008162002516490260C0E9024500224FF432
:1090200000540025C162134980F88020C0E904453E
:1090300001634FF48064FF21002580F86C200267F3
:10904000C0E91D22DF22C0E9064580F87C1080F8C7
:109050007D2080F87E1080F87F2030BD81BD00002B
:109060007DC0000000001040E9BF0000CC590100A5
:1090700009BF000019BB000010B50A4C2378BFF3EC
:109080005B8FDB070CD4204609F007FB40B1064894
:10909000FFF7B6FF204609F00CFB044806F018FB6A
:1090A000014810BD88090020900900207D8F000034
:1090B00083689A1806D200690344934294BF002043
:1090C00001207047002070472DE9F84F16461F46D3
:1090D000DDE90A2312F1FF3243F1FF3392197B419C
:1090E00005468A46FFF7E4FF98B332463B462846DA
:1090F000FFF7DEFF834660B349B395F88020D5F8CB
:109100000880B2B92A68284612689047044651463A
:10911000A8EB0A00DDE90A890023A1EB0A024B450E
:1091200008BF424509D20B1833441B7801F8013BB4
:10913000F0E74FF0000B0224E9E7BBF1000F03D08A
:109140002B6828465B6898472046BDE8F88F0224C4
:10915000FAE71620F9E72DE9F84F16461F46DDE934
:109160000A2312F1FF3243F1FF3392197B41044687
:109170008B46FFF79DFF38B332463B462046FFF74C
:1091800097FF054600B394F88030CBB9236820469A
:109190001B6898478046D4F824A0BAF1000F07D086
:1091A000A2680A9B3244594604F13400D0478046F5
:1091B0001DB122682046526890474046BDE8F88FAE
:1091C00000254FF00208E6E71620F7E737B5856976
:1091D0008168C46A11446A42114054B10DF1070319
:1091E0002A463430A04728B99DF8073013B91846ED
:1091F00000E0062003B030BD8168836A11448269B3
:109200005242114013B101223430184706207047F2
:109210002DE9F84FDDE90A6716F1FF3A47F1FF3B08
:1092200090461AEB020299464BEB03030546FFF703
:109230003FFFB0B342464B462846FFF739FF80B3A5
:1092400095F880304BBB2B6828461B68984704462E
:10925000F0B9AC69EB6922464046494609F068FF1F
:10926000A4EB020A42464B462846FFF7C5FFB6EB81
:109270000A0642464B46284667F10007FFF7A6FF5D
:10928000D5F818A0044618B9012E77F10003E9DAE1
:109290002B6828465B68984700E006242046BDE816
:1092A000F88F1620FBE7FFFF10B5094C2378BFF3BA
:1092B0005B8FDB0709D4204609F0EFF928B120467F
:1092C00009F0F7F9034806F003FA034810BD00BFA0
:1092D000180A0020ED9200001C0A002010B5044678
:1092E000006808B109F0E8F9204610BD0148FFF711
:1092F000F5BF00BF1C0A0020F0B585B00D46FFF792
:10930000BBFE012600270368CDE900672A461C6AD8
:109310000DF10F010023A0479DF80F0005B0F0BD2F
:1093200070B504460D461646FFF7A6FE03685B6B54
:109330009847216891B1B6FBF0F300FB13626379A3
:1093400023B98B5CFF2B1CBF01236371237923B9E5
:109350008B5CAB421CBF012323718D5470BD03682D
:10936000F7B50446002B30D00379002B2BD0FFF744
:1093700083FE03685B6B9847637906460027ABB9A9
:10938000FFF77AFE0368A2682168CDE900675D6A8D
:109390000023A847B0FA80F56D09206808B109F0EC
:1093A0008BF900232360284603B0F0BDFFF764FE6D
:1093B0000368A268CDE90067996A002388470028FE
:1093C000DED00025E9E70125E7E70125EBE72DE9F8
:1093D000F3470D4604469046FFF74EFE03681B6BAD
:1093E000984743422B40451B1D44A360C8F80050DA
:1093F00025688146A5B909F06BF925712060657172
:10940000FFF73AFE4E4600270368A2682168CDE9BF
:1094100000671E6A2B46B047012002B0BDE8F08706
:109420000220FAE708B506F093F9002008BD1B20DA
:109430007047FFFF034AB2F8CC3043F08003A2F834
:10944000CC3070470000094037B501210D2006F0EF
:10945000F1F800210D2006F005F9684607220321E6
:1094600009F09AF8BDF800301C4CC3F384130125B1
:10947000684607220521E55409F08EF8BDF8003052
:10948000C3F38413684607220621E55409F084F8E3
:10949000BDF80030C3F38413684607220921E55460
:1094A00009F07AF8BDF80030C3F384136846072248
:1094B0000A21E55409F070F8BDF80030C3F38413B5
:1094C00007220B216846E55409F066F8BDF8003024
:1094D000C3F38413E55403B030BD00BF060B002076
:1094E0000B7930B4DB01114C114DDBB2A3714B7819
:1094F0008A781B01120302F44052DBB213430A784C
:109500008446A85CCA78120202F4407200F003009C
:109510001343034363804B79064ADB01DBB22372BA
:10952000002030BCCCF80020704700BF004204404F
:10953000A85B010054445700024B0020FF22187022
:109540001A7070470042044030B5836A85B0044603
:109550008C4601ADABB193E8070085E8070062686F
:10956000117883F804C0E26A9A6019601846626A4A
:109570009047A36A1BB195E8070083E8070005B090
:1095800030BD2B46EBE700BF10B4EFF30383103B75
:109590005BB22149214C03F1C00051F8202022F494
:1095A000803241F8202054F82330D3E906218A4242
:1095B0001CD018699C6840B393F820C0BCF10F0F11
:1095C0000AD9616840F82210D96901328A429A6149
:1095D0000CD05DF8044B7047BCF1070F17D8217908
:1095E0008154D96901328A429A61F2D15B680C498F
:1095F00093F903305DF8044B5809012203F01F036F
:1096000002FA03F341F8203070476068DDE7A48870
:1096100020F81240D9E700BF00600040740A002023
:1096200000E100E030B5EFF30383103B5BB203F1E0
:10963000C0002C492C4C51F8202022F4803241F8F3
:10964000202054F823305868026A82B392F801C08F
:10965000DC695A69BCF1010F16D0A2420BD0D3E9E4
:10966000020129B193F820400F2C05D951F822109E
:10967000416001325A6130BD072C95BF895C31F8D9
:10968000121001718180F4E704F1FF3E964511D07C
:1096900001690029E1D090F9031014484FEA511EE6
:1096A00001F01F010CFA01F140F82E10D5E75A69BC
:1096B000DC69D2E790F9034004F1C00E6009800034
:1096C00051F82E5000F1604000F5614004F01F0495
:1096D0000CFA04F425F4803541F82E50C0F880418E
:1096E0000460BCE700600040740A002000E100E074
:1096F000EFF30383103B5AB2324802F1C00C03F07F
:10970000FF0350F82C1021F4803140F82C102E4922
:1097100051F822008168C978890704D54168497ADF
:10972000012900D07047520910B40121274C203282
:1097300003F01F0301FA03F344F82230BFF34F8F05
:10974000BFF36F8F436893F90230002B2FDB5A0968
:10975000203203F01F0301FA03F344F82230BFF371
:109760004F8FBFF36F8FD0E90124237892F9022045
:1097700023F04003002A237014DB02F1C00C114CCB
:1097800053099B0002F01F02914003F1604354F81B
:109790002C2003F5614322F4803244F82C20C3F8D6
:1097A000801119605DF8044B0121FFF7CDBE82687E
:1097B0005DF8044B137823F0400313700121FFF789
:1097C000C3BE00BF00600040740A002000E100E05A
:1097D00070B5EFF30384103C314B64B253F824604E
:1097E000736893F90230002B41DB5A092D4920326E
:1097F000012003F01F0300FA03F341F82230BFF306
:109800004F8FBFF36F8FD6E9012392F902101A78B8
:10981000002922F040021A7014DB01F1C00C224D25
:109820004A09920001F01F01884002F1604255F898
:109830002C1002F5614221F4803145F82C10C2F859
:1098400080011060DA780021D5B21207D97021D4D6
:10985000EB0712D405F01405142D16D0124AC034AB
:1098600052F8243023F4803342F8243070BDB368BA
:109870001A7822F040021A70E4E70421304605F01D
:109880001405FFF761FE142DE8D108213046FFF7DB
:109890005BFEE3E705213046FFF756FED8E700BF41
:1098A000740A002000E100E000600040036A70B527
:1098B0000446987800F07B00987020780D4658BBDD
:1098C000E16994F802C00E690CF00301521A2944B0
:1098D000C4E903124EB37AB1A378306803F00303EE
:1098E000013B22FA03F3B268966800229BB2226120
:1098F000B04780B9236A20789A7842F080029A7043
:1099000040B994F802C00CF0030CBCF1020F15D062
:109910002A78DA70002070BDC4E90312E1690E698B
:1099200096B12946002AE7D0D6E79A780CF0030CC6
:1099300042F08002BCF1020F9A70E9D12A8842F409
:109940007E42DA810020E6E79A7842F080029A703F
:109950000020E0E7036A91F801C000B5024698785C
:1099600000F07B0E00F00B0098700020D0608A7829
:109970005A701A786CF301021A70CA789A7493F8C4
:1099800007C00A780CF0A30102F05C020A43DA7106
:1099900083F802E05DF804FB10B5D0E9072100234D
:1099A00043608B7092F905202F490446500901232A
:1099B000203002F01F0203FA02F241F82020BFF328
:1099C0004F8FBFF36F8FE26992F90B20500920305F
:1099D00002F01F0203FA02F241F82020BFF34F8F7A
:1099E000BFF36F8FE26992F907205009203002F02F
:1099F0001F0203FA02F241F82020BFF34F8FBFF39A
:109A00006F8FE26992F90920500902F01F0293401A
:109A100000F1200241F82230BFF34F8FBFF36F8F68
:109A2000E369DA6822B1936810681B6A9847E369B2
:109A30001B691BB19A681868136A9847EFF3108185
:109A4000012383F31088E369084A1C78D2F80001E7
:109A50004FF00043E3400343C2F80031D2F8003135
:109A600081F31088002010BD00E100E0006F044089
:109A7000F0B5846A85B005460F4694466E46B4B18B
:109A800094E80F0086E80F00EB691B7884F804C0A7
:109A90002360EB6A2046C4E902736B6A9847AC6A9C
:109AA0001CB196E80F0084E80F0005B0F0BD344605
:109AB000EAE700BF2DE9F0470B780322DA4002F015
:109AC00001020D461201027003F10073AA6949698F
:109AD000416203F5605300265B01C0E90753C0E90A
