:10400000007F0020E9CB000091CA0000E5CB000052
:10401000E5CB0000E5CB0000E5CB0000E5CB0000E0
:10402000000000000000000000000000E5CB0000E0
:10403000E5CB000000000000E5CB0000E5CB000070
:104040000000000000000000000000000000000070
:104050000000000000000000000000000000000060
:104060000000000000000000000000000000000050
:104070000000000000000000000000000000000040
:104080000000000000000000000000000000000030
:104090000000000000000000000000000000000020
:1040A0000000000000000000000000000000000010
:1040B0000000000000000000000000000000000000
:1040C00010B5054C237833B9044B13B10448AFF352
:1040D00000800123237010BDF003002000000000C9
:1040E000A45C010008B5034B1BB103490348AFF3BF
:1040F000008008BD00000000F4030020A45C010063
:1041000070B5204C0BF08AF91F4A23681268C31A55
:104110009342054631D31D4AB2F86010B2F84020F0
:104120000B1203F1007303F500535B01C9B2D3F81E
:104130000600131203F1007303F500535B01D2B2C2
:10414000D3F80660012303FA02F2324218BF1A467E
:1041500003FA01F308BF0022034214BF0123002326
:104160000B4E9A42D6E900014FF00002094B05D0F0
:104170000EF0BAF8C6E90001256070BD0EF0B6F881
:10418000F8E700BF64060020240000202857010043
:10419000500500200000F03F70B5204C0BF03EF9B8
:1041A0001F4A23681268C31A9342054631D31D4A39
:1041B000B2F86010B2F840200B1203F1007303F55F
:1041C00000535B01C9B2D3F80600131203F1007368
:1041D00003F500535B01D2B2D3F80660012303FA62
:1041E00002F2324218BF1A4603FA01F308BF002256
:1041F000034214BF012300230B4E9A42D6E900016B
:104200004FF00002094B05D10EF06EF8C6E900012F
:10421000256070BD0EF06AF8F8E700BF6406002064
:104220002400002028570100500500200000F03F26
:1042300070B51F4C0BF0F2F81E4A23681268C31ABF
:10424000934205462FD31C4A118A128B0B1203F19D
:10425000007303F500535B01C9B2D3F806001312D3
:1042600003F1007303F500535B01D2B2D3F806608B
:10427000012303FA02F2324218BF1A4603FA01F38D
:1042800008BF0022034214BF012300230B4E9A42B1
:10429000D6E900014FF00002094B05D00EF024F8DA
:1042A000C6E90001256070BD0EF020F8F8E700BFF8
:1042B000680600202400002028570100580500202F
:1042C0000000F03F70B51F4C0BF0A8F81E4A2368A1
:1042D0001268C31A934205462FD31C4A118A128BC7
:1042E0000B1203F1007303F500535B01C9B2D3F85D
:1042F0000600131203F1007303F500535B01D2B201
:10430000D3F80660012303FA02F2324218BF1A46BC
:1043100003FA01F308BF0022034214BF0123002364
:104320000B4E9A42D6E900014FF00002094B05D12D
:104330000DF0DAFFC6E90001256070BD0DF0D6FF73
:10434000F8E700BF6806002024000020285701007D
:10435000580500200000F03F10B5164C0022002345
:10436000D4E900010EF008FC60B1012111200AF02F
:104370007DFF114B1A7882F001021A7019780E2015
:104380000AF074FF00220023D4E900010EF0D6FBEE
:1043900070B1002111200AF069FF074B1A7882F0F2
:1043A00001021A7019780E20BDE810400AF05EBFB5
:1043B00010BD00BFA0060020F907002010B5164C64
:1043C00000220023D4E900010EF0D6FB60B10121E8
:1043D00009200AF04BFF114B1A7882F001021A7083
:1043E000197807200AF042FF00220023D4E90001D7
:1043F0000EF0A4FB70B1002109200AF037FF074B33
:104400001A7882F001021A7019780720BDE810406E
:104410000AF02CBF10BD00BFA8060020FA0700203C
:1044200010B5044604F044FD2168BDE8104004F0D6
:1044300067BD73B505460646012401A80194FFF740
:10444000EFFF0134492C06F8010BF6D1284602B0E3
:1044500070BD73B502AD002345F8043D04460E4619
:1044600004F026FD2A46216804F0B5FD01280CD190
:1044700004F01EFD2268314604F056FD04F018FDDC
:1044800004F071FD204602B070BD04F011FD2268F9
:10449000314604F049FDF5E72DE9F04F414B424A22
:1044A000424E434F93ED060B2DED048B93ED088B9D
:1044B00082ED000B3F4A93ED0A9BD3E91089D3E9C3
:1044C0000E4582ED008BD3E90C013B4A3B4B82ED5C
:1044D000009BC3E900893A4A3A4B82ED009BC3E94D
:1044E0000001394A394BC2E90001C3E90045384AA5
:1044F000384B83B086ED000BC2E90045C3E9008963
:1045000087ED008B53EC102B8DED000B0DF0ECFEC6
:104510000022314B0EF0CAF9304B82468B46C3E97C
:1045200000AB204653EC182B29460DF0DDFE00228F
:10453000294B0EF0BBF92A4B04460D46C3E9004552
:10454000404653EC192B49460DF0CEFE0022224B7B
:104550000EF0ACF9B0EE492AF0EE692AB0EE481A36
:10456000F0EE681A1F4BC3E900011F4BC3E900AB13
:104570001E4BC3E900451E4B9DED000BC3E9000136
:104580001C4804F045F90E4A1B4892ED002B97EDAC
:10459000001B96ED000B03B0BDEC048BBDE8F04FA3
:1045A00004F036B97005002060040020700400207B
:1045B0005004002040040020200400202804002093
:1045C00030040020780400206804002058040020F3
:1045D000480400203804002000804640E805002000
:1045E000D8050020C8050020F0050020E0050020C7
:1045F000D0050020B006002028070020FFFFFFFFA5
:104600002DE9F04F89B01D46149B0093159B019333
:10461000169B0293704BDDF864901B780493032B78
:104620000C4683469246DDE91216DDE9177830D153
:1046300000226A4BD9E900010EF00EF8D8E90023F8
:104640000DF054FE0022CDE90401644BD7E90001CE
:104650000EF002F8029BD3E900230DF047FECDE9EE
:10466000020101995D4BD1E9000100220DF0F4FF38
:10467000009BD3E900230DF039FE9DED042B9DED49
:10468000021B41EC100B304609B0BDE8F04F04F0BE
:10469000BFB84FA3D3E90023D1E900010EF06CFAB3
:1046A00000284AD04E4B1B78002B46D1049B002B90
:1046B00043D09BF8003043B90AF0AAFE01232060E2
:1046C0008BF8003009B0BDE8F08F0AF0A1FE236836
:1046D000C01A1328F6D90AF09BFE2368C31A2D20AE
:1046E00058434FF4FA7390FBF3F02D28A8BF2D2008
:1046F0000123CAF800002B700DF044FFD9E9002314
:1047000004460D460DF0A8FFD8E900230DF0EEFD9C
:10471000D7E90023CDE90401204629460DF09CFF8E
:10472000029BD3E900230DF0E1FD019BCDE90201DD
:10473000D3E900232046294698E72B78002B3DD06B
:10474000DAF800000028BDDD0138CAF800000DF0DD
:1047500019FFD9E90023CDE904010DF07DFFD8E967
:1047600000230DF0C3FDD7E90023CDE90601DDE903
:1047700004010DF071FF029BD3E900230DF0B6FD9B
:10478000019BCDE90201D3E90023DDE904010DF02D
:1047900063FF009BD3E900230DF0A8FD9DED062BE0
:1047A00041EC100B9DED021B304604F031F8DAF8B5
:1047B000003003B92B702B78002B83D100238BF8AA
:1047C00000300AF025FE20607CE700BFAFF30080D8
:1047D000FCA9F1D24D62503F990000200080464074
:1047E0002D060020FFFFFFFF38B5194C194DD4E905
:1047F0000001D5E900230EF097F968B9D4E9002348
:10480000C5E9002310A3D3E90023D4E900010DF08A
:1048100023FF114BC3E90001104C114DD4E90001F5
:10482000D5E900230EF080F968B9D4E90023C5E981
:10483000002305A3D3E90023D4E900010DF00CFF08
:10484000084BC3E9000138BD3AFCDA9F30CD293F5F
:1048500050050020180800201006002058050020F0
:10486000200800201806002038B50E4D0E4C2846B2
:10487000002104F066F82046002104F062F80B499C
:1048800000230022C1E9002309492846C1E9002389
:10489000012104F056F820460121BDE8384004F01B
:1048A00050B800BFB0060020280700208804002070
:1048B000900400202DE9F84304202E4F2E4E0AF0DC
:1048C000E1FC3A788242044602D00AF0A1FD306051
:1048D0000AF09EFD3368DFF8BC80284E251CA0EB53
:1048E000030018BF01250F2808D93378A34205D04B
:1048F00035701CB90AF08CFDC8F800000520204C6A
:104900003D700AF0BFFC23781E4F8342054602D05B
:104910000AF07EFD38600AF07BFD3B681A4F15F106
:104920000009A0EB030018BF4FF001090F2809D9B7
:10493000164B1A78AA4205D083F8009015B90AF0F0
:1049400067FD3860D8F800203B68317884F8009023
:104950009A422CBFD31A9B1A0D4A49B90B490978C0
:1049600031B9B3F5AF7F03D801231370BDE8F883E5
:104970000023FAE79A0000205806002020000020BB
:104980009B0000205C06002048050020210000203C
:10499000F1070020440500202DE9F8430620344F9C
:1049A000344C0AF06FFC3B788342804602D00AF018
:1049B0002FFD20600AF02CFD23682F4D2F4C18F19D
:1049C0000009A0EB030018BF4FF001090F2817D909
:1049D0002B4E3378434513D0236886F80090B8F106
:1049E000000F07D11BB90AF013FD264B186023688E
:1049F0000133236033781BB12368012B08BF2B7070
:104A0000236887F80090022B17D11D4B1E78BEB982
:104A10002B78ABB11B4F0AF0FBFC3B68C01A40F28D
:104A2000DB53984209D80AF0F3FC3B68C01A962879
:104A300081BF154B2E7001221A702368012B09DDEE
:104A40000F4B1B7833B1104A0023137023602B7077
:104A5000BDE8F8832B78002BFAD00AF0D9FC094B7B
:104A60001B68C01A40F2DC539842ECD8F0E700BF54
:104A70009C00002060060020AC070020A407002056
:104A800084000020A80700202406002008B5114B50
:104A9000114902221A70114B01221A60104B114A5F
:104AA0000020C3E90001104BD3E900010F4BC3E91B
:104AB0000001002313700E4A00200021C2E900010A
:104AC0000C4AC2E900010C4A13700AF0A1FC0B4B1E
:104AD000186008BD99000020000024405006002006
:104AE000E007002078010020180000204006002088
:104AF00030060020B8050020C00500209C080020DA
:104B000008B5194B1B78002B26D0184A00231370C8
:104B1000174AD2E90001174AC2E90001164A137088
:104B2000164A03211170164A16490020C2E90001F5
:104B30000BA1D1E90001144AC2E90001134A002087
:104B40000021C2E90001124AC2E90001114A1370B2
:104B50000AF05EFC104B186008BD00BFAFF3008088
:104B60009A9999999999A9BFF8070020780100208E
:104B7000080800201008002098000020990000205C
:104B8000E00700200000144040060020300600200E
:104B9000B8050020C00500209C080020134B1A789F
:104BA000134BD2B9134A1278BAB9134A1278A2B980
:104BB000124A12788AB9124A127872B9114A1278D6
:104BC0005AB9114A127842B9104A12782AB9104AD1
:104BD000127812B90F4A12782AB10F4A127812B11C
:104BE00001221A7070470022FBE700BF090600206F
:104BF0005406002098080020900600208D06002012
:104C00000C040020FB07002001080020A107002061
:104C1000A00700202F060020F00700201A4B0122D9
:104C2000D0B51A70194B1A4A00260027C3E900674D
:104C3000184B00241C70184BC3E90067174B136016
:104C4000174A1360FFF710FE164BC3E90067164BB7
:104C500006221A70154B1C60154BD3E90001154B49
:104C6000C3E90001144B1C70144B1C700AF0D0FBFC
:104C7000134B14491860144B14480522BDE8D0406A
:104C80001A700AF083B900BF980000203006002097
:104C900068010020C0050020B805002000E1F505EE
:104CA0006C010020E0070020990000205006002041
:104CB000400600204806002040050020380600205D
:104CC000040800207352010070000020B416002078
:104CD0002DE9F04FA64BDFF8E4B21E78A54DA64CA7
:104CE00085B09946A6B90AF093FB99F80030CBF845
:104CF000000083F0010389F80030A04B0020002160
:104D0000C3E900019E4B1E70D4E90023C5E90023CE
:104D1000D4E900679B4CDFF8B8A294ED007B3046E5
:104D200053EC172B39468DED007B0DF007FF002863
:104D300000F01382944B1B78002B40F00E8201236D
:104D4000CAF800300AF064FBDBF80030C01A04280F
:104D500040F2BE80D4E90023D5E900010DF0E4FE65
:104D6000002840F0B580894B1B7823B9864B1B780F
:104D7000002B00F0AD80864C2378BFF35B8FDB0700
:104D800015D420460DF08DFA88B10AF041FBDBF80E
:104D90000030C01A0DF0E6FB73A3D3E900230DF039
:104DA0005BFC7C4BC3E9000120460DF086FA7A4B90
:104DB000DFF8C8811B78023B012B94BF7749784903
:104DC000784B0020C3E90001DAF800000DF0DAFBAF
:104DD00095ED007B6F4BD3E9004553EC172B8DED20
:104DE000027BCDE900010DF037FC664B0646D3E9A6
:104DF00000230F46DDE900010DF02EFC6A4BD3E9DC
:104E000000230DF071FA02460B46304639460DF08C
:104E1000A9FED8E900AB4646002800F0AE815A4B07
:104E20001B78002B40F0A98100225D4B5F4F20468C
:104E300029460DF011FC02460B46504659460DF02E
:104E400053FA4F4B012200261A70C8E9000132467E
:104E50003B460DF07DFE08B1C8E90067544BDFF812
:104E60001C81D3E90067D8E9000132463B460DF0CA
:104E700083FE08B1C8E90067D8E9006722462B46DF
:104E8000304639460DF0E8FBDDE900230DF0E4FB88
:104E9000DDE902230DF02AFA364BC3E90001384B55
:104EA0001B788BB932463B46304639460DF0D4FB71
:104EB0000022404B0DF0FAFC3F4BD3E900230DF0EC
:104EC00015FA394BC3E900010AF0A2FA3B4B18600E
:104ED000284F2C4EDFF8F8A0D7E90045D6E900238B
:104EE000204629460DF020FEBB46002872D1274BF4
:104EF0001B78002B6ED1244B1A78002A6AD199F8BE
:104F0000003083F0010389F800301B4BC3E90045F2
:104F10001B4B1A70194BD3E90023104619460DF0AC
:104F20009BFB0022234B0DF0C1FC234BD3E9002354
:104F30000DF0DCF91C4BC3E90001174B1B78043B57
:104F4000012B47D81E4B1B78002B43D00123CAF8F6
:104F500000301C4B1C491D4803221A700AF016F839
:104F6000FFF794FD36E000BF12FE7F7B2278F13E12
:104F700078010020080800201008002030060020DA
:104F8000C00500204006002038050020380600201B
:104F9000C00400201805002099000020000069408E
:104FA00000407F4020050020B80500200000E03FC1
:104FB000E007002000408F4070010020C007002063
:104FC0004005002070000020D7530100B4160020D7
:104FD00050060020DAF800000DF0D4FADBE90023D7
:104FE000D6E90045804689460DF036FB2246064646
:104FF0000F462B46404649460DF02EFB02460B4617
:10500000304639460DF0AEFD002800F0C480634EF6
:10501000C6E90045624C2378012B01D1FFF7FEFD64
:105020002378042B01D1FFF7F9FD237813F0FD0F4E
:1050300001D1FFF7F3FD2378052B40F0AC80594BED
:1050400000931A78002A6AD0574DDFF894812B78A4
:105050001BB90AF0DDF9C8F80000544A5449137826
:105060004FF0010983EA09031370DBE90023C6E965
:105070000023504B85F80090D3E90067D1E9000187
:1050800032463B460DF064FDDFF848B120B19BF895
:1050900000300BB98BF80090474B3046D3E9002322
:1050A00039460DF05FFD454E18B133780BB9012339
:1050B0003370434F4349444804233B7009F066FF73
:1050C00000232B708BF8003033700123CAF80030B6
:1050D000FFF7DCFC0AF09CF9D8F80030C01A0DF09C
:1050E00041FA3A4BD3E900230DF046FDA0B19BF8FD
:1050F00000300BB133787BB900232B708BF8003074
:1051000033700123CAF8003031492F4806233B7021
:1051100009F03CFFFFF7BAFC2378052B3BD1009B3D
:105120001B78002B37D12B4B24491A780AB10A7807
:105130008ABB00221A701C480A700123CAF800308A
:105140001F4B02702449204803221A7009F01EFFE9
:1051500005B0BDE8F04FFFF799BC4FF0FF33CAF838
:1051600000303046DDE9002339460DF0DDFC002833
:105170003FF4E8ADFFF752FDE4E5184B2046D3E9D4
:10518000002329460DF068FA52465B460DF0AEF852
:10519000C6E9000162E605B0BDE8F08F1008002006
:1051A0009900002024060020380500207801002006
:1051B000100400200800002018040020A80400208B
:1051C00070000020E8530100B416002010000020F9
:1051D000F953010080040020D7530100200500206E
:1051E0003C050020FFFFFFFFB54B1B782DE9F7437F
:1051F000002B00F00B81B3499BA3D3E90023D1E935
:1052000000010DF029FA4FF06632AF4B0DF06EF849
:105210000022AE4B04460D460DF0AEFC08B9AB4D76
:105220000024AB4BAB4E1A78112AC6E9004537462D
:1052300048D1A94FD7E90089204642464B46294626
:105240000DF00AFA22462B46CDE90001404609F14D
:1052500000410DF001FA9DED001B41EC100B9F4841
:1052600003F0FFFAD7E90045D6E900672046324649
:105270003B4629460DF0F0F93246CDE900013B46A8
:10528000204605F100410DF0E7F99DED001B41ECD2
:10529000100BE2E09FED761B9FED770B8F4803F03C
:1052A000E0FA9FED731B9FED740BD6E09FED741B2E
:1052B0009FED750B894803F0D4FA9FED711B9FEDAC
:1052C000720BCAE0864B1B782BBB22462B4620462E
:1052D00029460DF00BF80022CDE900014FF04043C4
:1052E000204629460DF0B8F99DED001B41EC100B4E
:1052F0007A4803F0B6FAD6E9004522462B46204606
:1053000029460CF0F3FFCDE9000100224FF04043A5
:1053100020462946B7E7023B012B3AD871495CA3E6
:10532000D3E90023D1E900010DF026FC002840F06C
:1053300089806D4956A3D3E90023D1E900010DF01E
:105340001BFC00287ED152A3D3E900232046294626
:105350000DF082F950A3D3E90023CDE900012046E6
:1053600029460DF079F99DED001B41EC100B5B48CF
:1053700003F077FAD6E9004545A3D3E90023204698
:1053800029460DF069F944A3D3E90023CDE90001D2
:10539000BEE7132A56D1554B1B788BB15149544B5C
:1053A0000022D1E900010DF0E7FB00284AD14E4967
:1053B0004F4B0022D1E900010DF0DEFB002841D166
:1053C00037A3D3E90023204629460DF045F936A33B
:1053D000D3E90023CDE90001204629460DF03CF930
:1053E0009DED001B41EC100B3C4803F03AFAD7E965
:1053F00000452BA3D3E90023204629460DF02CF9C4
:1054000029A3D3E90023CDE9000181E73549384BD1
:105410000022D1E900010DF0AFFB48B93249344B0D
:105420000022D1E900010DF0A7FB00283FF43EAFB8
:105430002E4B1B78002B3FF42DAF254B1B781C2BDC
:105440003FF428AF9FED1A1B9FED1B0B234803F081
:1054500008FA9FED171B9FED180B264803B0BDE817
:10546000F04303F0FEB900BF0000000000C05C4044
:105470000000000000408F400000000000408FC08E
:10548000000000000000694000000000000069C04A
:105490009A9999999999C93F9A9999999999C9BF4E
:1054A000666666666666D63F666666666666D6BF8A
:1054B0000000000000A8A6400000000000A8A6C050
:1054C00038060020300600206666264000804040F6
:1054D0008C0600209806002090000020B0060020D6
:1054E00099000020C8000020200100208E06002026
:1054F0000000F03F28070020D0B5D0E90667044639
:1055000000220D4B304639460DF036FB48B10022E3
:105510000A4B304639460DF011FB10B1732323744A
:10552000D0BD0022044B304639460DF011FB08B1C6
:105530006E23F4E77023F2E7000024C0000024404B
:105540002DE9F347444D454F454C464EDFF824A125
:10555000D5E90223D5E900010CF0C6FE8946804654
:1055600009F056FF3B68C01A0CF0FCFF38A3D3E9E2
:1055700000230DF071F802460B46404649460DF0F7
:1055800095F9D5E90023C6E90001C5E90223D4E96C
:105590000001D4E902230CF0A7FE8946804609F0F9
:1055A00037FF3B68304FC01A0CF0DCFF28A3D3E96B
:1055B00000230DF051F802460B46404649460DF0D7
:1055C00075F9D4E90023CDE90001C4E90223DAE941
:1055D0000001D6E900230CF089FE244E804689465E
:1055E000D7E90023DDE90001CAE900890CF07EFE5D
:1055F00033680133022BCDE90001C7E900013360B4
:1056000020DD00221A4B404649460DF04FF900229A
:10561000C5E90601164BDDE900010DF047F900224E
:105620000023C4E90601CAE90023C7E9002328468C
:1056300000233360FFF760FF204602B0BDE8F0476B
:10564000FFF75ABF02B0BDE8F08700BFAFF300809C
:105650007A88ED07E879F13EC8000020C8070020ED
:105660002001002008050020000500201005002072
:1056700000000840F80400202DE9F04F2DED028BCA
:1056800085B009F0C5FEC04A03921368DFF844A351
:10569000DFF844B3C01ABD4B1B689842C0F0D480F9
:1056A000DAF800000CF06EFF06460F4602460B4685
:1056B000DBE900010DF0FAF8B54B0D46B54904469B
:1056C000C3E9004532463B46D1E900010DF0EEF852
:1056D000B14B80468946C3E900892046A0A3D3E99F
:1056E000002329460CF0B8FF0022AC4BAC4CAD4D6A
:1056F0000DF0DCF806460F46C4E9086798A3D3E925
:105700000023404649460CF0A7FF0022A34B0DF0B2
:10571000CDF880468946C5E90889D4E90A23304690
:1057200039460CF0E1FD06460F46D5E90A2340460E
:105730004946C4E900670CF0D7FD80468946C5E9B3
:10574000008900220023304639460DF015FA0295F3
:105750004FF00105002800F0F98083A3D3E900236E
:10576000304639460DF0F4F900B90546EDB29FED2B
:10577000808B0DB184ED008B00220023404649460A
:105780000DF0FAF94FF00105002800F0278176A30B
:10579000D3E90023404649460DF0DAF900B9054641
:1057A000EDB215B1029B83ED008B7F4B7F4E1B78D2
:1057B000052B07D0012B40F019817D4B1B78002B66
:1057C00000F047817B4B1B7A002B00F042817A4B23
:1057D000D3E900890022794BD4E900010DF066F885
:1057E00042464B460CF038FF0022002304460D468B
:1057F0000DF0C2F908B90024002502996F4B002270
:10580000C6E90045D1E900010DF050F842464B468B
:105810000CF022FF0022002304460D460DF0ACF9E7
:1058200008B900240025664BC3E900450023CAF8E7
:105830000030584B8BED008B83ED008BFFF780FE23
:1058400009F0E6FD039B18600F2009F047F90646B2
:10585000102009F043F941F294140023054640F268
:10586000FF3219460094304609F056FA0CF08AFED1
:105870000022544B0DF01AF8002340F2FF32064686
:105880000F4600941946284609F046FA0CF07AFEB5
:1058900000224C4B0DF00AF8002204460D464A4BFC
:1058A000304639460DF068F9002840F0D8800022D3
:1058B000464B304639460CF017FD0022444B0CF0A5
:1058C000CBFE2DA3D3E900230CF0C6FE002200235B
:1058D0000CF00CFD06460F4600223B4B20462946A5
:1058E0000DF04AF9002840F0BE800022374B2046D8
:1058F00029460CF0F9FC0022354B0CF0ADFE1EA33E
:10590000D3E900230CF0A8FE002200230CF0EEFCEB
:1059100004460D46DAF800300133CAF8003032464A
:105920003B46DBE900010CF0E1FCCBE90001194941
:1059300022462B460C46D1E900010CF0D7FCC4E905
:10594000000105B0BDEC028BBDE8F08F0CA3D3E9DC
:105950000023304639460DF005F905E7AFF3008026
:105960002A51CB8B0F96214052B81E85EB51B83F80
:1059700000000000000000007B14AE47E153AC4083
:1059800052B81E85EB51B8BFC80700206001002047
:1059900028050020800800203005002000409F409E
:1059A000C80000202001002099000020B00800203D
:1059B0008E06002070050020A00000200000294075
:1059C000B808002000408F40000012400000E03F77
:1059D0000000D03FEC070020780800202CA3D3E97A
:1059E0000023404649460DF0BDF8D7E6022B30D1E2
:1059F000234B1B7A6BB3234BD3E900890022224B44
:105A0000D4E900010CF052FF42464B460CF024FE54
:105A100017A3D3E900230CF067FC002200230446FF
:105A20000D460DF0A9F808B9002400250299164B7F
:105A3000C6E900450022D1E900010CF037FF4246DB
:105A40004B460CF009FE0AA3D3E900230CF04CFCF2
:105A5000E0E60E4B86ED008B83ED008BE6E606A7B5
:105A6000D7E9006738E704A5D5E9004552E700BF4C
:105A70007B14AE47E17A743F7B14AE47E153AC40F0
:105A800070050020A000002000002940B808002078
:105A900052B81E85EB51B8BF19491A4BD0B5002238
:105AA000D1E900010DF068F838B91749154B00220B
:105AB000D1E900010DF060F8E8B1144B1B78023B0E
:105AC000012B18D9124C134F002632463B46D4E91D
:105AD00000010DF051F868B1C4E900670E4C23785D
:105AE00043B90E4B0E490F4811221A7009F04EFAB5
:105AF00001232370D0BD084B00221A70FAE700BFC3
:105B0000C800002000002340200100209900002050
:105B1000E007002000001440F00400207000002086
:105B200083520100B4160020164B174A1B7813B994
:105B30001649097821B9117811B91549087800B3C7
:105B40001278DAB91249114A08781249127809789C
:105B500021B942B13BB938B9022070471AB113B923
:105B600010B90320704760B10B4B1B7843B90B4B46
:105B70001B78002B14BF00200420704701207047C1
:105B800000207047540600202D060020F807002052
:105B9000DA07002098000020900600208D060020E3
:105BA000042800F2BD80DFE810F005007B007E00D5
:105BB000B500B800604B1B7813B9604A137070478A
:105BC0005F4B1B78002B00F0B5805E4B1B7813B148
:105BD0005A4B01221A705C4B1B7813B1574B0222AF
:105BE0001A705A4B1B7863B1594B93F83020594BBC
:105BF00093F83010514B002940D0002A41D10322A4
:105C00001A70554B1B7863B1514B93F83120514BAF
:105C100093F83110494B002935D0002A36D106229D
:105C20001A704E4B1B784BB14D4A4E4B12781B7875
:105C3000002A2FD0414A5BB30B2313704A4B1B78C9
:105C400013B13E4B0C221A70484B1B7813B13B4BDF
:105C50000D221A70464B1B7813B1384B0E221A7066
:105C6000444B1B7813B1354B0F221A70424B1B78F3
:105C7000002B5FD0314B10221A7070470AB10422FA
:105C8000BEE70522BCE70AB10722C9E70822C7E739
:105C90000923D2E7002BD1D0284B0A221A70CDE776
:105CA000264B1122E8E7354B1B7813B9234B122200
:105CB000E2E7012B07D1324B1A78204B0AB11322AD
:105CC000DAE71422D8E7042B07D12E4B1A781B4BA6
:105CD0000AB11522D0E71622CEE7052B26D12A4B92
:105CE0001B785BB1294A2A4B12781B78DAB90BBBB7
:105CF000124B1722C0E7114B1822BDE70F4B192298
:105D0000BAE7244B1B78ABB90C4B1A22B4E70B4B08
:105D10001B22B1E7094B1C22AEE7084B1D22ABE763
:105D2000064B1E22A8E7002BE5D17047022BE8D0D6
:105D3000032BECD0704700BFF80700208C06002032
:105D4000540600200C04002009060020A1070020B2
:105D500020010020C8000020A00700202F060020FE
:105D60008C0000208D0000200108002098080020F1
:105D700090060020FB0700208D06002099000020DF
:105D8000F1070020380600202406002080040020AF
:105D9000A80400202D060020244B0021002010B56F
:105DA000C3E90001224B234CC3E90001224BC3E9A4
:105DB0000001224BC3E90001214BC3E90001214B43
:105DC000C3E90001204BC3E90001204BC3E90001F6
:105DD0001F4BC3E900011F4B01221A701E4A00230A
:105DE00013701E4A84F8313013701D4A13701D4A17
:105DF00013701D4A13701D4A13701D4A13701D4AFB
:105E000013701D4A13701D4A13701D4A13701D4AEA
:105E100013701D4A13701D4AC4E90A01C2E90A0140
:105E20001B4982F831300B7010BD00BF50050020B7
:105E300058050020C8000020100800200808002095
:105E40004006002030060020E0070020100400205B
:105E500018040020F80700200906002098080020F8
:105E6000900600208D060020FB070020010800207E
:105E7000A10700200C040020F00700202C060020C1
:105E80003805002080040020A80400202001002004
:105E9000A0070020FFFFFFFF2DE9F74F0191002829
:105EA0004ED05D4CD4E9008900220023404649468B
:105EB0000CF0D2FB0022002306460F460CF05CFEDD
:105EC000A34610B907F100431F46DFF868A1DAE9DD
:105ED000004542464B46204629460CF005FA002272
:105EE0000023804689460CF047FE10B909F10043B3
:105EF000994642464B46304639460CF033FE90B147
:105F000000220023204629460CF036FE00286BD0E4
:105F10003DA3D3E90023204629460CF02DFE10B105
:105F20003E4B1B7863B102F067FA3D4802F086FAF7
:105F30003C4B186802F08EFADAE90023CBE9002323
:105F4000019B002B4DD0384CD4E90089002200235E
:105F5000404649460CF080FB0022002306460F46CF
:105F60000CF00AFEA34610B907F100431F46DFF804
:105F7000C8A0DAE9004542464B46204629460CF0C7
:105F8000B3F900220023804689460CF0F5FD10B9D4
:105F900009F10043994642464B46304639460CF0DB
:105FA000E1FD88B100220023204629460CF0E4FDE3
:105FB00010B315A3D3E90023204629460CF0DCFDDD
:105FC00010B1164B1B7863B102F0BEFA174802F00D
:105FD000DDFA174B186802F0E5FADAE90023CBE99D
:105FE000002303B0BDE8F08F09A3D3E900232046C6
:105FF00029460CF0A3FD92E705A3D3E90023204630
:1060000029460CF09BFDDBE70000000000E0754036
:106010000000000000E075C0B0070020DA07002093
:106020005943000068010020B8070020BD4300006C
:106030006C010020A0060020A8060020F0B4049CFB
:10604000D0B11B4E1B4D95FBF4F5002DCCBF1A4D66
:106050001A4D95FBF4F53560194D00263AB9194FE4
:10606000C5E9006749B90120F0BCFFF715BF012A57
:106070000CBF154F0027F3E7C1B10E4A92FBF4F2B3
:10608000002ACCBF0C4A0D4A92FBF4F40F4A14606C
:106090000F4A00242BB90B4DC2E9004530B901214C
:1060A000E2E7012B0CBF084D0025F5E70121DAE7F7
:1060B00068010020C0270900E0930400206CFBFF6A
:1060C000A00600200000F03F0000F0BF6C0100209F
:1060D000A8060020FFFFFFFF2DE9F041A04F09F0C7
:1060E00097F93B68C01A082845D9FFF77DF89D4B02
:1060F0009D49DFF8CC82D3E90045D1E90001224671
:106100002B460CF0F1F80B4698490246D1E9000104
:106110000CF0ECF8964BC3E90001964922462B4659
:10612000D1E900010CF0E0F80B4693490246D1E9B1
:1061300000010CF0DBF8914BC3E90001904802F03C
:106140004FFA904802F04CFA8F4B5B7DABB18F4B0E
:10615000C8F800308E4BDFF86C825B7D002B00F0BE
:1061600081808A4BC8F8003001210846FFF794FE71
:1061700009F04EF93860BDE8F081864B864ED3E9D0
:106180000045864B1B78FBB9C6E90045844B1B785C
:10619000023B012BD6E9004503D9824B1B78112B1A
:1061A0004DD100220023204629460CF0C7FCD8B967
:1061B00065A3D3E90023204629460CF0DDFCA8B1F5
:1061C00061A5D5E9004511E0774B18680CF0DAF9C4
:1061D000764BD3E900230CF03FFA22462B460CF015
:1061E00085F8C6E90001D1E700240025C6E900458D
:1061F000D6E9004500220023204629460CF094FCF5
:106200000028A4D122462B4651A1D1E900010CF06F
:106210004DFB0022664B0CF049FB00220023044694
:106220000D460CF0A9FCB8B1624B0022204629466D
:106230000CF012FA0CF0C0FCC8F800008AE746A384
:10624000D3E90023204629460CF078FC0028AFD083
:1062500041A5D5E90045C9E7204605F100410022E6
:10626000544BE5E7544B554ED3E900454B4B1B7857
:10627000DBB9C6E900454A4B1B78023B012BD6E946
:1062800000454ED800220023204629460CF056FC3B
:10629000D8B92DA3D3E90023204629460CF06CFC85
:1062A000A8B129A5D5E9004511E03F4B18680CF0CD
:1062B00069F93E4BD3E900230CF0CEF922462B4678
:1062C0000CF014F8C6E90001D5E700240025C6E962
:1062D0000045D6E9004500220023204629460CF05F
:1062E00023FC00287FF43DAF22462B4618A1D1E9BC
:1062F00000010CF0DBFA00222D4B0CF0D7FA002243
:10630000002304460D460CF037FCB8B1294B00229F
:10631000204629460CF0A0F90CF04EFCC8F800000D
:1063200022E70DA3D3E90023204629460CF006FC02
:106330000028AED008A5D5E90045C8E7204605F1FC
:10634000004100221B4BE5E70000000000A8A6402A
:1063500000000000389C8C410000000000A8A6C08E
:10636000D00700200808002010060020B0080020F8
:106370001004002018060020B8080020180400208F
:10638000B006002028070020B000002000E1F5053D
:106390000801002088040020A00600203806002004
:1063A000990000208C06002050060020980600204E
:1063B000000059400000E03F90040020A8060020A3
:1063C000680100206C0100202DE9F8434C4C09F0D5
:1063D0001FF82368C01A082878D9FEF705FF494B33
:1063E00049494A4DD3E90067D1E9000132463B46AD
:1063F0000BF07AFF464BC3E90001464932463B4663
:10640000D1E900010BF070FF434BC3E900014348A1
:1064100002F0E6F8424802F0E3F8424BD3E9008983
:10642000414BC3E90089414BD3E90067404B00224F
:10643000C3E900674046002349460CF075FB00287D
:106440004CD142464B462CA1D1E900010CF02EFA6A
:106450000022384B0CF02AFA00220023804689469D
:106460000CF08AFBA0B3344B0022404649460CF0A6
:10647000F3F80CF0A1FB28600022002330463946D7
:106480000CF052FB2D4D90BB32463B461AA1D1E990
:1064900000010CF00BFA0022264B0CF007FA002248
:1064A000002306460F460CF067FBD0B1224B0022BA
:1064B000304639460CF0D0F80CF07EFB2860012104
:1064C0000846FFF7E9FC08F0A3FF2060BDE8F88369
:1064D000404609F100410022174BC8E7184B2B60DA
:1064E000CAE7304607F100410022134BE2E7144BA4
:1064F0002B60E4E7AFF3008000000000389C8C4183
:10650000D00700204006002010060020680100206F
:10651000100400201806002018040020B0060020F7
:106520002807002088040020A006002090040020F6
:10653000A8060020000059400000E03F6C01002048
:1065400000E1F50510B50C4620B101F055FF054BF3
:10655000054A1A6024B101F0F7FF044B024A1A60A1
:1065600010BD00BF6801002000E1F5056C010020AE
:10657000012110B50846FFF7E5FF1B490022002363
:10658000C1E900231949C1E900231949C1E90023E0
:106590001849C1E900231849C1E900231749C1E995
:1065A00000231749C1E900231649C1E90023164910
:1065B000C1E90023154B06221A70154B00241C70EC
:1065C000144B5C75144B5C75144B1C70144B1C7095
:1065D000144B1C70144B1C6008F01AFF134B18600E
:1065E000134B1C7010BD00BF500500205805002043
:1065F0001008002008080020400600203006002077
:10660000E00700201004002018040020990000205A
:106610002D060020B00000200801002038050020D1
:1066200080040020A804002070080020A00800209A
:106630002C060020FFFFFFFF274938B5D1E90001F4
:106640001DA3D3E900230CF083FA40B123491AA318
:10665000D3E90023D1E900010CF07AFAC8B9204946
:1066600017A3D3E90023D1E900010BF03FFE00227C
:10667000002304460D460CF07FFA88B112A3D3E93B
:106680000023204629460CF059FA10B9154B1B7807
:1066900073B1154B01221A70BDE83840FFF768BF8F
:1066A0000BA3D3E90023204629460CF065FAECE75A
:1066B000BDE83840FEF724BA9A9999999999C93F4B
:1066C0009A9999999999A93FFCA9F1D24D62503FA5
:1066D000FCA9F1D24D6250BFC8000020200100206B
:1066E00008080020DA070020F007002038B5104B1A
:1066F0005B7AE3B108F08CFE0E4B1B68C01A0E4BA0
:106700001B68984213D90D4D2A7882B90C4B01248D
:106710001C7008F07DFE0B4B18600B4B1B78032B95
:1067200003D00A4B1C70FFF787FF01232B7038BD85
:1067300070050020A408002080010020A808002087
:106740002506002028060020990000208D06002044
:1067500037B5154D154C2B789BB9012140F24A22D3
:10676000084600921A46FFF769FC01232B70104B74
:106770001049114807221A7008F008FC08F048FE7A
:10678000206008F045FE2368C01A42F21073984258
:1067900007D90A4B01221A7003B0BDE83040FFF759
:1067A000E7BE03B030BD00BF2C060020200600204D
:1067B0007000002042530100B4160020F0070020B2
:1067C0002DE97043D0E900893D4D044638A3D3E953
:1067D0000023404649462E680CF0CEF900283BD0F5
:1067E00035A3D3E90023404649460CF0A7F9002819
:1067F00032D0A36801330022B342A360C4E903226C
:1068000004DB73232375A368B34207DAE368B3425A
:1068100004DA2369B342BCBF6623237508F0F8FD90
:10682000284B1B68C01A41F288339842264B2ED958
:106830001A781C2A00D052BB244A12783ABB94F929
:106840001430702B28D10121214B08461970FFF715
:1068500079FEFFF7F1FE24E015A3D3E900234046BB
:1068600049460CF075F948B1E36801330022B342A0
:10687000E3602261A260C6DB6E23C3E72369A060E8
:106880000133B342C4E90303BDDB7023BAE71B78CD
:10689000112B0AD1142305E06E2B02D12B68052B96
:1068A000D1D10A232B60BDE870830523FAE700BF2E
:1068B0007B14AE47E17A84BF7B14AE47E17A843F14
:1068C00000000020040800208C0600205406002050
:1068D00001080020FFFFFFFF2DE9F0472E4C08F0D4
:1068E00097FD2368C01A13284DD92C4F2C4D2D4EDF
:1068F000DFF8BCA0D5E90023D7E900010BF0F4FCD8
:106900008946804608F084FD2368C01A0BF02AFEF1
:106910001FA3D3E900230BF09FFE02460B4640461F
:1069200049460BF0C3FFD7E900231F4FC5E90023F9
:10693000C6E90001D7E90023DAE900010BF0D4FC35
:106940008946804608F064FD2368184DC01A0BF094
:1069500009FE0FA3D3E900230BF07EFE02460B468F
:10696000404649460BF0A2FFDAE90023C5E90001E1
:106970003046C7E90023FFF723FF2846FFF720FF33
:1069800008F046FD2060BDE8F08700BFAFF300804F
:106990007A88ED07E879F13ED40700201006002040
:1069A00070060020B00000207806002008010020BA
:1069B000180600204C4B2DE9F74FDFF858B1DFF8EF
:1069C00058A1D3E90067DBE90001484B9AED007B51
:1069D000D3E9004532463B468DED007B0BF086FC4B
:1069E0002246804689462B46DDE900010BF07EFCFD
:1069F00002460B46404649460BF076FC0022002337
:106A00000CF0BAF8DBE90023DAE90089002838D075
:106A1000304639460BF06AFC424606460F464B4666
:106A2000204629460BF062FC02460B4630463946AA
:106A30000BF05AFC02460B462D492E4D2E4CC1E957
:106A400000232E49D1E900010CF078F8002844D049
:106A50002B4B1B78002B40D12A4B1B78002B3CD0B2
:106A6000294B1B78002B38D1284B1B78ABBB2B78DC
:106A7000EBB908F0CDFC012320602B7003B0BDE81A
:106A8000F08F304639460BF031FC424606460F4641
:106A90004B46204629460BF029FC02460B46304661
:106AA00039460BF021FC024601F10043C4E708F02F
:106AB000AFFC2368C01AB0F5FA7FDFD3144C2378FB
:106AC000002BDBD101210846FFF73CFD0123237099
:106AD00003B0BDE8F04FFFF7AFBD00232B7008F007
:106AE00097FC2060CAE700BFB0080020B80800206B
:106AF00000060020080600200C0600207800002078
:106B00002D06002099000020DA07002054060020FE
:106B10000906002010060020180600201D4B1B78D7
:106B200010B51D4C002B32D11C491D4B0022D1E960
:106B300000010CF021F838B91A49194B0022D1E9AB
:106B400000010CF019F810B3174B1B78FBB9237830
:106B50002BB908F05DFC154B1860012323702378D6
:106B6000BBB108F055FC114B1B68C01A47F23053FB
:106B700098420ED90E4C23785BB901210846FFF7E5
:106B8000E1FC01232370BDE81040FFF755BD002351
:106B9000237010BD3806002000080020C800002027
:106BA000000010402001002054060020FC070020B7
:106BB000FB070020FFFFFFFF0138F8B5032805D8C9
:106BC000DFE810F00A002201F301F7010121084675
:106BD000BDE8F840FFF7B6BC6D4C6E4E2368002B45
:106BE00040D16D4A6D490020C2E900016C4A6D49EF
:106BF0000020C2E900016C4A012515706B4A022190
:106C000011706B4A13706B4A13706B4A15706B4AA4
:106C100015706B4A1370FEF75BF8FFF75DFA08F02A
:106C2000F7FB684B1B68C01AB0F5C87F1AD36649DA
:106C300096F9143091F91420732B08BF7575732AD7
:106C400040F0938001224A756E2B0BD15F4B604957
:106C5000604801221A70604B08221A7008F096F9F9
:106C6000FFF7EAFC737D6BB1574B5B7D53B1236833
:106C700043B9FFF791F801210846FFF763FC236849
:106C8000013323602368554D012B05D108F0C0FB6B
:106C9000236828600133236008F0BAFB2B68C01A10
:106CA0000BF060FC34A3D3E900230BF05BFF90B141
:106CB0002368022B0FD14A4BD3E90001C3E90E012F
:106CC000484BD3E90001C3E90E0108F0A1FB23689A
:106CD00028600133236008F09BFB2B68C01A0BF07F
:106CE00041FC27A3D3E900230BF03CFF60B12368EC
:106CF000032B09D13C4900230022C1E900233B4971
:106D0000C1E90023042323602368042B04BF052367
:106D100023602368052B27D101210846FFF712FCC9
:106D2000224B00251D701E4B00204FF08041C3E90F
:106D3000000115A1D1E90001174BC3E900012C4B5B
:106D40001D7008F065FB2B4B757518602A4B25608C
:106D50001D702A4B1D702A4B00200021C3E9000141
:106D6000194B5D75274B1D70F8BD6E2B3FF46EAF50
:106D70006E2A6AE7AFF300800000000000709740C1
:106D80000000000000C062409A9999999999A9BFA2
:106D900070080020B00000204006002000001840CD
:106DA000E007002000001E40380600209900002067
:106DB0002F0600202E0600208C0000208D000020D1
:106DC000E8070020A0080020080100208D06002010
:106DD0002C520100B416002070000020C4070020CF
:106DE000C800002020010020500500205805002088
:106DF00098000020D007002078010020C005002066
:106E0000B80500202D0600208F4C89A3D3E900236C
:106E1000D4E900010BF0B0FE38B98C490022002300
:106E2000D1E900010BF094FE30B1894BD3E9002386
:106E3000C4E90023FDF7F2FE864D2B78012B07D124
:106E4000854B1A78854B1A70FDF742FFFFF744F91E
:106E50002B78043B012B29D8814B1A787F4B1A7071
:106E6000804B197811B90AB101221A707E4972A3B8
:106E7000D3E90023D1E900010BF038FA7B4BD3E9C9
:106E800000230BF05BFE68B1714BD3E90023C4E92A
:106E90000023FDF7C3FE764B7649774809221A7026
:106EA00008F074F8FDF714FFFFF716F92B78022BA2
:106EB00036D16E4BD4E90001D3E900230BF052FE2A
:106EC000002861D0654B01221A7008F0A1FA6B4BC3
:106ED0001B68C01A40F2ED2398421DD96849694BDE
:106EE0000022D1E900010BF047FEA8B1664B93F9EF
:106EF00014306E2B04D0654B93F914306E2B0BD1EC
:106F0000634B64495C4801221A70594B0A221A707B
:106F100008F03CF8FFF790FBFDF7DAFEFFF7DCF82E
:106F20002B78032B23D15C4945A3D3E90023D1E976
:106F300000010BF021FE40B9584941A3D3E90023D9
:106F4000D1E900010BF018FE48B3554B1B781BBB71
:106F5000464BD4E90001D3E900230BF003FED8B17E
:106F60003E4B01221A70FDF7B3FEFFF7B5F82B7800
:106F7000002B7FF4F9AE394B01221A70FDF7A8FE01
:106F8000BDE8F840FFF7A8B8314BD3E90023C4E9C6
:106F90000023FDF743FEBFE7FFF7DAFBE7E7414BCE
:106FA00001221A70FFF7E4FAE1E7BDE8F840FFF7C5
:106FB0000BBA3D4C227882B93C4D297869B93C4BDB
:106FC0003C4F40F6C4121A603B4B00260120C3E937
:106FD0000067FEF761FF01232B7023783BB101F0BE
:106FE0000BFA334B354A1A60304B00221A70344C7E
:106FF000227882B9334D287868B9334B2D4F40F64B
:10700000C4121A60314B00260121C3E90067FEF764
:1070100043FF01232B702378002B3FF4A5AE01F032
:1070200093FA294B254A1A60264B00221A709BE6D8
:107030009A9999999999A9BF2D431CEBE2361A3F69
:107040009A9999999999C93F40060020E007002034
:107050004806002099000020F10700203806002093
:107060002406002040050020180000200808002009
:107070007000002044520100B41600209C0800203B
:10708000300600200000F83FB0000020080100207A
:107090008D0600205A520100C80000202001002067
:1070A0000C040020F007002020000020D80700205A
:1070B000680100200000F0BFA006002000E1F505F7
:1070C00021000020D90700206C010020A806002024
:1070D00010B5124904460CF04BF9B8B110492046DE
:1070E0000CF046F9A0B10F4920460CF041F988B1E7
:1070F0000D4920460CF03CF970B10C4B0C490D4881
:107100000E221A7007F042FF062010BD0120FCE796
:107110000420FAE70520F8E70220F6E78F52010085
:10712000965201009C520100A15201007000002003
:10713000A9520100B416002038B5884C08F068F94F
:107140002368C01AC72840F2088108F061F9844911
:1071500020608448844C854D07F00AFF844B8148A9
:107160001B781D2B96BF834A834952F8231007F0E2
:10717000FFFE7C217B4807F0FFFE8049794807F03D
:10718000F7FE7F4B774893ED000B042108F018F8C9
:107190007C21744807F0F0FE7A49724807F0E8FE57
:1071A000794B704893ED000B042108F009F87C211D
:1071B0006C4807F0E1FE75496A4807F0D9FE744B48
:1071C000684893ED000B042107F0FAFF7C21654825
:1071D00007F0D2FE6F49634807F0CAFE6E4B614864
:1071E00093ED000B012107F0EBFF7C215D4807F0D8
:1071F000C3FE6A495B4807F0BBFE94ED000B042117
:10720000584807F0DDFF7C21564807F0B5FE644979
:10721000544807F0ADFE95ED000B0421514807F0EE
:10722000CFFF7C214F4807F0A7FE5E494D4807F08D
:107230009FFE5D4B4B4893ED000B012107F0C0FF13
:107240007C21484807F098FE5849464807F090FED0
:10725000574B444819780A2207F0E2FE7C21414846
:1072600007F08AFE53493F4807F082FE524B3D48E3
:1072700019780A2207F0D4FE7C213A4807F07CFEF8
:107280004E49384807F074FE4D4B364819780A22AB
:1072900081F0010107F0C4FE7C21324807F06CFE4A
:1072A0004849304807F064FED5E90023D4E90001DD
:1072B0000BF01AF80022002304460D460BF05CFC8C
:1072C00010B905F100431D463F4B264845EC104BD5
:1072D0000321C3E9004507F073FF7C21214807F033
:1072E0004BFE3A491F4807F043FE394B1D4893EDCA
:1072F000000B012107F064FF7C211A4807F03CFED7
:107300003449184807F034FE334B164893ED000B10
:10731000012107F055FF7C21124807F02DFE2F496F
:10732000104807F025FE2E4B0E4819780A2207F068
:1073300077FE7C210B4807F01FFE2A49094807F019
:1073400017FE294B074819680A2207F06BFE2749E8
:107350000448BDE8384007F019BE38BDCC0700200E
:10736000BB520100B416002008080020400600208F
:107370008C0600203051010012540100C45201005B
:1073800010060020CB52010018060020D252010046
:1073900000060020D752010030060020DC52010018
:1073A000E6520100F0520100E0070020FB5201000C
:1073B0002000002002530100210000200953010099
:1073C000840000200F530100F8050020185301002D
:1073D000C80000201F530100200100202653010097
:1073E0000C0400202F5301008006002035530100BB
:1073F00038B5354C354D3649204607F0B9FD95ED89
:10740000000B0121204607F0DBFE7C21204607F01F
:10741000B3FD0A22297A204607F002FE7C2120468D
:1074200007F0AAFD0A22697A204607F0F9FD7C21BF
:10743000204607F0A1FD95ED040B0321204607F03F
:10744000BFFE7C21204607F097FD95ED060B00213D
:10745000204607F0B5FE7C21204607F08DFD95ED16
:10746000080B0021204607F0ABFE7C21204607F0E8
:1074700083FD95ED0A0B0021204607F0A1FE7C213B
:10748000204607F079FD95ED0C0B0021204607F012
:1074900097FE7C21204607F06FFD95ED0E0B002135
:1074A000204607F08DFE7C21204607F065FD002177
:1074B00095ED100B204607F083FE20460549BDE8F8
:1074C000384007F063BD00BFB416002070050020EF
:1074D000375301004053010010B5184C184920469D
:1074E00007F046FD174B042193ED000B204607F0F3
:1074F00067FE7C21204607F03FFD134B0A221978D6
:10750000204607F08DFD7C21204607F035FD0F4B0E
:10751000012193ED000B204607F052FE7C2120460E
:1075200007F02AFD0A4B204619780A2207F078FD59
:1075300020460849BDE8104007F028BDB4160020D9
:107540000B540100180000208E060020280800209F
:10755000DA0700204053010038B5414B1B78002B5F
:107560003CD0404A1278002A38D13F4B3F49D3E9FA
:107570000045D1E9000122462B460BF0FDFA38B94F
:107580003B4B2046D3E9002329460BF0D7FA10B332
:10759000384B1B783BB907F03BFF374B1860354B36
:1075A00001221A7038BD07F033FF334B1B68C01A35
:1075B000324B1B689842F5D3314B1B78002BF1D12D
:1075C00001210846FEF7BEFF2D4B01221A70BDE8CF
:1075D0003840FFF731B8274B0022E2E7294A1278FA
:1075E000012A03D81F4A127802B91BB1264A127821
:1075F000002A2CD0254B1D49D3E90045D1E90001D3
:1076000022462B460BF0B8FA40B9194B2046D3E975
:10761000002329460BF092FA0028DCD0154B1B788A
:10762000002BB8D007F0F4FE134B1B68C01A134BA5
:107630001B689842B6D3124B1A78002AB2D1124B6B
:1076400019780029BCD01A70FFF746FFB8E7002B65
:10765000A8D1044B1B78002BA4D10D4B86E700BFAB
:107660008E0600205406002028080020C8000020B4
:10767000200100208F06002094060020C404002072
:107680009006002099000020DA070020A8000020C2
:107690007005002008B5144B1B7823B307F0B8FE23
:1076A000124B1B68C01A41F28833984203D8104B22
:1076B0001B78032B17D00F4B0F4910480B221A7061
:1076C00007F064FC01210846FEF73CFFBFF34F8F33
:1076D0000B490C4BCA6802F4E0621343CB60BFF362
:1076E0004F8F00BFFDE708BD2506002028060020BB
:1076F0009900002070000020BD530100B416002046
:1077000000ED00E00400FA0510B5124C2278FAB141
:1077100007F07EFE104B1B68C01A41F28833984276
:1077200003D80E4B1B78032B12D001210846FEF71D
:1077300009FFFEF71DFF0A4A0A490B480023137090
:1077400023700A4B0C22BDE810401A7007F01EBCD3
:1077500010BD00BFF2070020F407002099000020B0
:107760004C050020CA530100B41600207000002010
:107770002DE9F04F85B00DF11008002348F8083DC1
:107780000F4691461446482601F092FB4246394680
:1077900001F021FC012821D1029DB54228BF3546C8
:1077A00004EB050AA7EB040B544504EB0B030DD0C7
:1077B00014F8011B019103A80393FCF731FE019912
:1077C0008142F1D003A8FCF744FEEDE7761B2F447D
:1077D00001F06EFB01F0C7FB002ED5D1484605B085
:1077E000BDE8F08F37B502AC002544F8045D2046B3
:1077F000FCF716FEAA280ED0094A0A480121FFF715
:10780000B7FFAA2120460195FCF723FE0648FCF7A6
:1078100010FE03B030BD0448FCF70BFE0348F6E74A
:1078200028000020C804002070050020280800203F
:1078300007B5094A09480121FFF79AFF0848FCF7F4
:10784000F8FD02A8002340F8043DAA21FCF701FE40
:1078500003B05DF804FB00BF28000020C80400202E
:107860007005002013B5144B144A1549154800241F
:10787000009493ED002B144B93ED001B134B93EDF1
:10788000000B134B01F0D4F8124B009493ED002B36
:10789000114B124A1249134893ED001B124B93ED02
:1078A000000B124B01F0C4F8114B124A1B68033352
:1078B000136002B010BD00BF200400208804002027
:1078C00010040020B00600204004002060040020C6
:1078D000B004002030040020500400209004002058
:1078E000180400202807002070040020B80400209D
:1078F00060010020C404002010B502210C2007F014
:107900009DFC0221082007F099FC082006F0E3FC0A
:1079100002223749374C06F04FFD0C2006F0DBFC05
:107920000222354906F048FD0221084607F086FC90
:107930000221032007F082FC022006F0CCFC022288
:107940002E4906F039FD032006F0C5FC02222C4921
:1079500006F032FD01210E2007F070FC01211120FC
:1079600007F06CFC0121072007F068FC01210920C9
:1079700007F064FC204600F0EBFC204600F090FD90
:1079800001210846FEF7DEFD0221042007F056FC27
:107990000221052007F052FC0221062007F04EFCD0
:1079A000184C00210A2007F049FC00210B2007F0A9
:1079B00045FCFFF717FFFCF76FFD2046012100F0A3
:1079C000C0FF2046104C072100F025FF2046012172
:1079D00000F0B7FF0721204600F01DFF042007F04C
:1079E0009BF84FF4E1310948BDE810400AF003B9B3
:1079F0000141000040420F00994100003142000067
:107A0000C5420000B006002028070020B416002060
:107A10002DE9F0412DED028B9E4882B00AF0FCF872
:107A200058B19C480AF05AF940B23C289A4B09D107
:107A300001221A70994B00221A6002B0BDEC028B31
:107A4000BDE8F0813E2840F0928300221A70934BEB
:107A5000934E944D1B682968F25430460BF088FC15
:107A6000914C80B12278914B6AB3012290498948A8
:107A70001A7007F07DFA3146864807F079FA8D4989
:107A8000844807F083FA296885480BF071FCE8B94F
:107A900025789DB901232370844B7E480D221A70EE
:107AA000854B196807F072FAFFF7A2FCFFF714FD87
:107AB000824B4FF4FA701D7007F066FC07F0A8FCCB
:107AC0007F4B1860B9E71A707E49D9E72378002BFD
:107AD000B3D07D4972480BF04BFC58B97B4B1B78F7
:107AE000143BDBB2082B05D840F2651222FA03F3EF
:107AF000DB073AD476496A480BF03AFC002844D0B8
:107B0000744967480BF034FC00283ED07249644841
:107B10000BF02EFC002849D0704961480BF028FC7E
:107B2000002843D004226E495D480BF033FC002846
:107B300076D06C495A480BF01BFC002840F09D8021
:107B4000694B01221A70694B1A7812B11870FFF74D
:107B5000C3FC5A4B1B78002B00F08B8002B0BDECAD
:107B6000028BBDE8F041FEF767BD614B6149D3E987
:107B70000023C1E900236049C1E9002302B0BDEC44
:107B8000028BBDE8F041FDF749B8514944480BF07C
:107B9000EFFB5A4B40B901221A7002B0BDEC028BC8
:107BA000BDE8F041FFF798BC0022F5E74A493C48A0
:107BB0000BF0DEFB50B9454B1B7813F0EF0305D1FA
:107BC0004F4A127812B14F4A12780ABB43493448DF
:107BD0000BF0CEFB044600287FF42FAF434B1A78FE
:107BE000002A3FF42AAF18703F4B01251D70FFF7A4
:107BF00073FC29462846FEF7A5FC434B1C70434BFB
:107C00001C7002B0BDEC028BBDE8F041FEF7B0BCC9
:107C1000364A01211170344A13703D4A1370BCE793
:107C20003C480BF062FA354B1B7851EC100B002BE3
:107C30003FF403AF0AF0E0FF08EE100A0AF0B4FCCC
:107C4000354BD3E9004522462B4606460F460AF03F
:107C500075FF50B9F2EE097AB4EEE78AF1EE10FA48
:107C6000C7BF2E4D002434463D462D4BC3E9004589
:107C700093E72C4B01221A70DFE62B4908480BF0E2
:107C800077FB002852D102B0BDEC028BBDE8F04179
:107C9000FFF7AEBBB4160020E9040020EC0400207E
:107CA000C90400207C0100204C0500207000002049
:107CB0006F5301000856010080000020F8070020E3
:107CC000A408002057530100A85101008C06002091
:107CD000AF510100BC510100CA510100D85101004F
:107CE000E7510100EC5101008D060020DA07002069
:107CF0000808002040060020100800208E06002002
:107D00002000002021000020D8070020D9070020F3
:107D100090060020CD040020A8000020000029408B
:107D200028080020F0070020F151010098499948E7
:107D30000BF01EFB00283FF430AF974995480BF03D
:107D400017FB10B9FFF774FD9DE7944B9148196834
:107D50000BF00EFB78B9924B01221A7007F058FB1A
:107D6000904B1860904B1B78032B3FF466AE8F4B03
:107D700001221A70F2E68E4B864819680BF0F8FA69
:107D800030B98C4B01221A7007F042FB8A4BE8E7AE
:107D90008A4980480BF0ECFA10B9894B1B78CBB1BB
:107DA00088497C4803220BF0F5FA014600284FD0A1
:107DB0000322854977480BF0EDFA00285DD183480E
:107DC0000BF093F9824A82ED000B01218148FFF705
:107DD000CFFC58E7804B8149D3E90045D1E9000148
:107DE00022462B460AF0C8FE40B97D4B2046D3E917
:107DF000002329460AF0A2FE044658B1794B7A497D
:107E000002221A70794802B0BDEC028BBDE8F04145
:107E100007F0BCB8764B774901221A700022002384
:107E2000C1E900237449C1E900237449C1E9002371
:107E3000734908707349C1E9002307F0E9FA724BEE
:107E4000186007F0E5FA714B1860714B1C60F4E59F
:107E50005E480CF0C1F84CA3D3E9002351EC100BA1
:107E60008DED000B0AF074FE00283FF496AE9DEDF8
:107E7000000B684B83ED000B8FE6032266494548F3
:107E80000BF088FA40B951480BF032F9504A0030F3
:107E900018BF0120107298E7032260493D480BF09B
:107EA00079FA40B949480BF023F9494A003018BF24
:107EB0000120507289E70322594936480BF06AFACB
:107EC00030B942480BF011F9414A82ED040B7CE7CE
:107ED000032254492F480BF05DFA90B93B480BF050
:107EE00004F93B4A82ED060B01213A48FFF740FCBA
:107EF000FFF77EFA02B0BDEC028BBDE8F041FCF763
:107F0000CBBA0322484923480BF044FA30B92F4832
:107F10000BF0EBF82E4A82ED080BE5E7032243490C
:107F20001C480BF037FA30B928480BF0DEF8284A25
:107F300082ED0A0BD8E703223D4916480BF02AFAD6
:107F400030B922480BF0D1F8214A82ED0C0BCBE777
:107F5000032238490F480BF01DFA30B91B480BF0CB
:107F6000C4F81B4A82ED0E0BBEE7032232490948D2
:107F70000BF010FA002861D114480BF0B6F8144A3F
:107F800082ED100BB0E700BF9A9999999999A9BF12
:107F9000F4510100C9040020F751010088000020BD
:107FA0002506002028060020990000208D060020CC
:107FB00064010020F2070020F4070020FA510100BC
:107FC000DA070020FD51010001520100CC0400201D
:107FD00070050020C8040020A8000020C800002070
:107FE0002001002070000020A7530100B4160020DB
:107FF0002D0600205005002058050020080800200C
:108000007801002010080020D0070020A0080020E0
:1080100070080020180000200552010009520100DC
:108020000D520100115201001552010019520100B8
:108030001D5201002152010025520100584B1B78AE
:108040001C2B40F08F80574957480BF0D9FF5549FA
:10805000054600200BF0D4FF5249044600200BF0E7
:10806000CFFF06460DB104B120B9504B50490F2245
:108070001A70C7E6284600210BF0AEFF42A3D3E9F1
:10808000002351EC100B0AF0E7FA41EC100B0AF058
:10809000D3FF3DA3D3E9002351EC100B0AF006FCFB
:1080A000444DC5E90001002120460BF095FF424CEC
:1080B000304684ED000BFFF70BF8D5E900673F4B26
:1080C0000022187039463E4B30460AF04BFDA04660
:1080D000C0B12FA3D3E90023304639460AF038FD5A
:1080E00080B1D4E900672CA3D3E900233046394698
:1080F0000AF038FD30B10022324B304639460AF0E2
:1081000027FD88B9294B2A492F480F221A7006F0FB
:108110003DFF1FA3D3E90023C5E900231EA3D3E934
:108120000023C8E9002388E4284A00231370284A62
:108130001370284A00210020C2E90001264AC2E942
:108140000001264A1370264A5375264A5375264B5A
:10815000C3E9000107F05CF9244B186007F058F9F7
:10816000234BAEE4114B234910221A704AE61B78C8
:10817000002B3FF462AC204A13681E2BDFBF0A4974
:10818000C8540133136058E400000000006AF8404E
:108190009A9999999999A9BF9A9999999999B93F51
:1081A0008C06002029520100C90400207000002024
:1081B0008253010040060020E007002099000020C3
:1081C000000010C000002E40B416002098000020CF
:1081D0002D060020A0060020A8060020780100201F
:1081E000B00000200801002030060020D007002049
:1081F0009C08002094530100EC04002030B589B0A5
:1082000007F00CF9314D2860FFF702FC304B1B786A
:10821000002B50D0FCF7E8FAFEF78EFFFEF7CAFB02
:10822000FEF75AFB2B4B07932B4B06932B4B0593D7
:108230002B4B04932B4B03932B4B02932B4B019310
:108240002B4B00932B4A2C4B2C492D482D4CFCF7E3
:10825000D7F92D4B07932D4B06932D4B05932D4BA3
:1082600004932D4B03932D4B02932D4B01932D4BD8
:108270002D4A2E492E4800932E4BFCF7C1F9FFF7EB
:108280006BF9FDF709FCFCF715FBFCF785FB207883
:10829000FDF786FCFDF7F0F9FCF780FCFEF726FA07
:1082A000FEF73CFCFDF740FC2070FEF785FCFFF775
:1082B0002BFAFFF7EFF907F0B1F81F4B18602B68A6
:1082C000C01A1E4B186009B030BD00BF88060020E0
:1082D0004C050020C805002020040020D8050020FF
:1082E00040040020E805002060040020B0060020C3
:1082F0008808002064050020980400209C040020C9
:108300009904002060050020D005002030040020E2
:10831000E005002050040020F0050020700400203B
:10832000280700209008002068050020A4040020F1
:10833000A1040020A0040020840600208006002064
:10834000014B1B68184700BFC4080020FFFFFFFF58
:108350002DE9F341204F3C785CBB204B204D186049
:108360000AF000F902460B4619A1D1E900010AF012
:108370009DFA0AF041FCDFF87C802C70C8F8000000
:108380002146284604F066FE164E0028307014DBA5
:108390002B7893B900211448009033782A78019102
:1083A000DFED120A98ED000A1148012404F0F8FEEE
:1083B0003C70204602B0BDE8F0810121084804F07D
:1083C00049FE00283070E5DAF3E700BFAFF3008024
:1083D0000000000080842E41D00800200C090020FD
:1083E000C0080020C80800204183000000000000F1
:1083F000D4080020CC080020034B1B7813B103489D
:1084000004F051BF704700BFD0080020D4080020FE
:1084100008B5084B1B7863B100220C21064805F013
:1084200013F8054804F018FF0348BDE8084004F0BD
:1084300051BF08BDD0080020D4080020034B1B7892
:108440001BB1034B1860FFF7E3BF7047D008002053
:10845000C408002008B5064B1B7843B10AF082F827
:10846000BDE8084041EC100B024804F0C5BF08BD50
:10847000D0080020D4080020014804F029BD00BF26
:10848000D4080020014804F077BF00BFD4080020C2
:10849000014B1B68184700BF14090020FFFFFFFFB6
:1084A0002DE9F341204F3C785CBB204B204D1860F8
:1084B0000AF058F802460B4619A1D1E900010AF06A
:1084C000F5F90AF099FBDFF87C802C70C8F8000001
:1084D0002146284604F0BEFD164E0028307014DBFD
:1084E0002B7893B900211448009033782A780191B1
:1084F000DFED120A98ED000A1148012404F050FE45
:108500003C70204602B0BDE8F0810121084804F02B
:10851000A1FD00283070E5DAF3E700BFAFF300807B
:108520000000000080842E41200900205C0900200A
:1085300010090020180900209184000000000000AC
:10854000240900201C090020034B1B7813B10348A9
:1085500004F0A9BE704700BF2009002024090020B4
:1085600008B5084B1B7863B100220C21064804F0C3
:108570006BFF054804F070FE0348BDE8084004F0B6
:10858000A9BE08BD2009002024090020034B1B7848
:108590001BB1034B1860FFF7E3BF704720090020B1
:1085A0001409002008B5064B1B7843B109F0DAFF27
:1085B000BDE8084041EC100B024804F01DBF08BDA7
:1085C0002009002024090020014804F081BC00BFDC
:1085D00024090020014804F0CFBE00BF2409002078
:1085E0002DE9F04F90F8705089B0044625B9002568
:1085F000284609B0BDE8F08F06F00AFF636CA26D53
:10860000C31A9A428046F2D8A36B216C93ED007B8B
:10861000D1E9000153EC172B8DED007B09F064FECE
:10862000D4E91423CDE90401DDE9000109F05CFE81
:10863000D4E90823CDE90601DDE904010AF00CF8CC
:10864000D4E9122309F052FE94F8719006460F46C1
:10865000C4E91267B9F1000F0DD1D4E90623DDE9B1
:10866000060109F0F9FF02460B463046394609F08B
:108670003BFEC4E9120194ED127BD4E91AAB51EC34
:10868000170B52465B468DED027B0AF075FA002807
:108690003AD0C4E912ABB9F1000F42D0D4E90623B5
:1086A000DDE9040109F0D8FF06460F46D4E90A23A4
:1086B000DDE9060109F0D0FF02460B46D4E91201BC
:1086C00009F012FE32463B4609F010FE06460F4600
:1086D00002460B46504659460AF030FA50B9D4E9E2
:1086E00018AB32463B46504659460AF045FA08B99F
:1086F000B246BB469DED007BE36BC3E900AB84ED66
:10870000147BC4F8448073E7D4E91867DDE90201FB
:1087100032463B460AF012FA0028BCD0C4E9126780
:10872000B9E700260027C1E72DE9F74F55EC104BBC
:1087300082468B460022002310EE100A294659EC8F
:10874000118B57EC126B0AF0F9F900285BD100226B
:108750000023404649460AF0F1F9002853D100228F
:108760000023304639460AF0E9F900284BD10BF1D5
:10877000FF33CAF834B0D3F1000B4BEB030BCAE95B
:108780000289CAE904678AF871B0CAE90045DAF8D3
:10879000580009F0E7FE00221C4B0AF087F8CAE9EE
:1087A0000645CDE9000102460B464046494609F020
:1087B00053FF80468946DDE9002330463946CAE941
:1087C00008890AF073F8DAF8303006460F46012BB4
:1087D000CAE90A6717D122462B460020002109F07A
:1087E00083FD4246CAE906014B460020002109F0FC
:1087F0007BFD3246CAE908013B460020002109F012
:1088000073FDCAE90A0103B0BDE8F08F00408F4054
:10881000416BFFF789BFF8B50D1E044620DD2846E1
:1088200009F0B0FE0646A06D0F4609F09BFE024619
:108830000B46304639460AF039F802460B460646E2
:108840000F46D4E9080109F007FF3246C4E90801E0
:108850003B46D4E90A010AF029F8C4E90A01A565F2
:10886000F8BD2DE9F84F55EC104B57EC116B8246D3
:1088700011EE102A3B4610EE100A29460AF072F952
:10888000002837D19AF87030CAE91845CAE91A6742
:10889000002B2FD0DAF83CB0DBE9008930464246A5
:1088A0004B4639460AF04AF978B1CBE90067DAE974
:1088B0001267DAE91A45304622462B4639460AF055
:1088C0005BF968B1CAE9124514E042464B462046BE
:1088D00029460AF051F90028E9D0CBE90045E6E73E
:1088E000DAE91845304622462B4639460AF026F981
:1088F0000028E7D1BDE8F88FC36B2DE9D043D3E959
:108900000067C0E91267836BD0E91A89D3E90023B5
:108910000446C0E91423394642464B4630460AF025
:108920002BF910B1C4E9128909E0D4E9188930465D
:1089300042464B4639460AF001F90028F2D1BDE81B
:10894000D083012938B504460CBF0125002504D188
:1089500090F870300BB9FFF7CFFF84F8705038BD36
:1089600038B590F8703004460D46D3B1036B8B4296
:1089700017D0D0E906230021002009F0B5FCD4E986
:108980000823C4E906010020002109F0ADFCD4E968
:108990000A23C4E908010020002109F0A5FCC4E96C
:1089A0000A01256338BDFFFF10B52DED068BB0EE33
:1089B000408AF0EE608AB0EE419AF0EE619A03646C
:1089C0000023C0E90E12B0EE42AAF0EE62AA80F8CF
:1089D000703000220023C0E9182313A3D3E9002339
:1089E000C0E91A236423044683650999FFF7B8FF99
:1089F000B0EE4A2AF0EE6A2AB0EE491AF0EE691A91
:108A00000899B0EE480AF0EE680A2046FFF78CFE9F
:108A100006F0FEFCBDEC068BA36DC01A6064204618
:108A200010BD00BFAFF300800000000000E06F4009
:108A300037B5069D0195012500950446FFF7B4FF63
:108A4000204603B030BD012070472DE9D04F9B4632
:108A500003681B6B92460446DDE908899847024685
:108A60000B46504659460AF067F9134302D00020DE
:108A7000BDE8D08F236820461B6B984702460B4603
:108A8000404649460AF058F91343F0D123681AEBDF
:108A900008069B6C20464BEB09079847B94208BF74
:108AA000B0422CBF01200020E2E701682DE9F0412F
:108AB000C96B14461D460646884702460B462046AB
:108AC00029460AF039F9134302D00020BDE8F081AD
:108AD000DDE90623A71845EB0308336817F1FF32D9
:108AE000D96B304648F1FF33884702460B4638467B
:108AF00041460AF021F91343E7D1336830469B6CB5
:108B00009847414508BFB8422CBF01200020DDE74F
:108B10002DE9D04F9B4603685B6B92460446DDE926
:108B20000889984702460B46504659460AF004F910
:108B3000134302D00020BDE8D08F236820465B6B32
:108B4000984702460B46404649460AF0F5F813435B
:108B5000F0D123681AEB08069B6C20464BEB090703
:108B60009847B94208BFB0422CBF01200020E2E77D
:108B700000207047002070474FF0FF3070470368B7
:108B80009B6B18477047704703681B68184703685A
:108B90005B68184710B40468A468A4465DF8044BE9
:108BA000604790F8803010B5044653B9036A43B16A
:108BB00000F16C013430984710B9012384F88030FB
:108BC00010BD0620FCE790F8803010B504463BB19C
:108BD000036B2BB134309847002384F8803010BDEC
:108BE0000620FCE7D0E906017047D0E90401704790
:108BF000004870470F56010010B58821044609F05F
:108C000069FB204610BDFFFF1649016230B51649C9
:108C1000164C41621649174A8162002516490260C6
:108C2000C0E9024500224FF400540025C1621349F7
:108C300080F88020C0E9044501634FF48064FF217F
:108C4000002580F86C200267C0E91D22DF22C0E900
:108C5000064580F87C1080F87D2080F87E1080F832
:108C60007F2030BD89B9000085BC000000001040A5
:108C7000F1BB00002456010011BB000021B7000029
:108C800010B50A4C2378BFF35B8FDB070CD420466A
:108C900009F007FB40B10648FFF7B6FF204609F090
:108CA0000CFB044806F018FB014810BD60090020C9
:108CB00068090020858B000083689A1806D2006935
:108CC0000344934294BF0020012070470020704766
:108CD0002DE9F84F16461F46DDE90A2312F1FF324F
:108CE00043F1FF3392197B4105468A46FFF7E4FFC3
:108CF00098B332463B462846FFF7DEFF834660B313
:108D000049B395F88020D5F80880B2B92A6828467A
:108D10001268904704465146A8EB0A00DDE90A892B
:108D20000023A1EB0A024B4508BF424509D20B18AC
:108D300033441B7801F8013BF0E74FF0000B0224AD
:108D4000E9E7BBF1000F03D02B6828465B68984722
:108D50002046BDE8F88F0224FAE71620F9E72DE94E
:108D6000F84F16461F46DDE90A2312F1FF3243F1A0
:108D7000FF3392197B4104468B46FFF79DFF38B3C2
:108D800032463B462046FFF797FF054600B394F86E
:108D90008030CBB9236820461B6898478046D4F8BA
:108DA00024A0BAF1000F07D0A2680A9B32445946AA
:108DB00004F13400D04780461DB122682046526835
:108DC00090474046BDE8F88F00254FF00208E6E7DF
:108DD0001620F7E737B585698168C46A11446A428D
:108DE000114054B10DF107032A463430A04728B989
:108DF0009DF8073013B9184600E0062003B030BDD7
:108E00008168836A114482695242114013B1012280
:108E100034301847062070472DE9F84FDDE90A671E
:108E200016F1FF3A47F1FF3B90461AEB02029946D2
:108E30004BEB03030546FFF73FFFB0B342464B46FB
:108E40002846FFF739FF80B395F880304BBB2B687D
:108E500028461B6898470446F0B9AC69EB6922467E
:108E60004046494609F068FFA4EB020A42464B46D9
:108E70002846FFF7C5FFB6EB0A0642464B46284692
:108E800067F10007FFF7A6FFD5F818A0044618B948
:108E9000012E77F10003E9DA2B6828465B689847D2
:108EA00000E006242046BDE8F88F1620FBE7FFFF10
:108EB00010B5094C2378BFF35B8FDB0709D420463C
:108EC00009F0EFF928B1204609F0F7F9034806F058
:108ED00003FA034810BD00BFF0090020F58E000022
:108EE000F409002010B50446006808B109F0E8F95B
:108EF000204610BD0148FFF7F5BF00BFF409002070
:108F0000F0B585B00D46FFF7BBFE012600270368CC
:108F1000CDE900672A461C6A0DF10F010023A04726
:108F20009DF80F0005B0F0BD70B504460D4616461D
:108F3000FFF7A6FE03685B6B9847216891B1B6FB0B
:108F4000F0F300FB1362637923B98B5CFF2B1CBF2A
:108F500001236371237923B98B5CAB421CBF0123CE
:108F600023718D5470BD0368F7B50446002B30D0D3
:108F70000379002B2BD0FFF783FE03685B6B9847C8
:108F8000637906460027ABB9FFF77AFE0368A2684B
:108F90002168CDE900675D6A0023A847B0FA80F533
:108FA0006D09206808B109F08BF900232360284679
:108FB00003B0F0BDFFF764FE0368A268CDE9006767
:108FC000996A002388470028DED00025E9E70125BB
:108FD000E7E70125EBE72DE9F3470D460446904608
:108FE000FFF74EFE03681B6B984743422B40451B1F
:108FF0001D44A360C8F8005025688146A5B909F052
:109000006BF9257120606571FFF73AFE4E46002727
:109010000368A2682168CDE900671E6A2B46B04745
:10902000012002B0BDE8F0870220FAE708B506F09B
:1090300093F9002008BD1B207047FFFF034AB2F8D8
:10904000CC3043F08003A2F8CC30704700000940D8
:1090500037B501210D2006F0F1F800210D2006F0B2
:1090600005F968460722032109F09AF8BDF8003097
:109070001C4CC3F384130125684607220521E554DF
:1090800009F08EF8BDF80030C3F384136846072258
:109090000621E55409F084F8BDF80030C3F38413C9
:1090A000684607220921E55409F07AF8BDF8003036
:1090B000C3F38413684607220A21E55409F070F8C7
:1090C000BDF80030C3F3841307220B216846E55432
:1090D00009F066F8BDF80030C3F38413E55403B01B
:1090E00030BD00BFDE0A00200B7930B4DB01114C2B
:1090F000114DDBB2A3714B788A781B01120302F485
:109100004052DBB213430A788446A85CCA78120244
:1091100002F4407200F003001343034363804B7971
:10912000064ADB01DBB22372002030BCCCF8002001
:10913000704700BF004204400058010054445700EB
:10914000024B0020FF2218701A7070470042044042
:1091500030B5836A85B004468C4601ADABB193E867
:10916000070085E807006268117883F804C0E26AA6
:109170009A6019601846626A9047A36A1BB195E825
:10918000070083E8070005B030BD2B46EBE700BFC2
:1091900010B4EFF30383103B5BB22149214C03F180
:1091A000C00051F8202022F4803241F8202054F8E9
:1091B0002330D3E906218A421CD018699C6840B349
:1091C00093F820C0BCF10F0F0AD9616840F8221053
:1091D000D96901328A429A610CD05DF8044B70471C
:1091E000BCF1070F17D821798154D96901328A421D
:1091F0009A61F2D15B680C4993F903305DF8044B36
:109200005809012203F01F0302FA03F341F820304A
:1092100070476068DDE7A48820F81240D9E700BFF6
:10922000006000404C0A002000E100E030B5EFF3A0
:109230000383103B5BB203F1C0002C492C4C51F866
:10924000202022F4803241F8202054F8233058683E
:10925000026A82B392F801C0DC695A69BCF1010F5D
:1092600016D0A2420BD0D3E9020129B193F82040D5
:109270000F2C05D951F82210416001325A6130BDDE
:10928000072C95BF895C31F8121001718180F4E7D9
:1092900004F1FF3E964511D001690029E1D090F913
:1092A000031014484FEA511E01F01F010CFA01F19E
:1092B00040F82E10D5E75A69DC69D2E790F90340EF
:1092C00004F1C00E6009800051F82E5000F160409A
:1092D00000F5614004F01F040CFA04F425F4803515
:1092E00041F82E50C0F880410460BCE700600040A7
:1092F0004C0A002000E100E0EFF30383103B5AB278
:10930000324802F1C00C03F0FF0350F82C1021F496
:10931000803140F82C102E4951F822008168C9781C
:10932000890704D54168497A012900D0704752095C
:1093300010B40121274C203203F01F0301FA03F37C
:1093400044F82230BFF34F8FBFF36F8F436893F918
:109350000230002B2FDB5A09203203F01F0301FAE1
:1093600003F344F82230BFF34F8FBFF36F8FD0E980
:109370000124237892F9022023F04003002A23706D
:1093800014DB02F1C00C114C53099B0002F01F02C8
:10939000914003F1604354F82C2003F5614322F41B
:1093A000803244F82C20C3F8801119605DF8044B1A
:1093B0000121FFF7CDBE82685DF8044B137823F0DE
:1093C000400313700121FFF7C3BE00BF00600040DF
:1093D0004C0A002000E100E070B5EFF30384103C7C
:1093E000314B64B253F82460736893F90230002B58
:1093F00041DB5A092D492032012003F01F0300FAF6
:1094000003F341F82230BFF34F8FBFF36F8FD6E9DC
:10941000012392F902101A78002922F040021A70F2
:1094200014DB01F1C00C224D4A09920001F01F012A
:10943000884002F1604255F82C1002F5614221F497
:10944000803145F82C10C2F880011060DA780021D4
:10945000D5B21207D97021D4EB0712D405F0140548
:10946000142D16D0124AC03452F8243023F480331D
:1094700042F8243070BDB3681A7822F040021A70A6
:10948000E4E70421304605F01405FFF761FE142DD2
:10949000E8D108213046FFF75BFEE3E705213046BF
:1094A000FFF756FED8E700BF4C0A002000E100E0BD
:1094B00000600040036A70B50446987800F07B00B5
:1094C000987020780D4658BBE16994F802C00E6987
:1094D0000CF00301521A2944C4E903124EB37AB1C5
:1094E000A378306803F00303013B22FA03F3B26868
:1094F000966800229BB22261B04780B9236A207827
:109500009A7842F080029A7040B994F802C00CF048
:10951000030CBCF1020F15D02A78DA70002070BD60
:10952000C4E90312E1690E6996B12946002AE7D021
:10953000D6E79A780CF0030C42F08002BCF1020FDF
:109540009A70E9D12A8842F47E42DA810020E6E767
:109550009A7842F080029A700020E0E7036A91F85E
:1095600001C000B50246987800F07B0E00F00B00B9
:1095700098700020D0608A785A701A786CF30102D3
:109580001A70CA789A7493F807C00A780CF0A3018D
:1095900002F05C020A43DA7183F802E05DF804FB32
:1095A00010B5D0E90721002343608B7092F90520A4
:1095B0002F49044650090123203002F01F0203FA0C
:1095C00002F241F82020BFF34F8FBFF36F8FE269A3
:1095D00092F90B205009203002F01F0203FA02F228
:1095E00041F82020BFF34F8FBFF36F8FE26992F9EC
:1095F00007205009203002F01F0203FA02F241F85E
:109600002020BFF34F8FBFF36F8FE26992F90920DB
:10961000500902F01F02934000F1200241F822306D
:10962000BFF34F8FBFF36F8FE369DA6822B193689E
:1096300010681B6A9847E3691B691BB19A68186830
:10964000136A9847EFF31081012383F31088E369CD
:10965000084A1C78D2F800014FF00043E34003436E
:10966000C2F80031D2F8003181F31088002010BD1B
:1096700000E100E0006F0440F0B5846A85B0054663
:109680000F4694466E46B4B194E80F0086E80F008A
:10969000EB691B7884F804C02360EB6A2046C4E9B8
:1096A00002736B6A9847AC6A1CB196E80F0084E8B5
:1096B0000F0005B0F0BD3446EAE700BF2DE9F047E2
:1096C0000B780322DA4002F001020D46120102700B
:1096D00003F10073AA694969416203F560530026EA
:1096E0005B01C0E90753C0E90A626A788378B24235
:1096F00014BF0122022262F301038370044695F92C
:109700000B00D04B95F80AC04209203200F01F0729
:10971000012101FA07F743F82270BFF34F8FBFF31F
:109720006F8FC94AC94F00F1C00E4FEA0C1C52F8A6
:109730002E8066F3104842F82E8003EB000E5FFA8D
:109740008CFC8EF800C347F8204095F9050095F889
:1097500004C04FEA501E0EF1200E00F01F0801FA5F
:1097600008F843F82E80BFF34F8FBFF36F8F00F1DF
:10977000C00E03EB000952F82E804FEA0C1C66F372
:1097800010485FFA8CFC42F82E8089F800C347F835
:10979000204095F9070095F806C04FEA501E0EF1DB
:1097A000200E00F01F0801FA08F843F82E80BFF3DE
:1097B0004F8FBFF36F8F00F1C00E03EB000952F81B
:1097C0002E804FEA0C1C66F310485FFA8CFC42F8BE
:1097D0002E8089F800C347F8204095F9090095F8D4
:1097E00008C04FEA501E0EF1200E00F01F0801FACB
:1097F00008F143F82E10BFF34F8FBFF36F8F4FEA7E
:109800000C1100F1C00C034452F82CE066F3104E2A
:1098100042F82CE0C9B283F80013EB6847F8204007
:1098200003B35968E7690A684FF40020106094F8A0
:1098300000C0206A461DBCF1000F00F058811130B5
:109840005060787830B9D0780B365660012666F3D0
:109850000510D0709A681868136898470646002863
:1098600040F042812B6903B35968E7690A684FF0F9
:109870000060106094F800C0206AC61CBCF1000FA4
:1098800000F045810F309060787830B9D0780B3691
:109890009660012666F30510D0709A681868136800
:1098A00098470646002840F03981EFF310800123E5
:1098B00083F31088664B2E78D3F800214FF00041D7
:1098C000F14022EA0102C3F80021D3F8003180F30D
:1098D0001088236AE06900229A701A715A729A728B
:1098E000DA725A83297840F20722CA40D20744BF6D
:1098F0004022DA7406221A7722787AB1C168013AD6
:10990000002900F015810126120391B2314341F084
:1099100006029A829A8A92B29142FBD1EA78A97899
:10992000D20042EA01126978032900F0E28000299E
:109930000CBFE221F221ED69D2B21A7099712A7B33
:10994000520002F002025A736A78A97800261E7249
:1099500095F800C0D201490101F02001D2B20A43BA
:10996000ACF10201012940F2C880D2B2DA716A6812
:10997000917859701978567866F301011970D17889
:1099800099741278D97902F05C0201F0A3010A43BC
:10999000DA710027C4E90377C4E9057790F9051067
:1099A000294E01F1C00E4A0956F82E80920067F345
:1099B000104802F1604246F82E8002F561424FF0F5
:1099C000010E01F01F010EFA01F1C2F880111160C1
:1099D00090F90B1001F1C0094A0956F829A092002C
:1099E00002F1604202F5614267F3104A01F01F0183
:1099F00046F829A00EFA01F1C2F88011116090F921
:109A0000071001F1C0094A0956F829A0920002F195
:109A1000604202F5614201F01F0167F3104A46F807
:109A200029A00EFA01F1C2F88011116090F9091015
:109A300001F1C0004A0956F82090920002F16042FC
:109A400008E000BF00E100E0006000404C0A002098
:109A5000006F044067F3104946F8209002F5614218
:109A60000CF0030C01F01F010EFA01F14CF0700C28
:109A7000C2F88011116083F802C06B8923814FF610
:109A8000FF7843452DD0EFF310818EF310882D4AD7
:109A900013681BB92C48C3704023C370136801338B
:109AA000136081F31088218928480B0A1B0153FA9F
:109AB00081F150F8213023F0011323F4404343F0A7
:109AC000040340F82130EFF31081012383F3108861
:109AD000136813B11368013B13601368CBB181F3B2
