:10400000007F002039CD0000E9CB000059F9000005
:1040100035CD000035CD000035CD000035CD000098
:1040200000000000000000000000000035CD00008E
:1040300035CD00000000000035CD000035CD00007A
:104040000000000000000000000000000000000070
:104050000000000000000000000000000000000060
:104060000000000000000000000000000000000050
:104070000000000000000000000000000000000040
:104080000000000000000000000000000000000030
:104090000000000000000000000000000000000020
:1040A0000000000000000000000000000000000010
:1040B0000000000000000000000000000000000000
:1040C00010B5054C237833B9044B13B10448AFF352
:1040D00000800123237010BDF804002000000000C0
:1040E000088F010008B5034B1BB103490348AFF328
:1040F000008008BD00000000FC040020088F0100C3
:1041000070B5204C0BF05AFD1F4A23681268C31A81
:104110009342054631D31D4AB2F86010B2F84020F0
:104120000B1203F1007303F500535B01C9B2D3F81E
:104130000600131203F1007303F500535B01D2B2C2
:10414000D3F80660012303FA02F2324218BF1A467E
:1041500003FA01F308BF0022034214BF0123002326
:104160000B4E9A42D6E900014FF00002094B05D0F0
:104170000EF08AFCC6E90001256070BD0EF086FCD9
:10418000F8E700BF6C0700202400002050810100E8
:10419000500600200000F03F70B5204C0BF00EFDE3
:1041A0001F4A23681268C31A9342054631D31D4A39
:1041B000B2F86010B2F840200B1203F1007303F55F
:1041C00000535B01C9B2D3F80600131203F1007368
:1041D00003F500535B01D2B2D3F80660012303FA62
:1041E00002F2324218BF1A4603FA01F308BF002256
:1041F000034214BF012300230B4E9A42D6E900016B
:104200004FF00002094B05D10EF03EFCC6E900015B
:10421000256070BD0EF03AFCF8E700BF6C07002087
:104220002400002050810100500600200000F03FD3
:1042300070B51F4C0BF0C2FC1E4A23681268C31AEB
:10424000934205462FD31C4A118A128B0B1203F19D
:10425000007303F500535B01C9B2D3F806001312D3
:1042600003F1007303F500535B01D2B2D3F806608B
:10427000012303FA02F2324218BF1A4603FA01F38D
:1042800008BF0022034214BF012300230B4E9A42B1
:10429000D6E900014FF00002094B05D00EF0F4FB07
:1042A000C6E90001256070BD0EF0F0FBF8E700BF25
:1042B00070070020240000205081010058060020D3
:1042C0000000F03F70B51F4C0BF078FC1E4A2368CD
:1042D0001268C31A934205462FD31C4A118A128BC7
:1042E0000B1203F1007303F500535B01C9B2D3F85D
:1042F0000600131203F1007303F500535B01D2B201
:10430000D3F80660012303FA02F2324218BF1A46BC
:1043100003FA01F308BF0022034214BF0123002364
:104320000B4E9A42D6E900014FF00002094B05D12D
:104330000EF0AAFBC6E90001256070BD0EF0A6FBD9
:10434000F8E700BF70070020240000205081010022
:10435000580600200000F03F10B5164C0022002344
:10436000D4E900010EF0D8FF60B1012111200BF05B
:104370004DFB114B1A7882F001021A7019780E2049
:104380000BF044FB00220023D4E900010EF0A6FF4D
:1043900070B1002111200BF039FB074B1A7882F025
:1043A00001021A7019780E20BDE810400BF02EBBE8
:1043B00010BD00BFA8070020FD08002010B5164C56
:1043C00000220023D4E900010EF0A6FF60B1012114
:1043D00009200BF01BFB114B1A7882F001021A70B6
:1043E000197807200BF012FB00220023D4E900010A
:1043F0000EF074FF70B1002109200BF007FB074B92
:104400001A7882F001021A7019780720BDE810406E
:104410000BF0FCBA10BD00BFB0070020FE08002062
:1044200010B5044604F0C2FD2168BDE8104004F058
:10443000E5BD73B505460646012401A80194FFF7C2
:10444000EFFF0134492C06F8010BF6D1284602B0E3
:1044500070BD73B502AD002345F8043D04460E4619
:1044600004F0A4FD2A46216804F033FE01280CD193
:1044700004F09CFD2268314604F0D4FD04F096FD62
:1044800004F0EFFD204602B070BD04F08FFD2268FD
:10449000314604F0C7FDF5E72DE9F04F414B424AA4
:1044A000424E434F93ED060B2DED048B93ED088B9D
:1044B00082ED000B3F4A93ED0A9BD3E91089D3E9C3
:1044C0000E4582ED008BD3E90C013B4A3B4B82ED5C
:1044D000009BC3E900893A4A3A4B82ED009BC3E94D
:1044E0000001394A394BC2E90001C3E90045384AA5
:1044F000384B83B086ED000BC2E90045C3E9008963
:1045000087ED008B53EC102B8DED000B0EF0BCFAF9
:104510000022314B0EF09AFD304B82468B46C3E9A8
:1045200000AB204653EC182B29460EF0ADFA0022C2
:10453000294B0EF08BFD2A4B04460D46C3E900457E
:10454000404653EC192B49460EF09EFA0022224BAE
:104550000EF07CFDB0EE492AF0EE692AB0EE481A62
:10456000F0EE681A1F4BC3E900011F4BC3E900AB13
:104570001E4BC3E900451E4B9DED000BC3E9000136
:104580001C4804F071F80E4A1B4892ED002B97ED81
:10459000001B96ED000B03B0BDEC048BBDE8F04FA3
:1045A00004F062B87006002068050020780500203D
:1045B000580500204805002028050020300500206F
:1045C00038050020800500207005002060050020CF
:1045D000500500204005002000804640E8060020ED
:1045E000D8060020C8060020F0060020E0060020C3
:1045F000D0060020B807002030080020FFFFFFFF92
:104600002DE9F04F89B01D46149B0093159B019333
:10461000169B0293704BDDF864901B780493032B78
:104620000C4683469246DDE91216DDE9177830D153
:1046300000226A4BD9E900010EF0DEFBD8E9002325
:104640000EF024FA0022CDE90401644BD7E9000101
:104650000EF0D2FB029BD3E900230EF017FACDE94E
:10466000020101995D4BD1E9000100220EF0C4FB6B
:10467000009BD3E900230EF009FA9DED042B9DED7C
:10468000021B41EC100B304609B0BDE8F04F03F0BF
:10469000EBBF4FA3D3E90023D1E900010EF03CFEAC
:1046A00000284AD04E4B1B78002B46D1049B002B90
:1046B00043D09BF8003043B90BF07AFA0123206015
:1046C0008BF8003009B0BDE8F08F0BF071FA236869
:1046D000C01A1328F6D90BF06BFA2368C31A2D20E1
:1046E00058434FF4FA7390FBF3F02D28A8BF2D2008
:1046F0000123CAF800002B700EF014FBD9E9002347
:1047000004460D460EF078FBD8E900230EF0BEF902
:10471000D7E90023CDE90401204629460EF06CFBC1
:10472000029BD3E900230EF0B1F9019BCDE9020110
:10473000D3E900232046294698E72B78002B3DD06B
:10474000DAF800000028BDDD0138CAF800000EF0DC
:10475000E9FAD9E90023CDE904010EF04DFBD8E9CF
:1047600000230EF093F9D7E90023CDE90601DDE936
:1047700004010EF041FB029BD3E900230EF086F901
:10478000019BCDE90201D3E90023DDE904010EF02C
:1047900033FB009BD3E900230EF078F99DED062B47
:1047A00041EC100B9DED021B304603F05DFFDAF883
:1047B000003003B92B702B78002B83D100238BF8AA
:1047C00000300BF0F5F920607CE700BFAFF300800C
:1047D000FCA9F1D24D62503F91000020008046407C
:1047E0002D070020FFFFFFFF38B5194C194DD4E904
:1047F0000001D5E900230EF067FD68B9D4E9002374
:10480000C5E9002310A3D3E90023D4E900010EF089
:10481000F3FA114BC3E90001104C114DD4E900012A
:10482000D5E900230EF050FD68B9D4E90023C5E9AD
:10483000002305A3D3E90023D4E900010EF0DCFA3C
:10484000084BC3E9000138BD3AFCDA9F30CD293F5F
:1048500050060020200900201007002058060020E4
:10486000280900201807002038B50E4D0E4C2846A8
:10487000002103F092FF2046002103F08EFF0B4938
:1048800000230022C1E9002309492846C1E9002389
:10489000012103F082FF20460121BDE8384003F0EA
:1048A0007CBF00BFB8070020300800209005002022
:1048B000980500202DE9F84304202E4F2E4E0BF0D2
:1048C000B1F83A788242044602D00BF071F93060B8
:1048D0000BF06EF93368DFF8BC80284E251CA0EB86
:1048E000030018BF01250F2808D93378A34205D04B
:1048F00035701CB90BF05CF9C8F800000520204C9D
:104900003D700BF08FF823781E4F8342054602D08E
:104910000BF04EF938600BF04BF93B681A4F15F16C
:104920000009A0EB030018BF4FF001090F2809D9B7
:10493000164B1A78AA4205D083F8009015B90BF0EF
:1049400037F93860D8F800203B68317884F8009057
:104950009A422CBFD31A9B1A0D4A49B90B490978C0
:1049600031B9B3F5AF7F03D801231370BDE8F883E5
:104970000023FAE7940000205807002020000020C0
:10498000950000205C070020480600202100002040
:10499000F5080020440600202DE9F8430620344F96
:1049A000344C0BF03FF83B788342804602D00BF04A
:1049B000FFF820600BF0FCF823682F4D2F4C18F106
:1049C0000009A0EB030018BF4FF001090F2817D909
:1049D0002B4E3378434513D0236886F80090B8F106
:1049E000000F07D11BB90BF0E3F8264B18602368C2
:1049F0000133236033781BB12368012B08BF2B7070
:104A0000236887F80090022B17D11D4B1E78BEB982
:104A10002B78ABB11B4F0BF0CBF83B68C01A40F2C0
:104A2000DB53984209D80BF0C3F83B68C01A9628AC
:104A300081BF154B2E7001221A702368012B09DDEE
:104A40000F4B1B7833B1104A0023137023602B7077
:104A5000BDE8F8832B78002BFAD00BF0A9F8094BAE
:104A60001B68C01A40F2DC539842ECD8F0E700BF54
:104A70009600002068070020B4080020AC08002041
:104A800080000020B00800202407002008B5114B4A
:104A9000114902221A70114B01221A60104B114A5F
:104AA0000020C3E90001104BD3E900010F4BC3E91B
:104AB0000001002313700E4A00200021C2E900010A
:104AC0000C4AC2E900010C4A13700BF071F80B4B51
:104AD000186008BD9100002000002440500700200D
:104AE000E808002070010020180000204007002086
:104AF00030070020B8060020C0060020A8090020CA
:104B000008B5194B1B78002B26D0184A00231370C8
:104B1000174AD2E90001174AC2E90001164A137088
:104B2000164A03211170164A16490020C2E90001F5
:104B30000BA1D1E90001144AC2E90001134A002087
:104B40000021C2E90001124AC2E90001114A1370B2
:104B50000BF02EF8104B186008BD00BFAFF30080BB
:104B60009A9999999999A9BFFC0800207001002091
:104B7000100900201809002090000020910000205A
:104B8000E808002000001440400700203007002003
:104B9000B8060020C0060020A8090020104B1A7893
:104BA000104BA2B9104A12788AB9104A127872B919
:104BB0000F4A12785AB90F4A127842B90E4A12783F
:104BC0002AB90E4A127812B90D4A12782AB10D4A42
:104BD000127812B101221A7070470022FBE700BF61
:104BE0000907002054070020A10900209807002091
:104BF0009507002014050020FF080020050900206B
:104C0000A8080020F40800201A4B0122D0B51A7021
:104C1000194B1A4A00260027C3E90067184B0024E5
:104C20001C70184BC3E90067174B1360174A1360D9
:104C3000FFF71AFE164BC3E90067164B06221A70DF
:104C4000154B1C60154BD3E90001154BC3E900015E
:104C5000144B1C70144B1C700AF0AAFF134B144920
:104C60001860144B14480522BDE8D0401A700AF0B1
:104C700005BA00BF9000002030070020600100202E
:104C8000C0060020B806002000E1F5056401002000
:104C9000E808002091000020500700204007002075
:104CA000480700204006002038070020080900209F
:104CB000257D010070000020E8170020FFFFFFFFA6
:104CC0002DE9F04FA84CDFF8ECB22778A74DA84E9D
:104CD00085B097B90AF06CFF2378CBF8000083F019
:104CE00001032370A34B00200021C3E90001A24B64
:104CF0001F70D6E90023C5E90023A04CD6E9006760
:104D0000D4E90089304642464B4639460EF0E6FA71
:104D1000A2469B4C002800F001829A4B1B78002B86
:104D200040F0FC81012323600AF042FFDBF80030F1
:104D3000C01A042840F2BD80DAE90023D5E9000159
:104D40000EF0C2FA002840F0B4808F4B1B7823B9D4
:104D50008C4B1B78002B00F0AC808C4E3378BFF36B
:104D60005B8FDB0715D430460DF06BFE88B10AF07F
:104D70001FFFDBF80030C01A0DF0C4FF78A3D3E9A1
:104D800000230EF039F8824BC3E9000130460DF0E4
:104D900064FE804B1B78023B012B94BF7E497F4908
:104DA0007F4B0020C3E9000120680DF0BBFF95EDAB
:104DB000007B774B6F4DD3E9006753EC172B8DEDDC
:104DC000027BCDE900010EF017F86C4B8046D3E969
:104DD00000238946DDE900010EF00EF8714BD3E99E
:104DE00000230DF051FE02460B46404649460EF0A8
:104DF00089FAD5E900ABA846002800F09E81614BF6
:104E00001B78002B40F099810022644BDFF8B891A9
:104E1000304639460DF0F0FF02460B4650465946E3
:104E20000DF032FE544B01224FF000081A70C5E914
:104E3000000142464B460EF05BFA08B1C5E9008915
:104E4000594B4C4DD3E90089D5E9000142464B4608
:104E50000EF062FA08B1C5E90089D5E90089324649
:104E60003B46404649460DF0C7FFDDE900230DF003
:104E7000C3FFDDE902230DF009FE3C4BC3E900014D
:104E80003D4B1B788BB942464B46404649460DF098
:104E9000B3FF0022454B0EF0D9F8454BD3E9002370
:104EA0000DF0F4FD3F4BC3E900010AF081FE414BD8
:104EB0001860DFF8B8A0314DDFF8C4B0DAE9006758
:104EC000D5E90023304639460EF0FEF918BB2E4BCB
:104ED0001B7803BB2B4B1A78EAB923490B7883F074
:104EE00001030B70224BC3E90067234B1A70294B57
:104EF0001B78043B012B0ED82F4B1B785BB1012391
:104F0000CBF800302D4B2E492E4803221A700AF0A0
:104F1000B5F8FFF7BBFD20680DF004FFDAE90023C8
:104F200080468946D5E900450DF066FF22460646D3
:104F30000F462B46404649460DF05EFF02460B46A3
:104F4000304639460EF0DEF9002800F00481084EA4
:104F5000C6E900450F4C2378012B37E0AFF3008002
:104F600012FE7F7B2278F13E7001002010090020A4
:104F70001809002030070020C0060020400700204C
:104F8000500700203806002038070020C805002000
:104F900018060020910000200000694000407F407A
:104FA00020060020B8060020E808002000408F40BE
:104FB00068010020C8080020400600207000002082
:104FC0000C7E0100E81700200000E03F01D1FFF750
:104FD0001BFE2378042B01D1FFF716FE237813F074
:104FE000FD0F01D1FFF710FE2378052B40F0B380B1
:104FF0005A4B00931A78002A72D0594DDFF89881E5
:105000002B781BB90AF0D4FDC8F80000554A564960
:1050100013784FF0010983EA09031370DAE90023DA
:10502000C6E90023514B85F80090D3E90067D1E928
:10503000000132463B460EF05BF9DFF850A120B18B
:105040009AF800300BB98AF80090494B3046D3E902
:10505000002339460EF056F920B1464B1A780AB9AA
:1050600001221A709AF800309BB1424E337883B116
:10507000414B4249424804221A7009F0FFFF0023C5
:105080002B708AF8003033700123CBF80030FFF723
:10509000FDFC0AF08DFDD8F80030C01A0DF032FE8C
:1050A000384BD3E900230EF037F9B0B19AF800304D
:1050B000304A0BB1137883B9002313702B708AF830
:1050C00000300123CBF800302B4B2F492C4806220F
:1050D0001A7009F0D3FFFFF7D9FC2378052B3AD1DA
:1050E000009B1B78002B36D1284B22491A780AB135
:1050F0000A7882BB00221A7019480A700123CBF883
:1051000000301D4B027022491D4803221A7009F01D
:10511000B5FF05B0BDE8F04FFFF7B8BC4FF0FF3367
:10512000236042464B46304639460EF0CDF8002803
:105130003FF4FAADFFF768FDF6E5164B3046D3E9CC
:10514000002339460DF058FE52465B460DF09EFC9A
:10515000C8E9000174E605B0BDE8F08F240700201F
:1051600038060020700100201805002008000020EB
:1051700020050020B0050020700000201D7E0100E9
:10518000E8170020100000202E7E01008805002076
:105190000C7E0100200600203C060020FFFFFFFFE0
:1051A000AF4B1B782DE9F743002B00F00081AD4990
:1051B000AD4E95A3D3E90023D1E900010DF01CFE0B
:1051C0004FF06632A94B0DF061FCA94B1A780446EA
:1051D0000D460B2AC6E90045374646D1A54FD7E90B
:1051E000008942464B460DF007FE22462B46CDE98C
:1051F0000001404609F100410DF0FEFD9DED001B50
:1052000041EC100B9C4803F058FAD7E90045D6E969
:105210000067204632463B4629460DF0EDFD3246FA
:10522000CDE900013B46204605F100410DF0E4FDCB
:105230009DED001B41EC100BE0E09FED751B9FED19
:10524000760B8D4803F039FA9FED711B9FED720BC1
:10525000D4E09FED731B9FED740B874803F02DFA8C
:105260009FED6F1B9FED700BC8E0844B1B781BBB41
:1052700002460B460DF00AFC0022CDE900014FF07A
:105280004043204629460DF0B7FD9DED001B41EC43
:10529000100B794803F011FAD6E9004522462B4657
:1052A000204629460DF0F2FBCDE9000100224FF027
:1052B000404320462946B9E7023B012B3AD87049C2
:1052C0005BA3D3E90023D1E900010EF025F8002803
:1052D00040F089806B4956A3D3E90023D1E900014E
:1052E0000EF01AF800287ED151A3D3E900232046FE
:1052F00029460DF081FD50A3D3E90023CDE900013B
:10530000204629460DF078FD9DED001B41EC100B69
:10531000594803F0D2F9D6E9004545A3D3E9002363
:10532000204629460DF068FD43A3D3E90023CDE9CB
:105330000001BEE70D2A56D1534B1B788BB1504963
:10534000524B0022D1E900010DF0E6FF00284AD1BE
:105350004C494E4B0022D1E900010DF0DDFF002841
:1053600041D137A3D3E90023204629460DF044FD5F
:1053700035A3D3E90023CDE90001204629460DF0ED
:105380003BFD9DED001B41EC100B3B4803F095F9F4
:10539000D7E900452AA3D3E90023204629460DF08A
:1053A0002BFD29A3D3E90023CDE9000181E734498E
:1053B000364B0022D1E900010DF0AEFF48B931496A
:1053C000324B0022D1E900010DF0A6FF00283FF486
:1053D00040AF2D4B1B78002B3FF42FAF244B1B7895
:1053E000162B3FF42AAF9FED1A1B9FED1B0B224893
:1053F00003F063F99FED161B9FED170B244803B0D4
:10540000BDE8F04303F059B90000000000C05C4063
:105410000000000000408F400000000000408FC0EE
:10542000000000000000694000000000000069C0AA
:105430009A9999999999C93F9A9999999999C9BFAE
:10544000666666666666D63F666666666666D6BFEA
:105450000000000000A8A6400000000000A8A6C0B0
:105460003807002030070020A0070020666626408D
:105470009407002088000020B80700209100002039
:10548000C000002018010020960700200000F03F17
:1054900030080020D0B5D0E90667044600220D4B45
:1054A000304639460DF038FF48B100220A4B3046ED
:1054B00039460DF013FF10B173232374D0BD0022C1
:1054C000044B304639460DF013FF08B16E23F4E764
:1054D0007023F2E7000024C000002440FFFFFFFF1C
:1054E0002DE9F347444D454F454C464EDFF824A186
:1054F000D5E90223D5E900010DF0C6FA89468046B8
:105500000AF056FB3B68C01A0DF0FCFB38A3D3E948
:1055100000230DF071FC02460B46404649460DF053
:1055200095FDD5E90023C6E90001C5E90223D4E9C8
:105530000001D4E902230DF0A7FA894680460AF05B
:1055400037FB3B68304FC01A0DF0DCFB28A3D3E9D2
:1055500000230DF051FC02460B46404649460DF033
:1055600075FDD4E90023CDE90001C4E90223DAE99D
:105570000001D6E900230DF089FA244E80468946C1
:10558000D7E90023DDE90001CAE900890DF07EFAC0
:1055900033680133022BCDE90001C7E90001336014
:1055A00020DD00221A4B404649460DF04FFD0022F7
:1055B000C5E90601164BDDE900010DF047FD0022AB
:1055C0000023C4E90601CAE90023C7E900232846ED
:1055D00000233360FFF75EFF204602B0BDE8F047CE
:1055E000FFF758BF02B0BDE8F08700BFAFF30080FF
:1055F0007A88ED07E879F13EC0000020D00800204D
:1056000018010020080600200006002010060020D7
:1056100000000840F80500202DE9F04F2DED028B29
:1056200085B00AF0C5FAC04A03921368DFF844A3B4
:10563000DFF844B3C01ABD4B1B689842C0F0D48059
:10564000DAF800000DF06EFB06460F4602460B46E8
:10565000DBE900010DF0FAFCB54B0D46B5490446F7
:10566000C3E9004532463B46D1E900010DF0EEFCAE
:10567000B14B80468946C3E900892046A0A3D3E9FF
:10568000002329460DF0B8FB0022AC4BAC4CAD4DCD
:105690000DF0DCFC06460F46C4E9086798A3D3E981
:1056A0000023404649460DF0A7FB0022A34B0DF016
:1056B000CDFC80468946C5E90889D4E90A233046ED
:1056C00039460DF0E1F906460F46D5E90A23404672
:1056D0004946C4E900670DF0D7F980468946C5E917
:1056E000008900220023304639460DF015FE029550
:1056F0004FF00105002800F0F98083A3D3E90023CF
:10570000304639460DF0F4FD00B90546EDB29FED87
:10571000808B0DB184ED008B00220023404649466A
:105720000DF0FAFD4FF00105002800F0278176A367
:10573000D3E90023404649460DF0DAFD00B905469D
:10574000EDB215B1029B83ED008B7F4B7F4E1B7832
:10575000052B07D0012B40F019817D4B1B78002BC6
:1057600000F047817B4B1B7A002B00F042817A4B83
:10577000D3E900890022794BD4E900010DF066FCE1
:1057800042464B460DF038FB0022002304460D46EE
:105790000DF0C2FD08B90024002502996F4B0022CC
:1057A000C6E90045D1E900010DF050FC42464B46E8
:1057B0000DF022FB0022002304460D460DF0ACFD47
:1057C00008B900240025664BC3E900450023CAF848
:1057D0000030584B8BED008B83ED008BFFF780FE84
:1057E0000AF0E6F9039B18600F2009F0EFF906466E
:1057F000102009F0EBF941F294140023054640F221
:10580000FF3219460094304609F0FEFA0DF08AFA8C
:105810000022544B0DF01AFC002340F2FF320646E2
:105820000F4600941946284609F0EEFA0DF07AFA70
:1058300000224C4B0DF00AFC002204460D464A4B58
:10584000304639460DF068FD002840F0D88000222F
:10585000464B304639460DF017F90022444B0DF007
:10586000CBFA2DA3D3E900230DF0C6FA00220023C2
:105870000DF00CF906460F4600223B4B2046294608
:105880000DF04AFD002840F0BE800022374B204634
:1058900029460DF0F9F80022354B0DF0ADFA1EA3A4
:1058A000D3E900230DF0A8FA002200230DF0EEF852
:1058B00004460D46DAF800300133CAF800303246AB
:1058C0003B46DBE900010DF0E1F8CBE900011949A5
:1058D00022462B460C46D1E900010DF0D7F8C4E969
:1058E000000105B0BDEC028BBDE8F08F0CA3D3E93D
:1058F0000023304639460DF005FD05E7AFF3008083
:105900002A51CB8B0F96214052B81E85EB51B83FE0
:1059100000000000000000007B14AE47E153AC40E3
:1059200052B81E85EB51B8BFD008002058010020A6
:1059300028060020880900203006002000409F40F3
:10594000C00000201801002091000020B8090020AC
:1059500096070020700600209800002000002940D3
:10596000C009002000408F40000012400000E03FCE
:105970000000D03FF0080020800900202CA3D3E9CC
:105980000023404649460DF0BDFCD7E6022B30D13E
:10599000234B1B7A6BB3234BD3E900890022224BA4
:1059A000D4E900010DF052FB42464B460DF024FABB
:1059B00017A3D3E900230DF067F800220023044663
:1059C0000D460DF0A9FC08B9002400250299164BDC
:1059D000C6E900450022D1E900010DF037FB42463F
:1059E0004B460DF009FA0AA3D3E900230DF04CF859
:1059F000E0E60E4B86ED008B83ED008BE6E606A716
:105A0000D7E9006738E704A5D5E9004552E700BFAC
:105A10007B14AE47E17A743F7B14AE47E153AC4050
:105A2000700600209800002000002940C0090020D6
:105A300052B81E85EB51B8BF1149124BD0B50022A8
:105A4000D1E900010DF068FC38B90F490D4B002277
:105A5000D1E900010DF060FC80B10C4B1B78023BDA
:105A6000012B0BD90A4C0B4F002632463B46D4E99A
:105A700000010DF051FC08B1C4E90067D0BD00BFC2
:105A8000C0000020000022401801002091000020EA
:105A9000E808002000001440164B174A1B7813B981
:105AA0001649097821B9117811B91549087800B358
:105AB0001278DAB91249114A08781249127809782D
:105AC00021B942B13BB938B9022070471AB113B9B4
:105AD00010B90320704760B10B4B1B7843B90B4BD7
:105AE0001B78002B14BF0020042070470120704752
:105AF00000207047540700202D070020FC080020DC
:105B0000E208002090000020980700209507002060
:105B1000042800F28F80DFE800F0034D50878A00F0
:105B20004A4B1B7813B94A4A13707047494B1B788C
:105B3000002B00F08980484B1B7813B1444B0122A5
:105B40001A70464B1B7813B1414B02221A70444B1A
:105B50001B7853B1434B93F83020434B93F83010EC
:105B60003B4B11B322BB03221A70404B1B7813B17D
:105B7000374B06221A703E4B1B7813B1344B072269
:105B80001A703C4B1B7813B1314B08221A703A4BF8
:105B90001B7813B12E4B09221A70384B1B78002B3F
:105BA00052D02B4B0A221A7070470AB10422DBE74D
:105BB0000522D9E7264B0B22F5E7314B1B7813B9A9
:105BC000234B0C22EFE7012B07D12E4B1A78204BE9
:105BD0000AB10D22E7E70E22E5E7042B07D12A4B95
:105BE0001A781B4B0AB10F22DDE71022DBE7052BE9
:105BF00026D1264B1B785BB1254A264B12781B78A1
:105C0000DAB90BBB124B1122CDE7114B1222CAE7B6
:105C10000F4B1322C7E7204B1B78ABB90C4B142258
:105C2000C1E70B4B1522BEE7094B1622BBE7084B19
:105C30001722B8E7064B1822B5E7002BE5D17047CD
:105C4000022BE8D0032BECD0704700BFFC080020EB
:105C500094070020540700201405002009070020A5
:105C6000A808002018010020C0000020050900201D
:105C7000A109002098070020FF08002095070020B8
:105C800091000020F508002038070020240700209C
:105C900088050020B00500202D070020204B0020A3
:105CA0000021C3E900011F4BC3E900011E4BC3E9FA
:105CB00000011E4BC3E900011D4BC3E900011D4B50
:105CC000C3E900011C4BC3E900011C4BC3E90001FF
:105CD0001B4BC3E900011B4B01221A701A4A002317
:105CE00013701A4A13701A4A13701A4A13701A4A18
:105CF00013701A4A13701A4A13701A4A13701A4A08
:105D000013701A4A13701A4A13701A4A13701A4AF7
:105D100013701A4BC3E90A01194BC3E90A01704712
:105D20005006002058060020180900201009002005
:105D30004007002030070020E80800201805002058
:105D400020050020FC08002009070020A1090020F0
:105D50009807002095070020FF0800200509002073
:105D6000A808002014050020F40800202C070020BB
:105D70003806002088050020B0050020C000002063
:105D800018010020FFFFFFFF2DE9F74F01910028C8
:105D90004ED05D4CD4E9008900220023404649469C
:105DA0000DF02AF80022002306460F460DF0B4FA43
:105DB000A34610B907F100431F46DFF868A1DAE9EE
:105DC000004542464B46204629460CF05DFE002227
:105DD0000023804689460DF09FFA10B909F100436F
:105DE000994642464B46304639460DF08BFA90B103
:105DF00000220023204629460DF08EFA00286BD0A1
:105E00003DA3D3E90023204629460DF085FA10B1C1
:105E10003E4B1B7863B102F09FFD3D4802F0BEFD92
:105E20003C4B186802F0C6FDDAE90023CBE90023F9
:105E3000019B002B4DD0384CD4E90089002200236F
:105E4000404649460CF0D8FF0022002306460F4684
:105E50000DF062FAA34610B907F100431F46DFF8C0
:105E6000C8A0DAE9004542464B46204629460CF0D8
:105E70000BFE00220023804689460DF04DFA10B932
:105E800009F10043994642464B46304639460DF0EB
:105E900039FA88B100220023204629460DF03CFA49
:105EA00010B315A3D3E90023204629460DF034FA98
:105EB00010B1164B1B7863B102F0F6FD174802F0E3
:105EC00015FE174B186802F01DFEDAE90023CBE936
:105ED000002303B0BDE8F08F09A3D3E900232046D7
:105EE00029460DF0FBF992E705A3D3E900232046EC
:105EF00029460DF0F3F9DBE70000000000E07540F3
:105F00000000000000E075C0B8080020E208002092
:105F10005943000060010020C0080020BD4300007C
:105F200064010020A8070020B0070020FFFFFFFF4A
:105F30002DE9F0419E4F09F03BFE3B68C01A08284E
:105F400044D9FFF72DF99B4B9B49DFF8C082D3E979
:105F50000045D1E9000122462B460CF095FD0B4689
:105F600096490246D1E900010CF090FD944BC3E93B
:105F70000001944922462B46D1E900010CF084FD32
:105F80000B4691490246D1E900010CF07FFD8F4B91
:105F9000C3E900018E4802F04FFA8E4802F04CFA35
:105FA0008D4B5B7DA3B18D4BC8F800308C4BDFF877
:105FB00060825B7D002B7CD0884BC8F800300121CB
:105FC0000846FFF7E1FE09F0F3FD3860BDE8F08117
:105FD000844B854ED3E90045844B1B78DBB9C6E979
:105FE0000045834B1B78023B012BD6E900454DD879
:105FF00000220023204629460DF070F9D8B966A387
:10600000D3E90023204629460DF086F9A8B162A500
:10601000D5E9004511E0774B18680CF083FE764B0C
:10602000D3E900230CF0E8FE22462B460CF02EFDAF
:10603000C6E90001D5E700240025C6E90045D6E9F8
:10604000004500220023204629460DF03DF9002896
:10605000A9D122462B4652A1D1E900010CF0F6FF4E
:106060000022664B0CF0F2FF0022002304460D468E
:106070000DF052F9B8B1624B0022204629460CF0CF
:10608000BBFE0DF069F9C8F800008FE746A3D3E91D
:106090000023204629460DF021F90028AFD042A563
:1060A000D5E90045C9E7204605F100410022544BDF
:1060B000E5E7544B544ED3E900454C4B1B78DBB914
:1060C000C6E900454A4B1B78023B012BD6E9004547
:1060D0004ED800220023204629460DF0FFF8D8B9FB
:1060E0002DA3D3E90023204629460DF015F9A8B1C8
:1060F00029A5D5E9004511E03E4B18680CF012FEC9
:106100003D4BD3E900230CF077FE22462B460CF0E2
:10611000BDFCC6E90001D5E700240025C6E900451D
:10612000D6E9004500220023204629460DF0CCF890
:1061300000287FF441AF22462B4619A1D1E9000186
:106140000CF084FF00222D4B0CF080FF0022002376
:1061500004460D460DF0E0F8B8B1294B0022204668
:1061600029460CF049FE0DF0F7F8C8F8000026E7C4
:106170000DA3D3E90023204629460DF0AFF80028EF
:10618000AED009A5D5E90045C8E7204605F1004194
:1061900000221B4BE5E700BF0000000000A8A6405E
:1061A00000000000389C8C410000000000A8A6C040
:1061B000D80800201009002010070020B80900208E
:1061C0001805002018070020C00900202005002025
:1061D000B807002030080020A800002000E1F505E5
:1061E0000001002090050020A807002038070020AB
:1061F0009100002050070020A00700200000594017
:106200000000E03F98050020B0070020600100205A
:1062100064010020FFFFFFFF2DE9F8434C4C09F01B
:10622000C7FC2368C01A082878D9FEF7B9FF494B84
:1062300049494A4DD3E90067D1E9000132463B465E
:106240000CF022FC464BC3E90001464932463B466E
:10625000D1E900010CF018FC434BC3E900014348AD
:1062600002F0EAF8424802F0E7F8424BD3E900892D
:10627000414BC3E90089414BD3E90067404B002201
:10628000C3E900674046002349460DF01DF8002889
:106290004CD142464B462CA1D1E900010CF0D6FE70
:1062A0000022384B0CF0D2FE0022002380468946A3
:1062B0000DF032F8A0B3344B0022404649460CF0B2
:1062C0009BFD0DF049F82860002200233046394636
:1062D0000CF0FAFF2D4D90BB32463B461AA1D1E996
:1062E00000010CF0B3FE0022264B0CF0AFFE0022A2
:1062F000002306460F460DF00FF8D0B1224B0022C6
:10630000304639460CF078FD0DF026F82860012162
:106310000846FFF739FD09F04BFC2060BDE8F88323
:10632000404609F100410022174BC8E7184B2B608B
:10633000CAE7304607F100410022134BE2E7144B55
:106340002B60E4E7AFF3008000000000389C8C4134
:10635000D80800204007002010070020600100201E
:10636000180500201807002020050020B80700208D
:106370003008002090050020A80700209805002084
:10638000B0070020000059400000E03F64010020F9
:1063900000E1F505F0B4049CD0B11B4E1B4D95FBFC
:1063A000F4F5002DCCBF1A4D1A4D95FBF4F5356070
:1063B000194D00263AB9194FC5E9006749B90120BE
:1063C000F0BCFFF7E1BC012A0CBF154F0027F3E733
:1063D000C1B10E4A92FBF4F2002ACCBF0C4A0D4A1E
:1063E00092FBF4F40F4A14600F4A00242BB90B4DB2
:1063F000C2E9004530B90121E2E7012B0CBF084D8D
:106400000025F5E70121DAE760010020C027090037
:10641000E0930400206CFBFFA80700200000F03F81
:106420000000F0BF64010020B007002010B50C464A
:1064300020B102F091FA054B054A1A6024B102F02E
:1064400033FB044B024A1A6010BD00BF60010020FC
:1064500000E1F50564010020012110B50846FFF7B1
:10646000E5FF1B4900220023C1E900231949C1E9C6
:1064700000231949C1E900231849C1E9002318493B
:10648000C1E900231749C1E900231749C1E90023E5
:106490001649C1E900231649C1E90023154B06221C
:1064A0001A70154B00241C70144B5C75144B5C75F2
:1064B000144B1C70144B1C70144B1C70144B1C6040
:1064C00009F076FB134B1860134B1C7010BD00BF16
:1064D000500600205806002018090020100900204E
:1064E0004007002030070020E808002018050020A1
:1064F00020050020910000202D070020A80000208A
:10650000000100203806002088050020B00500208A
:1065100078090020AC0900202C070020FFFFFFFFB6
:10652000274938B5D1E900011DA3D3E900230CF0B8
:10653000DFFE40B123491AA3D3E90023D1E90001CA
:106540000CF0D6FEC8B9204917A3D3E90023D1E93E
:1065500000010CF09BFA0022002304460D460CF0CB
:10656000DBFE88B112A3D3E90023204629460CF0B4
:10657000B5FE10B9154B1B7873B1154B01221A707B
:10658000BDE83840FFF768BF0BA3D3E900232046DE
:1065900029460CF0C1FEECE7BDE83840FEF7B0BA82
:1065A0009A9999999999C93F9A9999999999A93FCD
:1065B000FCA9F1D24D62503FFCA9F1D24D6250BF0F
:1065C000C00000201801002010090020E20800206F
:1065D000F408002038B5104B5B7AE3B109F0E8FA13
:1065E0000E4B1B68C01A0E4B1B68984213D90D4DF9
:1065F0002A7882B90C4B01241C7009F0D9FA0B4B94
:1066000018600B4B1B78032B03D00A4B1C70FFF751
:1066100087FF01232B7038BD70060020B0090020D1
:1066200084010020B409002025070020280700204D
:106630009100002095070020F8B5D0E90E2305460B
:10664000D0E900010CF022FA0022214B0CF0D4FB1F
:1066500041EC100BC5E90A0102211E4808F02AFE90
:10666000D5E90A6700220023304639460CF054FE73
:106670004FF00104C8B112A3D3E9002330463946D4
:106680000CF04AFE00B90446E4B2B4B10022002383
:10669000C5E90A23104A01231370104A85F83030E7
:1066A0001370BDE8F840FFF73BBF07A3D3E9002311
:1066B000304639460CF012FEE4E785F83040F8BD6C
:1066C000666666666666D63F666666666666D6BF58
:1066D0000000E03FE8170020A8080020F408002090
:1066E00037B5154D154C2B789BB9012140F24A2244
:1066F000084600921A46FFF74DFE01232B70104BFF
:106700001049114807221A7008F0B8FC09F050FA35
:10671000206009F04DFA2368C01A42F210739842C3
:1067200007D90A4B01221A7003B0BDE83040FFF7C9
:1067300093BE03B030BD00BF2C070020200700200F
:1067400070000020F77D0100E8170020F408002009
:106750002DE97043D0E900893D4D044638A3D3E9C3
:106760000023404649462E680CF0D6FD00283BD059
:1067700035A3D3E90023404649460CF0AFFD00287D
:1067800032D0A36801330022B342A360C4E90322DC
:1067900004DB73232375A368B34207DAE368B342CB
:1067A00004DA2369B342BCBF6623237509F000FAFB
:1067B000284B1B68C01A41F288339842264B2ED9C9
:1067C0001A78162A00D052BB244A12783ABB94F9A0
:1067D0001430702B28D10121214B08461970FFF786
:1067E00025FEFFF79DFE24E015A3D3E900234046D4
:1067F00049460CF07DFD48B1E36801330022B34205
:10680000E3602261A260C6DB6E23C3E72369A06058
:106810000133B342C4E90303BDDB7023BAE71B783D
:106820000B2B0AD1142305E06E2B02D12B68052B0C
:10683000D1D10A232B60BDE870830523FAE700BF9E
:106840007B14AE47E17A84BF7B14AE47E17A843F84
:1068500004000020080900209407002054070020AD
:1068600005090020FFFFFFFF2DE9F0472E4C09F03E
:106870009FF92368C01A13284DD92C4F2C4D2D4E4B
:10688000DFF8BCA0D5E90023D7E900010CF0FCF843
:106890008946804609F08CF92368C01A0CF032FA58
:1068A0001FA3D3E900230CF0A7FA02460B4640468B
:1068B00049460CF0CBFBD7E900231F4FC5E9002365
:1068C000C6E90001D7E90023DAE900010CF0DCF8A1
:1068D0008946804609F06CF92368184DC01A0CF0FF
:1068E00011FA0FA3D3E900230CF086FA02460B46F7
:1068F000404649460CF0AAFBDAE90023C5E900014D
:106900003046C7E90023FFF723FF2846FFF720FFA3
:1069100009F04EF92060BDE8F08700BFAFF30080BA
:106920007A88ED07E879F13EDC08002010070020A6
:1069300078070020A8000020800700200001002028
:10694000180700204B4B2DE9F74FDFF854B1DFF863
:1069500054A1D3E90067DBE90001474B9AED007BC6
:10696000D3E9004532463B468DED007B0CF08EF8B6
:106970002246804689462B46DDE900010CF086F868
:1069800002460B46404649460CF07EF800220023A2
:106990000CF0C2FCDBE90023DAE90089002838D0DA
:1069A000304639460CF072F8424606460F464B46D2
:1069B000204629460CF06AF802460B463046394616
:1069C0000CF062F802460B462C492D4D2D4CC1E9C6
:1069D00000232D49D1E900010CF080FC002843D0B0
:1069E0002A4B1B78002B3FD1294B1B78002B3BD027
:1069F000284B1B78002B37D1274B1B78A3BB2B7858
:106A0000EBB909F0D5F8012320602B7003B0BDE885
:106A1000F08F304639460CF039F8424606460F46AC
:106A20004B46204629460CF031F802460B463046CC
:106A300039460CF029F8024601F10043C4E709F099
:106A4000B7F82368C01A6328E0D9144C2378002BC8
:106A5000DCD101210846FFF7E9FC0123237003B0D4
:106A6000BDE8F04FFFF75CBD00232B7009F0A0F8E4
:106A70002060CBE7B8090020C009002000070020F3
:106A8000080700200C070020780000202D070020B8
:106A900091000020E2080020540700200907002090
:106AA0001007002018070020564B2DE9F047D3E9C6
:106AB0000045554BDFF88081D3E9006722462B461D
:106AC000D8E900010BF0E0FF32463B460BF0DEFF59
:106AD000002200230CF020FC22462B4600285DD02B
:106AE000D8E900010BF0D0FF32463B460BF0CEFF59
:106AF00006460F46454BDFF844A1C3E90067444B07
:106B0000D3E9008922462B46DAE900010BF0BCFFED
:106B100042464B460BF0BAFF002200230CF0FCFB70
:106B200022462B46002845D0DAE900010BF0ACFFE5
:106B300042464B460BF0AAFF04460D46354BC3E9CF
:106B40000045354BD3E9008932463B46404649462D
:106B50000CF0C4FB314F324E38B922462B4640462A
:106B600049460CF0BBFB002845D02E4B1B78002B70
:106B700041D12D4B1B78002B3DD02C4B1B78002B8B
:106B800039D12B4B1B78002B35D13B78F3B909F069
:106B90000FF8012330603B70BDE8F087D8E90001B1
:106BA0000BF072FF32463B460BF070FF064601F1D8
:106BB00000479FE7DAE900010BF066FF42464B46CB
:106BC0000BF064FF044601F10045B7E708F0F0FF61
:106BD0003368C01AB0F5FA7FDED3164C2378002B49
:106BE000DAD101210846FFF721FC01232370BDE81B
:106BF000F047FFF795BC00233B7008F0D9FF3060E9
:106C0000CAE700BF10090020B80900209009002041
:106C1000C00900209809002078010020A009002068
:106C2000A40900202D07002091000020E208002088
:106C300054070020A1090020100700201807002099
:106C40001D4B1B7810B51D4C002B32D11C491D4B20
:106C50000022D1E900010CF05FFB38B91A49194B49
:106C60000022D1E900010CF057FB10B3174B1B7841
:106C7000FBB923782BB908F09BFF154B1860012353
:106C800023702378BBB108F093FF114B1B68C01A27
:106C900047F2305398420ED90E4C23785BB901214C
:106CA0000846FFF7C3FB01232370BDE81040FFF740
:106CB00037BC0023237010BD3807002004090020D2
:106CC000C0000020000010401801002054070020E0
:106CD00000090020FF08002070B50A202B4C2C4E24
:106CE00008F0A0FE22788242054602D008F060FF3C
:106CF000306008F05DFF33682A1CA0EB030018BF6A
:106D00000122282804D9234B1978A94218BF1A70E8
:106D100022700B20204C214E08F084FE2278824203
:106D2000054602D008F044FF306008F041FF3368A8
:106D30002A1CA0EB030018BF0122282804D9184BF5
:106D40001978A94218BF1A702270164A1178E1B951
:106D5000104B1B7813B1124B1B78B3B9124B1B7835
:106D60009BB9124B1B7883B11149097869B111495C
:106D7000097851B90121032B117006D00846FFF79D
:106D800055FBBDE87040FFF7CBBB70BD9200002003
:106D9000600700200000002093000020640700200E
:106DA00001000020140500202D0700209100002084
:106DB000FC080020E2080020F7B50138032805D8B8
:106DC000DFE810F00B002801FA01FF01012108465D
:106DD00003B0BDE8F040FFF729BB754C754E236842
:106DE000002B36D1744B75490020C3E9000174496A
:106DF000744B0020C3E90001734B01251D70734BD8
:106E000002221A70FDF75CFFFFF792F808F0D0FE3F
:106E10006F4B1B68C01AB0F5C87F1AD36D4996F93D
:106E2000143091F91420732B08BF7575732A40F044
:106E3000A88001224A756E2B0BD1674B67496848C1
:106E400001221A70674B08221A7008F017F9FFF731
:106E500067FB737D6BB15F4B5B7D53B1236843B9B7
:106E6000FEF71CFF01210846FFF7E0FA2368013313
:106E7000236023685C4D012B05D108F099FE23683F
:106E800028600133236008F093FE2B68C01A0BF0D2
:106E900039FF3FA3D3E900230CF034FA90B1236803
:106EA000022B0FD1514BD3E90001C3E90E01504B26
:106EB000D3E90001C3E90E0108F07AFE23682860D7
:106EC0000133236008F074FE2B68C01A0BF01AFF20
:106ED00031A3D3E900230CF015FA08B32368032B80
:106EE0001ED1444B1B782BB94048FFF7A5FB404807
:106EF000FFF7A2FB404900220023C1E900233F49DC
:106F0000C1E9002308F054FE2368286001332360A0
:106F1000C823009301231A4619461846FFF73AFA88
:106F200008F046FE2B68C01A0BF0ECFE0022344B32
:106F30000CF0E8F918B32368042B20D1012108468E
:106F4000FFF774FA214B002515A1D1E900011D704E
:106F50001C4BC3E9000114A1D1E90001164BC3E9A0
:106F60000001284B1D7008F023FE274B7575186033
:106F7000264B25601D70174B5D75254B1D7003B0AA
:106F8000F0BD6E2B3FF459AF6E2A55E7AFF300808A
:106F900000000000007097400000000000C0624048
:106FA000CDCCCCCCCCCCDC3F9A9999999999A9BFFE
:106FB00078090020A800002040070020000024409D
:106FC00000001E40E8080020380700209100002043
:106FD000AC0900200001002095070020DE7C0100A4
:106FE000E817002070000020CC080020C00000201E
:106FF0001801002002000020500600205806002042
:1070000000409F4090000020D80800207001002020
:107010002D070020904C8AA3D3E90023D4E9000176
:107020000CF07AF938B98D4900220023D1E900012A
:107030000CF05EF930B18A4BD3E90023C4E9002398
:10704000FDF7E2FD874D2B78012B07D1864B1A788F
:10705000864B1A70FDF734FEFEF76AFF2B78043B6F
:10706000012B29D8824B1A78804B1A70814B1978E2
:1070700011B90AB101221A707F4973A3D3E9002321
:10708000D1E900010BF002FD7C4BD3E900230CF0A9
:1070900025F968B1724BD3E90023C4E90023FDF759
:1070A000B3FD774B7749784809221A7007F0E6FF5D
:1070B000FDF706FEFEF73CFF2B78022B36D16F4B17
:1070C000D4E90001D3E900230CF01CF9002862D0B8
:1070D000664B01221A7008F06BFD6C4B1B68C01ADE
:1070E00040F2ED2398421DD969496A4B0022D1E94B
:1070F00000010CF011F9A8B1674B93F91430702B13
:1071000004D1664B93F91430702B0BD0644B654956
:107110005D4801221A705A4B0A221A7007F0AEFF1E
:10712000FFF7FEF9FDF7CCFDFEF702FF2B78032BEE
:1071300023D15D4946A3D3E90023D1E900010CF036
:10714000EBF840B9594942A3D3E90023D1E9000142
:107150000CF0E2F850B3564B1B7823BB474BD4E9F5
:107160000001D3E900230CF0CDF8E0B13F4B012240
:107170001A70FDF7A5FDFEF7DBFE2B78002B7FF4E0
:10718000FEAE3A4B01221A70FDF79AFD03B0BDE83E
:10719000F040FEF7CDBE324BD3E90023C4E9002313
:1071A000FDF732FDBEE7FFF79BFAE6E7414B012210
:1071B0001A70FFF751F9E0E703B0BDE8F040FFF7C0
:1071C0002BB83D4C227882B93C4D297869B93C4BAB
:1071D0003C4F40F6C4121A603B4B00260120C3E925
:1071E0000067FEF7D1FD01232B7023783BB101F03E
:1071F000B3FB334B354A1A60304B00221A70344CC3
:10720000227882B9334D287868B9334B2D4F40F638
:10721000C4121A60314B00260121C3E90067FEF752
:10722000B3FD01232B702378002B3FF4A8AE01F0AF
:107230003BFC294B254A1A60264B00221A709EE619
:107240009A9999999999A9BF2D431CEBE2361A3F57
:107250009A9999999999C93F40070020E808002018
:107260004807002091000020F50800203807002082
:1072700024070020400600201800002010090020EC
:1072800070000020F67C0100E8170020A80900200B
:10729000300700200000F83FA80000200001002077
:1072A000950700200C7D0100C0000020180100207F
:1072B00014050020F408002020000020E008002031
:1072C000600100200000F0BFA807002000E1F505E4
:1072D00021000020E108002064010020B007002008
:1072E00010B5124904460DF066F9B8B110492046B0
:1072F0000DF061F9A0B10F4920460DF05CF988B19D
:107300000D4920460DF057F970B10C4B0C490D4852
:107310000E221A7007F0B2FE062010BD0120FCE715
:107320000420FAE70520F8E70220F6E7357D0100A2
:107330003C7D0100427D0100477D0100700000207E
:107340004F7D0100E817002038B56C4C08F030FC88
:107350002368C01AC72840F2CF8008F029FC68498A
:1073600020606848684C694D07F07AFE684B6548B4
:107370001B78172B96BF674A674952F8231007F00E
:107380006FFE66495F4807F06BFE654B5D4893ED05
:10739000000B042107F08CFF62495A4807F060FE99
:1073A000614B584893ED000B042107F081FF5F49C2
:1073B000544807F055FE5E4B524893ED000B0421F4
:1073C00007F076FF5B494F4807F04AFE5A4B4D489D
:1073D00093ED000B012107F06BFF5849494807F076
:1073E0003FFE94ED000B0421464807F061FF54492D
:1073F000444807F035FE95ED000B0421414807F0A5
:1074000057FF50493F4807F02BFE4F4B3D4893ED47
:10741000000B012107F04CFF4C493A4807F020FED1
:107420004B4B384819780A2207F072FE4949354813
:1074300007F016FE484B334819780A2207F068FE19
:107440004649304807F00CFE454B2E4819780A2271
:1074500081F0010107F05CFE42492A4807F000FE76
:10746000D5E90023D4E900010BF00EFB0022002334
:1074700004460D460BF050FF10B905F100431D46C0
:10748000394B204845EC104B0321C3E9004507F078
:107490000FFF36491B4807F0E3FD354B194893EDC4
:1074A000000B012107F004FF3249164807F0D8FD10
:1074B000314B144893ED000B012107F0F9FE2F49E1
:1074C000104807F0CDFD2E4B0E4819780A2207F020
:1074D0001FFE2C4B1B784BB12B490A4807F0C0FD0F
:1074E0002A4B084819680A2207F014FE2849054863
:1074F000BDE8384007F0C2BD38BD00BFD408002049
:10750000617D0100E81700201009002040070020DD
:1075100094070020887B0100477E01006A7D0100FE
:1075200010070020727D0100180700207A7D0100FD
:1075300000070020807D010030070020867D0100CB
:10754000917D01009C7D0100E8080020A87D0100DC
:1075500020000020B07D010021000020B87D010046
:1075600080000020BF7D0100F8060020C97D0100D9
:10757000C0000020D17D010018010020D97D01004C
:107580001405002002000020E37D01008807002090
:10759000EA7D010038B5354C354D3649204607F0B7
:1075A0005FFD95ED000B0121204607F081FE7C2157
:1075B000204607F059FD0A22297A204607F0A8FD47
:1075C0007C21204607F050FD0A22697A204607F008
:1075D0009FFD7C21204607F047FD95ED040B03211C
:1075E000204607F065FE7C21204607F03DFD95ED25
:1075F000060B0021204607F05BFE7C21204607F0A9
:1076000033FD95ED080B0021204607F051FE7C214B
:10761000204607F029FD95ED0A0B0021204607F0D2
:1076200047FE7C21204607F01FFD95ED0C0B002145
:10763000204607F03DFE7C21204607F015FD95ED24
:107640000E0B0021204607F033FE7C21204607F078
:107650000BFD002195ED100B204607F029FE20467A
:107660000549BDE8384007F009BD00BFE817002014
:1076700070060020EC7D0100F57D010010B5184C6E
:107680001849204607F0ECFC174B042193ED000B42
:10769000204607F00DFE7C21204607F0E5FC134B49
:1076A0000A221978204607F033FD7C21204607F096
:1076B000DBFC0F4B012193ED000B204607F0F8FD9A
:1076C0007C21204607F0D0FC0A4B204619780A227C
:1076D00007F01EFD20460849BDE8104007F0CEBC6B
:1076E000E8170020407E01001800002096070020C7
:1076F00030090020E2080020F57D010038B5414B3B
:107700001B78002B3CD0404A1278002A38D13F4BDE
:107710003F49D3E90045D1E9000122462B460BF051
:10772000FBFD38B93B4B2046D3E9002329460BF03B
:10773000D5FD10B3384B1B783BB908F039FA374BFD
:107740001860354B01221A7038BD08F031FA334BFE
:107750001B68C01A324B1B689842F5D3314B1B781B
:10776000002BF1D101210846FEF760FE2D4B0122CE
:107770001A70BDE83840FEF7D3BE274B0022E2E77F
:10778000294A1278012A03D81F4A127802B91BB17C
:10779000264A1278002A2CD0254B1D49D3E90045F2
:1077A000D1E9000122462B460BF0B6FD40B9194B3A
:1077B0002046D3E9002329460BF090FD0028DCD0B9
:1077C000154B1B78002BB8D008F0F2F9134B1B684F
:1077D000C01A134B1B689842B6D3124B1A78002A72
:1077E000B2D1124B19780029BCD01A70FFF746FFAE
:1077F000B8E7002BA8D1044B1B78002BA4D10D4B6C
:1078000086E700BF960700205407002030090020BB
:10781000C000002018010020970700209C070020CE
:10782000CC0500209807002091000020E2080020ED
:10783000A00000207006002008B5144B1B7823B36D
:1078400008F0B6F9124B1B68C01A41F2883398420F
:1078500003D8104B1B78032B17D00F4B0F49104840
:107860000B221A7007F00AFC01210846FEF7DEFD24
:10787000BFF34F8F0B490C4BCA6802F4E06213430D
:10788000CB60BFF34F8F00BFFDE708BD2507002089
:107890002807002091000020700000204F7E01008A
:1078A000E817002000ED00E00400FA0510B5124CC6
:1078B0002278FAB108F07CF9104B1B68C01A41F22B
:1078C0008833984203D80E4B1B78032B12D001212A
:1078D0000846FEF7ABFDFEF7BFFD0A4A0A490B4812
:1078E0000023137023700A4B0C22BDE810401A705D
:1078F00007F0C4BB10BD00BFF6080020F808002048
:10790000910000204C0600205C7E0100E81700205A
:10791000700000202DE9F04F85B00DF11008002314
:1079200048F8083D0F4691461446482601F03EFBB4
:107930004246394601F0CDFB012821D1029DB542D6
:1079400028BF354604EB050AA7EB040B544504EBAE
:107950000B030DD014F8011B019103A80393FCF74E
:107960005FFD01998142F1D003A8FCF772FDEDE7BC
:10797000761B2F4401F01AFB01F073FB002ED5D1CA
:10798000484605B0BDE8F08F37B502AC002544F895
:10799000045D2046FCF744FDAA280ED0094A0A4897
:1079A0000121FFF7B7FFAA2120460195FCF751FD01
:1079B0000648FCF73EFD03B030BD0448FCF739FD36
:1079C0000348F6E728000020D005002070060020BC
:1079D0003009002013B5144B144A154915480024EA
:1079E000009493ED002B144B93ED001B134B93ED80
:1079F000000B134B00F048FF124B009493ED002B4B
:107A0000114B124A1249134893ED001B124B93ED90
:107A1000000B124B00F038FF114B124A1B68033366
:107A2000136002B010BD00BF2805002090050020A3
:107A300018050020B8070020480500206805002030
:107A4000B8050020380500205805002098050020C2
:107A5000200500203008002078050020C005002007
:107A600058010020CC05002010B502210C2007F0A1
:107A7000B5FF0221082007F0B1FF082006F0A3FCA3
:107A800002223749374C06F00FFD0C2006F09BFC14
:107A90000222354906F008FD0221084607F09EFF44
:107AA0000221032007F09AFF022006F08CFC02223C
:107AB0002E4906F0F9FC032006F085FC02222C4931
:107AC00006F0F2FC01210E2007F088FF01211120B1
:107AD00007F084FF0121072007F080FF0121092022
:107AE00007F07CFF204600F0E3FE204600F088FF10
:107AF00001210846FEF79AFC0221042007F06EFFE0
:107B00000221052007F06AFF0221062007F066FF28
:107B1000184C00210A2007F061FF00210B2007F01C
:107B20005DFFFFF731FFFCF7B7FC2046012100F0B5
:107B300034FE2046104C072100F099FD204601211B
:107B400000F02BFE0721204600F091FD042007F0F5
:107B50005BF84FF4E1310948BDE810400AF01BBC66
:107B60000141000040420F009941000031420000F5
:107B7000C5420000B807002030080020E8170020A8
:107B8000F0B52DED028B9B4883B00AF015FC58B17F
:107B900098480AF073FC40B23C28974B08D1012268
:107BA0001A70964B00221A6003B0BDEC028BF0BD38
:107BB0003E2840F0588300221A70904B904E914D11
:107BC0001B682968F25430460CF0F5FC8E4C80B1ED
:107BD00022788E4B62B301228D4986481A7007F0D5
:107BE0003FFA3146834807F03BFA8A49814807F05B
:107BF00045FA296882480CF0DEFCE0B9257895B991
:107C000001232370814B84497A480D221A7007F0B2
:107C100035FAFFF7BFFCFFF731FD804B4FF4FA70E8
:107C20001D7007F081FF07F0C3FF7D4B1860BBE7B5
:107C30001A707C49DAE72378002BB5D07A4970486E
:107C40000CF0B9FC58B9794B1B780E3BDBB2082B12
:107C500005D840F2651222FA03F3DB073AD47449DF
:107C600067480CF0A8FC002844D0724964480CF026
:107C7000A2FC00283ED0704961480CF09CFC002812
:107C800049D06E495E480CF096FC002843D004228F
:107C90006B495B480CF0A1FC002870D0694958483A
:107CA0000CF089FC002840F09780674B01221A7085
:107CB000664B1A7812B11870FFF7E0FC574B1B782F
:107CC000002B00F0858003B0BDEC028BBDE8F040D6
:107CD000FEF726BC5E4B5F49D3E90023C1E90023D0
:107CE0005D49C1E9002303B0BDEC028BBDE8F04063
:107CF000FCF78ABF4E4942480CF05DFC574B40B937
:107D000001221A7003B0BDEC028BBDE8F040FFF712
:107D1000B5BC0022F5E7484939480CF04CFC50B995
:107D2000424B1B780A2B00D02BB94D4B1B7813B15B
:107D30004C4B1B78D3B9414931480CF03CFC04460C
:107D400000287FF431AF414B1870FFF797FC0121F9
:107D50000846FEF76BFB444B1C70444B1C7003B091
:107D6000BDEC028BBDE8F040FEF776BB374B01223D
:107D70001A70354A002313703D4A1370C2E73D481C
:107D80000BF083FD354B1B7851EC100B002B3FF4AF
:107D90000BAF0BF001FB08EE100A0AF0D5FF364BD3
:107DA000D3E9004522462B4606460F460BF096FACD
:107DB00050B9F2EE097AB4EEE78AF1EE10FAC7BFD5
:107DC0002E4D002434463D462D4BC3E9004599E72E
:107DD0002C4B01221A70E7E62B4909480CF0EBFB0B
:107DE000002853D103B0BDEC028BBDE8F040FFF793
:107DF000D1BB00BFE8170020F1050020F4050020EA
:107E0000D1050020800100204C06002070000020D9
:107E1000E87B0100207C0100137C0100FC080020AD
:107E2000B0090020FB7B0100227C010094070020A8
:107E3000297C0100367C0100447C0100527C010059
:107E4000617C0100667C010095070020E2080020AB
:107E50001009002040070020180900209607002084
:107E60002000002021000020E0080020E108002080
:107E700098070020D5050020A00000200000294020
:107E800030090020F40800206B7C010098499948D3
:107E90000CF091FB00283FF435AF974B95481968DB
:107EA0000CF089FB78B9954B01221A7007F080FE1F
:107EB000934B1860934B1B78032B3FF475AE924B9A
:107EC00001221A70FFE6914B8A4819680CF073FB87
:107ED00030B98F4B01221A7007F06AFE8D4BE8E72C
:107EE0008D4984480CF067FB10B98C4B1B78CBB1E3
:107EF0008B49804803220CF070FB0146002853D0C8
:107F0000032288497B480CF068FB002861D1864831
:107F10000BF0BBFC854A82ED000B01218448FFF782
:107F2000F9FC5FE7834B8449D3E90045D1E90001BF
:107F300022462B460BF0F0F940B9804B2046D3E99E
:107F4000002329460BF0CAF9044658B17C4B7D4901
:107F500002221A707C4803B0BDEC028BBDE8F040F1
:107F600007F08CB8794B01221A70794BD3E90001E4
:107F7000784BC3E90001784BD3E90001774BC3E9A3
:107F80000001774B1C70774BD3E90001764BC3E9B6
:107F9000000107F00DFE754B186007F009FE744BE9
:107FA0001860744B1C60FFE55F480DF039F94EA373
:107FB000D3E9002351EC100B8DED000B0BF098F979
:107FC00000283FF49FAE9DED000B6B4B83ED000B43
:107FD00098E60322694947480CF0FFFA40B9524835
:107FE0000BF056FC514A003018BF0120107294E784
:107FF000032263493F480CF0F0FA40B94A480BF0BD
:1080000047FC4A4A003018BF0120507285E703221E
:108010005C4938480CF0E1FA48B94348434C0BF04E
:1080200037FC0AF07FFE2246C4E9040175E703220B
:10803000554930480CF0D1FA90B93B480BF025FC7B
:108040003A4A82ED060B01213948FFF763FCFFF73E
:10805000A1FA03B0BDEC028BBDE8F040FCF71CBAFE
:1080600003224A4923480CF0B8FA30B92E480BF0E5
:108070000CFC2E4A82ED080BE5E7032244491D481B
:108080000CF0ABFA30B928480BF0FFFB274A82ED21
:108090000A0BD8E703223F4916480CF09EFA30B984
:1080A00021480BF0F2FB214A82ED0C0BCBE70322B7
:1080B000394910480CF091FA30B91B480BF0E5FB38
:1080C0001A4A82ED0E0BBEE70322344909480CF030
:1080D00084FA002864D114480BF0D7FB134A82EDD0
:1080E000100BB0E7AFF300809A9999999999A9BFBD
:1080F0006E7C0100D10500208400002025070020AF
:108100002807002091000020950700205C01002036
:10811000F6080020F8080020717C0100E208002029
:10812000747C01008E7C0100D405002070060020C4
:10813000D0050020A0000020C00000201801002071
:1081400070000020787C0100E81700202D07002037
:108150001007002078070020180700208007002063
:10816000700100201009002018090020D808002004
:10817000AC0900207809002018000020927C010042
:10818000967C01009A7C01009E7C0100A27C01008B
:10819000A67C0100AA7C0100AE7C0100B27C01003B
:1081A000394B1B78162B59D1384939480DF04CF80A
:1081B0003649064600200DF047F8344905460020B0
:1081C0000DF042F804460EB105B120B9314B3249E9
:1081D0000F221A70BEE6002130460DF021F828A3C8
:1081E000D3E9002351EC100B0AF006FE41EC100B12
:1081F0000BF0F2FA22A3D3E9002351EC100B0AF0A2
:1082000025FF264BC3E90001002128460DF008F8A0
:10821000234B204683ED000BFFF762F8214B224AE7
:10822000187000231370214A1370214A0021002086
:10823000C2E900011F4AC2E900011F4A13701F4A28
:1082400053751F4A53751F4BC3E9000107F0B0FC7B
:108250001D4B186007F0ACFC1C4BE7E40D4B1C49B0
:1082600010221A7076E61B78002B3FF49DAC194A59
:1082700013681E2BDFBF0649C8540133136093E413
:1082800000000000006AF84094070020B67C01005E
:10829000D105002070000020B97C010040070020BB
:1082A000E808002091000020900000202D07002009
:1082B000A8070020B007002070010020A8000020BF
:1082C0000001002030070020D8080020A809002065
:1082D000CB7C0100F405002030B5394C237889B0FF
:1082E0001BB107F06BFC374B1860FFF749FC364BAE
:1082F0001B78002B56D0FCF777FAFFF725F8FEF72E
:1083000021FB23780BB9FEF7CFFBFEF7ADFA2F4B1D
:1083100007932F4B06932F4B05932F4B04932F4B13
:1083200003932F4B02932F4B01932F4B00932F4A14
:108330002F4B30493048314DFCF762F9304B0793F1
:10834000304B0693304B0593304B0493304B0393E3
:10835000304B0293304B0193304B314A3149324814
:108360000093324BFCF74CF9FFF7C8F9FDF764FBBB
:10837000FCF7A0FAFCF710FB2878FDF7C9FBFDF726
:108380004BF9FCF70BFCFEF725F9FEF759FCFDF75E
:1083900083FB2870FEF710FDFEF79EFCFFF786FAC0
:1083A000FFF74AFA237843B107F008FC204B186026
:1083B000044B1B68C01A1F4B186009B030BD00BFCA
:1083C00002000020900700204C060020C806002074
:1083D00028050020D806002048050020E8060020D7
:1083E00068050020B80700209009002064060020DE
:1083F000A0050020A4050020A105002060060020A3
:10840000D006002038050020E00600205805002096
:10841000F006002078050020300800209809002090
:1084200068060020AC050020A9050020A805002052
:108430008C070020880700202DE9F04F90F870503D
:1084400089B0044625B90025284609B0BDE8F08F5B
:1084500007F0AEFB636CA26DC31A9A428046F2D855
:10846000A36B216C93ED007BD1E9000153EC172B3A
:108470008DED007B0AF008FBD4E91423CDE904015B
:10848000DDE900010AF000FBD4E90823CDE906018B
:10849000DDE904010AF0B0FCD4E912230AF0F6FA8F
:1084A00094F8719006460F46C4E91267B9F1000FBF
:1084B0000DD1D4E90623DDE906010AF09DFC024650
:1084C0000B46304639460AF0DFFAC4E9120194ED52
:1084D000127BD4E91AAB51EC170B52465B468DED7B
:1084E000027B0AF019FF00283AD0C4E912ABB9F1B7
:1084F000000F42D0D4E90623DDE904010AF07CFC38
:1085000006460F46D4E90A23DDE906010AF074FCA9
:1085100002460B46D4E912010AF0B6FA32463B464F
:108520000AF0B4FA06460F4602460B465046594634
:108530000AF0D4FE50B9D4E918AB32463B46504657
:1085400059460AF0E9FE08B9B246BB469DED007BEC
:10855000E36BC3E900AB84ED147BC4F8448073E79C
:10856000D4E91867DDE9020132463B460AF0B6FE5F
:108570000028BCD0C4E91267B9E700260027C1E78C
:108580002DE9F74F55EC104B82468B460022002315
:1085900010EE100A294659EC118B57EC126B0AF0B9
:1085A0009DFE00285BD100220023404649460AF088
:1085B00095FE002853D100220023304639460AF0A8
:1085C0008DFE00284BD10BF1FF33CAF834B0D3F144
:1085D000000B4BEB030BCAE90289CAE904678AF86E
:1085E00071B0CAE90045DAF858000AF08BFB0022A6
:1085F0001C4B0AF02BFDCAE90645CDE900010246F5
:108600000B46404649460AF0F7FB80468946DDE9BD
:10861000002330463946CAE908890AF017FDDAF81E
:10862000303006460F46012BCAE90A6717D12246A9
:108630002B46002000210AF027FA4246CAE906012B
:108640004B46002000210AF01FFA3246CAE9080111
:108650003B46002000210AF017FACAE90A0103B0DC
:10866000BDE8F08F00408F40416BFFF789BFF8B540
:108670000D1E044620DD28460AF054FB0646A06D78
:108680000F460AF03FFB02460B46304639460AF0D9
:10869000DDFC02460B4606460F46D4E908010AF007
:1086A000ABFB3246C4E908013B46D4E90A010AF0B3
:1086B000CDFCC4E90A01A565F8BD2DE9F84F55ECDC
:1086C000104B57EC116B824611EE102A3B4610EE10
:1086D000100A29460AF016FE002837D19AF87030A1
:1086E000CAE91845CAE91A67002B2FD0DAF83CB05E
:1086F000DBE90089304642464B4639460AF0EEFD3A
:1087000078B1CBE90067DAE91267DAE91A45304651
:1087100022462B4639460AF0FFFD68B1CAE91245E8
:1087200014E042464B46204629460AF0F5FD002853
:10873000E9D0CBE90045E6E7DAE9184530462246BC
:108740002B4639460AF0CAFD0028E7D1BDE8F88F6C
:10875000C36B2DE9D043D3E90067C0E91267836B8F
:10876000D0E91A89D3E900230446C0E91423394625
:1087700042464B4630460AF0CFFD10B1C4E912899B
:1087800009E0D4E91889304642464B4639460AF09A
:10879000A5FD0028F2D1BDE8D083012938B50446F3
:1087A0000CBF0125002504D190F870300BB9FFF7FC
:1087B000CFFF84F8705038BD38B590F8703004465B
:1087C0000D46D3B1036B8B4217D0D0E906230021AD
:1087D00000200AF059F9D4E90823C4E90601002071
:1087E00000210AF051F9D4E90A23C4E90801002064
:1087F00000210AF049F9C4E90A01256338BDFFFFE9
:1088000010B52DED068BB0EE408AF0EE608AB0EE2A
:10881000419AF0EE619A03640023C0E90E12B0EEB3
:1088200042AAF0EE62AA80F8703000220023C0E96C
:10883000182313A3D3E90023C0E91A2364230446B1
:1088400083650999FFF7B8FFB0EE4A2AF0EE6A2A6D
:10885000B0EE491AF0EE691A0899B0EE480AF0EE47
:10886000680A2046FFF78CFE07F0A2F9BDEC068BE4
:10887000A36DC01A6064204610BD00BFAFF3008036
:108880000000000000E06F4037B5069D019501250E
:1088900000950446FFF7B4FF204603B030BDFFFF4C
:1088A000014B1B68184700BFCC090020FFFFFFFFEA
:1088B0002DE9F341204F3C785CBB204B204D1860E4
:1088C0000AF020FA02460B4619A1D1E900010AF08C
:1088D000BDFB0AF061FDDFF87C802C70C8F8000059
:1088E0002146284604F058FC164E0028307014DB50
:1088F0002B7893B900211448009033782A7801919D
:10890000DFED120A98ED000A1148012404F0EAFC98
:108910003C70204602B0BDE8F0810121084804F017
:108920003BFC00283070E5DAF3E700BFAFF30080CE
:108930000000000080842E41D8090020140A002085
:10894000C8090020D0090020A18800000000000014
:10895000DC090020D4090020034B1B7813B1034825
:1089600004F043BD704700BFD8090020DC09002097
:1089700008B5084B1B7863B100220C21064804F0AF
:1089800005FE054804F00AFD0348BDE8084004F070
:1089900043BD08BDD8090020DC090020034B1B782B
:1089A0001BB1034B1860FFF7E3BF7047D8090020E5
:1089B000CC09002008B5064B1B7843B10AF0A2F998
:1089C000BDE8084041EC100B024804F0B7BD08BDFB
:1089D000D8090020DC090020014804F01BBB00BFBF
:1089E000DC090020014804F069BD00BFDC0900205B
:1089F000014B1B68184700BF1C0A0020FFFFFFFF48
:108A00002DE9F341204F3C785CBB204B204D186092
:108A10000AF078F902460B4619A1D1E900010AF0E3
:108A200015FB0AF0B9FCDFF87C802C70C8F8000058
:108A30002146284604F0B0FB164E0028307014DBA7
:108A40002B7893B900211448009033782A7801914B
:108A5000DFED120A98ED000A1148012404F042FCEF
:108A60003C70204602B0BDE8F0810121084804F0C6
:108A700093FB00283070E5DAF3E700BFAFF3008026
:108A80000000000080842E41280A0020640A002093
:108A9000180A0020200A0020F189000000000000D0
:108AA0002C0A0020240A0020034B1B7813B1034832
:108AB00004F09BBC704700BF280A00202C0A00204D
:108AC00008B5084B1B7863B100220C21064804F05E
:108AD0005DFD054804F062FC0348BDE8084004F071
:108AE0009BBC08BD280A00202C0A0020034B1B78E1
:108AF0001BB1034B1860FFF7E3BF7047280A002043
:108B00001C0A002008B5064B1B7843B10AF0FAF89E
:108B1000BDE8084041EC100B024804F00FBD08BD51
:108B2000280A00202C0A0020014804F073BA00BF74
:108B30002C0A0020014804F0C1BC00BF2C0A002010
:108B4000012070472DE9D04F9B4603681B6B92466E
:108B50000446DDE90889984702460B4650465946C7
:108B60000AF0BAFC134302D00020BDE8D08F23687E
:108B700020461B6B984702460B46404649460AF082
:108B8000ABFC1343F0D123681AEB08069B6C20461C
:108B90004BEB09079847B94208BFB0422CBF0120F0
:108BA0000020E2E701682DE9F041C96B14461D463B
:108BB0000646884702460B46204629460AF08CFCAA
:108BC000134302D00020BDE8F081DDE90623A71899
:108BD00045EB0308336817F1FF32D96B304648F193
:108BE000FF33884702460B46384641460AF074FC7C
:108BF0001343E7D1336830469B6C9847414508BF23
:108C0000B8422CBF01200020DDE72DE9D04F9B4664
:108C100003685B6B92460446DDE908899847024683
:108C20000B46504659460AF057FC134302D0002029
:108C3000BDE8D08F236820465B6B984702460B4601
:108C4000404649460AF048FC1343F0D123681AEB2A
:108C500008069B6C20464BEB09079847B94208BFB2
:108C6000B0422CBF01200020E2E700207047002026
:108C700070474FF0FF30704703689B6B1847704791
:108C8000704703681B68184703685B68184710B48F
:108C90000468A468A4465DF8044B604790F88030EF
:108CA00010B5044653B9036A43B100F16C01343086
:108CB000984710B9012384F8803010BD0620FCE7E6
:108CC00090F8803010B504463BB1036B2BB13430C3
:108CD0009847002384F8803010BD0620FCE7D0E9D7
:108CE00006017047D0E904017047FFFF0048704754
:108CF000E97F010010B58821044609F0BBFE20463B
:108D000010BDFFFF1649016230B51649164C41628D
:108D10001649174A8162002516490260C0E90245DA
:108D200000224FF400540025C162134980F88020CE
:108D3000C0E9044501634FF48064FF21002580F8F9
:108D40006C200267C0E91D22DF22C0E9064580F8D9
:108D50007C1080F87D2080F87E1080F87F2030BD68
:108D6000E1BE0000E1BB0000000010401DBD00009E
:108D7000FC7F010065BC000089B9000010B50A4CF9
:108D80002378BFF35B8FDB070CD4204609F059FE34
:108D900040B10648FFF7B6FF204609F05EFE0448E2
:108DA00006F06AFE014810BD680A0020700A002023
:108DB0007F8C000083689A1806D2006903449342AE
:108DC00094BF002001207047002070472DE9F84F24
:108DD00016461F46DDE90A2312F1FF3243F1FF3345
:108DE00092197B4105468A46FFF7E4FF98B3324665
:108DF0003B462846FFF7DEFF834660B349B395F84C
:108E00008020D5F80880B2B92A68284612689047B1
:108E100004465146A8EB0A00DDE90A890023A1EBCC
:108E20000A024B4508BF424509D20B1833441B7850
:108E300001F8013BF0E74FF0000B0224E9E7BBF13A
:108E4000000F03D02B6828465B6898472046BDE892
:108E5000F88F0224FAE71620F9E72DE9F84F1646B5
:108E60001F46DDE90A2312F1FF3243F1FF33921965
:108E70007B4104468B46FFF79DFF38B332463B46A5
:108E80002046FFF797FF054600B394F88030CBB932
:108E9000236820461B6898478046D4F824A0BAF17E
:108EA000000F07D0A2680A9B3244594604F13400EF
:108EB000D04780461DB12268204652689047404600
:108EC000BDE8F88F00254FF00208E6E71620F7E727
:108ED00037B585698168C46A11446A42114054B14A
:108EE0000DF107032A463430A04728B99DF8073012
:108EF00013B9184600E0062003B030BD8168836ACC
:108F0000114482695242114013B101223430184792
:108F1000062070472DE9F84FDDE90A6716F1FF3AA0
:108F200047F1FF3B90461AEB020299464BEB0303D5
:108F30000546FFF73FFFB0B342464B462846FFF7D2
:108F400039FF80B395F880304BBB2B6828461B68EF
:108F500098470446F0B9AC69EB6922464046494659
:108F60000AF0BAFAA4EB020A42464B462846FFF73B
:108F7000C5FFB6EB0A0642464B46284667F1000796
:108F8000FFF7A6FFD5F818A0044618B9012E77F10F
:108F90000003E9DA2B6828465B68984700E006245E
:108FA0002046BDE8F88F1620FBE7FFFF10B5094CFF
:108FB0002378BFF35B8FDB0709D4204609F041FD1E
:108FC00028B1204609F049FD034806F055FD034845
:108FD00010BD00BFF80A0020F18F0000FC0A00203D
:108FE00010B50446006808B109F03AFD204610BDEE
:108FF0000148FFF7F5BF00BFFC0A0020F0B585B0BF
:109000000D46FFF7BBFE012600270368CDE9006788
:109010002A461C6A0DF10F010023A0479DF80F009E
:1090200005B0F0BD70B504460D461646FFF7A6FE26
:1090300003685B6B9847216891B1B6FBF0F300FBC6
:109040001362637923B98B5CFF2B1CBF012363710F
:10905000237923B98B5CAB421CBF012323718D5450
:1090600070BD0368F7B50446002B30D00379002BA0
:109070002BD0FFF783FE03685B6B98476379064646
:109080000027ABB9FFF77AFE0368A2682168CDE933
:1090900000675D6A0023A847B0FA80F56D09206873
:1090A00008B109F0DDFC00232360284603B0F0BDC1
:1090B000FFF764FE0368A268CDE90067996A0023A0
:1090C00088470028DED00025E9E70125E7E70125EC
:1090D000EBE72DE9F3470D4604469046FFF74EFEB9
:1090E00003681B6B984743422B40451B1D44A360FC
:1090F000C8F8005025688146A5B909F0BDFC257166
:1091000020606571FFF73AFE4E4600270368A268AB
:109110002168CDE900671E6A2B46B047012002B0E6
:10912000BDE8F0870220FAE700290CBF6FF01800B5
:1091300000207047012070476FF0150070476FF0F6
:109140001500704711207047704700207047036872
:1091500001221B6900211847036800221B69114680
:1091600018476FF0150070471D2070476FF015000D
:109170007047012070470020704710467047002359
:109180000B70012070477047704710B504210446EA
:1091900009F070FC204610BD002070473F2870B5D4
:1091A000054621DC114C54F820305A1C0ED10228FF
:1091B0000CDCFFF7F1FF034630B90D4E3378BFF3F7
:1091C0005B8FDB0704D50B4B44F82530184670BD88
:1091D000304609F036FC0028F5D0304609F03DFC59
:1091E000054806F049FCEEE70023EFE78801002080
:1091F000080B0020880200208791000038B5054642
:10920000FFF7CCFF0B4B002443F8254030B90AF0A0
:1092100043FB092303604FF0FF3038BD03685B69EF
:109220009847051E04DA0AF037FB6D420560F2E745
:109230002046F2E788010020FFF7E0BF38B50C4672
:109240001546FFF7ABFF38B90AF026FB0923036088
:109250004FF0FF34204638BD03682146DB682A46BC
:109260009847041EF6DA0AF017FB64420460EFE741
:1092700008B5131E06DA0AF00FFB162303604FF041
:10928000FF3008BD04D0FFF7D9FF40EAE070F8E7EF
:109290001846F6E738B50C461546FFF77FFF38B994
:1092A0000AF0FAFA092303604FF0FF34204638BD74
:1092B000036821469B682A469847041EF6DA0AF09E
:1092C000EBFA64420460EFE7002A08B503DBBDE86F
:1092D0000840FFF7DFBF0AF0DFFA162303604FF004
:1092E000FF3008BD10B5FFF759FF044628B90AF052
:1092F000D3FA09230360204610BD0368DB69984751
:10930000041EF8DA0AF0C8FA644204600024F2E7A6
:10931000FFF7E8BF38B50C461546FFF73FFF38B9F1
:109320000AF0BAFA092303604FF0FF34204638BD33
:10933000036821461B692A469847041EF6DA0AF09C
:10934000ABFA64420460EFE7FFF7E4BF38B50D46BF
:10935000FFF724FF044630B90AF09EFA09230360A0
:109360004FF0FF3038BD0368DB699847002814BF11
:109370004FF400534FF400436B60236820469B6A10
:10938000984728610020EDE7FFF7E0BF08B506F039
:10939000B3FB002008BD1B207047FFFF034AB2F853
:1093A000CC3043F08003A2F8CC3070470000094075
:1093B00037B501210D2006F011FB00210D2006F02C
:1093C00025FB68460722032109F0BAFABDF80030F0
:1093D0001C4CC3F384130125684607220521E5547C
:1093E00009F0AEFABDF80030C3F3841368460722D3
:1093F0000621E55409F0A4FABDF80030C3F3841344
:10940000684607220921E55409F09AFABDF80030B0
:10941000C3F38413684607220A21E55409F090FA41
:10942000BDF80030C3F3841307220B216846E554CE
:1094300009F086FABDF80030C3F38413E55403B095
:1094400030BD00BF1A0B0020F0B44B788E780A783C
:10945000CD780F4C1B013603A75C0C794A7906F4D2
:1094600040562D02DBB205F44071334307F003058B
:109470000B43D201E101074C2B43C9B2064DA17148
:10948000D2B26380227205600020F0BC704700BF3A
:10949000288201000042044054445700024B00203F
:1094A000FF2218701A7070470042044070B5836A3A
:1094B00084B004460E46ABB193E8070001AD85E8E1
:1094C00007006168E26A097819601E719A6018469F
:1094D000636A9847A36A1BB195E8070083E8070011
:1094E00004B070BD01AD2B46EBE700BF30B4EFF325
:1094F0000383103B5BB203F1C0011C4A1C4C52F8C1
:1095000021006FF3104042F8210054F82330D3E9D2
:1095100006218A4212D018699C6868B193F82050DD
:109520000F2D18D9616840F82210D96901328A429A
:109530009A6103D030BC70476068F7E75B680D49FB
:1095400093F90330012203F01F005B09824041F8C8
:10955000232030BC7047072D03D821798154D96965
:10956000E4E7A48820F81240E0E700BF0060004074
:109570002C19002000E100E0F0B4EFF30383103B6E
:109580005BB203F1C0022849284C51F822006FF366
:10959000104041F8220054F823305C685A69206A70
:1095A000DD6910B1407801280FD0AA420BD0D3E971
:1095B000020129B193F820400F2C16D951F822103E
:1095C000416001325A61F0BC70476E1E964214D061
:1095D00021690029E9D094F90310154C01F01F0608
:1095E0004909B04044F82100DFE7072C95BF895CAA
:1095F00031F8121001718180E3E794F9036006F1FC
:10960000C0077409A40051F827C004F1604404F5B0
:10961000614406F01F06B0406FF3104C41F827C0BC
:10962000C4F880012060C0E7006000402C190020D1
:1096300000E100E070B4EFF30383103B5BB2304A0B
:10964000304C03F1C00152F821006FF3104042F892
:10965000210054F823008268D278920705D5426829
:10966000527A012A01D070BC704759092031012279
:10967000254C03F01F0302FA03F344F82130BFF333
:109680004F8FBFF36F8F436893F90230002B2EDBAF
:109690005909203103F01F0302FA03F344F8213083
:1096A000BFF34F8FBFF36F8FD0E90114237891F987
:1096B00002106FF386130029237014DB01F1C0053B
:1096C0000F4C4B099B0054F8256003F1604303F5F0
:1096D000614301F01F018A406FF3104644F8256092
:1096E000C3F880211A60012170BCFFF7DFBE8268D9
:1096F00013786FF386131370012170BCFFF7D6BE89
:10970000006000402C19002000E100E0F8B5EFF304
:109710000384103C314B64B253F82460736893F9AE
:109720000230002B42DB5A09203201202C4903F081
:109730001F0300FA03F341F82230BFF34F8FBFF34A
:109740006F8FD6E90112137891F902106FF3861327
:109750000029137015DB01F1C007224D4B099B0056
:1097600055F827C003F1604303F5614301F01F0181
:1097700000FA01F16FF3104C45F827C0C3F88011CF
:109780001960D5780023EDB2D3702A0721D4EB07F6
:1097900012D405F01405142D16D0C034114B53F813
:1097A00024206FF3104243F82420F8BDB2681378E8
:1097B0006FF386131370E4E70421304605F01405B7
:1097C000FFF774FE142DE8D130460821FFF76EFE36
:1097D000E3E705213046FFF769FED8E72C190020A2
:1097E00000E100E00060004070B50D46016A8B7832
:1097F00003F07B038B700378044623B3C0E9035264
:10980000E369186988B122697AB1A3788168006830
:109810008E68E16803F00303013B22FA03F30022A0
:109820009BB22261B04768B9216A8B7843F080030C
:109830008B70207878B9A37803F00303022B0CD047
:109840002B78CB7070BD837803F00303D21A2B44BE
:10985000C0E90332D4E7002070BD2B8843F47E4377
:10986000CB8170BD036A9A7870B4D2B2054602F01B
:109870000B004E780C7898700020E8608D785D7051
:109880001D7866F301051D70C9789974DD7904F0BF
:109890005C0105F0A304214302F07B02D97170BC86
:1098A0009A707047F0B5846A85B006468C461746B4
:1098B000BCB194E80F006D4685E80F00F269F36AC9
:1098C00012782260E360C4F808C027712046736AEA
:1098D0009847B46A1CB195E80F0084E80F0005B002
:1098E000F0BD6D462C46E9E770B5D0E9072592F941
:1098F00005202F49044650090123203002F01F02A1
:10990000002603FA02F26660AE7041F82020BFF331
:109910004F8FBFF36F8FE26992F90B20500920300F
:1099200002F01F0203FA02F241F82020BFF34F8F2A
:10993000BFF36F8FE26992F907205009203002F0DF
:109940001F0203FA02F241F82020BFF34F8FBFF34A
:109950006F8FE26992F909205009203002F01F024E
:10996000934041F82030BFF34F8FBFF36F8FE3690F
:10997000DA6822B1936810681B6A9847E3691B692B
:109980001BB19A681868136A9847EFF31082012395
:1099900083F31088E069074900784C68C0F11F0024
:1099A000834023434B604B6882F31088002070BDD6
:1099B00000E100E0FC6F04402DE9F8430D46097812
:1099C0000323CB4013F0010301F1007218BF1023F1
:1099D000037002F56052837852010121026204464D
:1099E0006A78C56161F30103D5E905106162002160
:1099F000A370C4E90A1022B9DBB2022262F30103A8
:109A0000A37095F90B60674BA87A7209203206F0B3
:109A10001F07012101FA07F743F82270BFF34F8FA8
:109A2000BFF36F8F604A614F06F1C00C03EB06086D
:109A300052F82CE000016FF3104E42F82CE0C0B257
:109A400088F8000395F9050047F826404FEA501CB6
:109A50000CF1200C00F01F0E01FA0EFE2E7943F8D7
:109A60002CE0BFF34F8FBFF36F8F00F1C00C03EBFF
:109A7000000852F82CE036016FF3104E42F82CE04B
:109A8000F6B288F8006395F9076047F820404FEA7E
:109A9000561C0CF1200C06F01F0E01FA0EFEA879E0
:109AA00043F82CE0BFF34F8FBFF36F8F06F1C00C6C
:109AB00003EB060852F82CE000016FF3104E42F859
:109AC0002CE0C0B288F8000395F9090047F8264059
:109AD0004FEA501C00F01F060CF1200CB1402E7A0A
