:10400000007F002081CC000031CB0000BDF9000012
:104010007DCC00007DCC00007DCC00007DCC00007C
:104020000000000000000000000000007DCC000047
:104030007DCC0000000000007DCC00007DCC0000A5
:104040000000000000000000000000000000000070
:104050000000000000000000000000000000000060
:104060000000000000000000000000000000000050
:104070000000000000000000000000000000000040
:104080000000000000000000000000000000000030
:104090000000000000000000000000000000000020
:1040A0000000000000000000000000000000000010
:1040B0000000000000000000000000000000000000
:1040C00010B5054C237833B9044B13B10448AFF352
:1040D00000800123237010BDA00400200000000018
:1040E000E88E010008B5034B1BB103490348AFF349
:1040F000008008BD00000000A4040020E88E01003C
:1041000070B5204C0BF08CFD1F4A23681268C31A4F
:104110009342054631D31D4AB2F86010B2F84020F0
:104120000B1203F1007303F500535B01C9B2D3F81E
:104130000600131203F1007303F500535B01D2B2C2
:10414000D3F80660012303FA02F2324218BF1A467E
:1041500003FA01F308BF0022034214BF0123002326
:104160000B4E9A42D6E900014FF00002094B05D0F0
:104170000EF0BCFCC6E90001256070BD0EF0B8FC75
:10418000F8E700BF70060020240000203481010001
:10419000900500200000F03F70B5204C0BF040FD72
:1041A0001F4A23681268C31A9342054631D31D4A39
:1041B000B2F86010B2F840200B1203F1007303F55F
:1041C00000535B01C9B2D3F80600131203F1007368
:1041D00003F500535B01D2B2D3F80660012303FA62
:1041E00002F2324218BF1A4603FA01F308BF002256
:1041F000034214BF012300230B4E9A42D6E900016B
:104200004FF00002094B05D10EF070FCC6E9000129
:10421000256070BD0EF06CFCF8E700BF7006002052
:104220002400002034810100900500200000F03FB0
:1042300070B51F4C0BF0F4FC1E4A23681268C31AB9
:10424000934205462FD31C4A118A128B0B1203F19D
:10425000007303F500535B01C9B2D3F806001312D3
:1042600003F1007303F500535B01D2B2D3F806608B
:10427000012303FA02F2324218BF1A4603FA01F38D
:1042800008BF0022034214BF012300230B4E9A42B1
:10429000D6E900014FF00002094B05D00EF026FCD4
:1042A000C6E90001256070BD0EF022FCF8E700BFF2
:1042B00074060020240000203481010098050020AD
:1042C0000000F03F70B51F4C0BF0AAFC1E4A23689B
:1042D0001268C31A934205462FD31C4A118A128BC7
:1042E0000B1203F1007303F500535B01C9B2D3F85D
:1042F0000600131203F1007303F500535B01D2B201
:10430000D3F80660012303FA02F2324218BF1A46BC
:1043100003FA01F308BF0022034214BF0123002364
:104320000B4E9A42D6E900014FF00002094B05D12D
:104330000EF0DCFBC6E90001256070BD0EF0D8FB75
:10434000F8E700BF7406002024000020348101003B
:10435000980500200000F03F10B5164C0022002305
:10436000D4E900010FF00AF860B1012111200BF02F
:104370007FFB114B1A7882F001021A7019780E2017
:104380000BF076FB00220023D4E900010EF0D8FFE9
:1043900070B1002111200BF06BFB074B1A7882F0F3
:1043A00001021A7019780E20BDE810400BF060BBB6
:1043B00010BD00BFB00600200508002010B5164C47
:1043C00000220023D4E900010EF0D8FF60B10121E2
:1043D00009200BF04DFB114B1A7882F001021A7084
:1043E000197807200BF044FB00220023D4E90001D8
:1043F0000EF0A6FF70B1002109200BF039FB074B2E
:104400001A7882F001021A7019780720BDE810406E
:104410000BF02EBB10BD00BFB80600200608002020
:1044200008B50AF06FFF80F00100C0B208BD10B5FA
:10443000044604F05FFD2168BDE8104004F082BD31
:1044400073B505460646012401A80194FFF7EFFF66
:104450000134192C06F8010BF6D1284602B070BDC4
:1044600073B502AD002345F8043D04460E4604F042
:1044700041FD2A46216804F0D0FD01280CD104F04A
:1044800039FD2268314604F071FD04F033FD04F07B
:104490008CFD204602B070BD04F02CFD2268314630
:1044A00004F064FDF5E7FFFF2DE9F04F89B01D46EC
:1044B000129B0493DDE913630093159B01938346DC
:1044C0000C46169B7049714802939246DDE91778B5
:1044D000DDF864900AF016FF002830D000226C4B03
:1044E000D9E900010EF0BAFCD8E900230EF000FB78
:1044F0000022CDE90401664BD7E900010EF0AEFCC5
:10450000029BD3E900230EF0F3FACDE902010199F1
:104510005F4BD1E9000100220EF0A0FC009BD3E923
:1045200000230EF0E5FA9DED042B9DED021B41ECFE
:10453000100B304609B0BDE8F04F04F037B80499CD
:104540004FA3D3E90023D1E900010EF017FF98B182
:10455000504B1B7883B950494C48FFF761FF58B165
:104560009BF8003093B90BF055FB012320608BF8CA
:10457000003009B0BDE8F08F2B78002B3ED100232E
:104580008BF800300BF046FB2060F2E70BF042FBAB
:104590002368C01A1328ECD90BF03CFB2368C31A1C
:1045A0002D2058434FF4FA7390FBF3F02D28A8BF49
:1045B0002D200123CAF800002B700EF0E5FBD9E98D
:1045C000002304460D460EF049FCD8E900230EF006
:1045D0008FFAD7E90023CDE90401204629460EF0E1
:1045E0003DFC029BD3E900230EF082FA019BCDE94A
:1045F0000201D3E90023204629468DE7DAF80000BE
:104600000028B6DD0138CAF800000EF0BDFBD9E97C
:104610000023CDE904010EF021FCD8E900230EF0BF
:1046200067FAD7E90023CDE90601DDE904010EF0C0
:1046300015FC029BD3E900230EF05AFA019BCDE949
:104640000201D3E90023DDE904010EF007FC009B21
:10465000D3E900230EF04CFA9DED062B41EC100B34
:104660009DED021B304603F0A1FFDAF8003003B9DC
:104670002B702B78002B7FF47CAF80E7AFF30080AA
:10468000FCA9F1D24D62503F497F01004C06002049
:104690000080464025060020557F0100FFFFFFFFF8
:1046A00038B5194C194DD4E90001D5E900230EF0B5
:1046B0003DFE68B9D4E90023C5E9002310A3D3E97E
:1046C0000023D4E900010EF0C9FB114BC3E900013E
:1046D000104C114DD4E90001D5E900230EF026FE5F
:1046E00068B9D4E90023C5E9002305A3D3E9002371
:1046F000D4E900010EF0B2FB084BC3E9000138BD5C
:104700003AFCDA9F30CD293F900500202808002090
:10471000F00500209805002030080020F805002052
:1047200038B50E4D0E4C2846002103F0D8FF204628
:10473000002103F0D4FF0B4900230022C1E900232C
:1047400009492846C1E90023012103F0C8FF20469A
:104750000121BDE8384003F0C2BF00BFC006002001
:1047600038070020D8040020E00400202DE9F84399
:1047700004202E4F2E4E0BF087F93A7882420446E1
:1047800002D00BF047FA30600BF044FA3368DFF8E0
:10479000BC80284E251CA0EB030018BF01250F2864
:1047A00008D93378A34205D035701CB90BF032FA22
:1047B000C8F800000520204C3D700BF065F9237807
:1047C0001E4F8342054602D00BF024FA38600BF0EE
:1047D00021FA3B681A4F15F10009A0EB030018BF3E
:1047E0004FF001090F2809D9164B1A78AA4205D0B3
:1047F00083F8009015B90BF00DFA3860D8F8002056
:104800003B68317884F800909A422CBFD31A9B1AE7
:104810000D4A49B90B49097831B9B3F5AF7F03D8CF
:1048200001231370BDE8F8830023FAE7630000203A
:104830005C060020200000206400002060060020AC
:104840008805002021000020FD07002084050020AD
:104850002DE9F8430620344F344C0BF015F93B7822
:104860008342804602D00BF0D5F920600BF0D2F9DC
:1048700023682F4D2F4C18F10009A0EB030018BF3F
:104880004FF001090F2817D92B4E3378434513D029
:10489000236886F80090B8F1000F07D11BB90BF020
:1048A000B9F9264B186023680133236033781BB1B4
:1048B0002368012B08BF2B70236887F80090022B18
:1048C00017D11D4B1E78BEB92B78ABB11B4F0BF027
:1048D000A1F93B68C01A40F2DB53984209D80BF0AB
:1048E00099F93B68C01A962881BF154B2E7001229A
:1048F0001A702368012B09DD0F4B1B7833B1104A66
:104900000023137023602B70BDE8F8832B78002BF5
:10491000FAD00BF07FF9094B1B68C01A40F2DC5348
:104920009842ECD8F0E700BF650000206C0600203C
:10493000BC070020B407002050000020B80700206A
:104940001C06002008B5124912480AF0D1FC124B8F
:10495000124901221A60124B124A0020C3E90001D9
:10496000114BD3E90001114BC3E90001002313707F
:104970000F4A00200021C2E900010E4AC2E90001ED
:104980000D4A13700BF046F90C4B186008BD00BFC0
:10499000F87B01004C06002048060020000024405F
:1049A000F007002020010020180000203806002019
:1049B00028060020C8050020D00500206808002037
:1049C000194B1B7810B5002B27D0184B00241C70F6
:1049D000174BD3E90001174BC3E90001164B1749E8
:1049E00017481C700AF084FC164B17490020C3E9D5
:1049F00000010BA1D1E90001144BC3E900011449E6
:104A000000220023C1E900231249C1E90023124B0F
:104A10001C700BF0FFF8114B186010BDAFF3008055
:104A20009A9999999999A9BF04080020200100201A
:104A3000180800202008002060000020497F0100A5
:104A40004C060020F007002000001440380600202B
:104A500028060020C8050020D00500206808002096
:104A6000104B1A78104BA2B9104A12788AB9104A22
:104A7000127872B90F4A12785AB90F4A127842B9AD
:104A80000E4A12782AB90E4A127812B90D4A1278D3
:104A90002AB10D4A127812B101221A707047002211
:104AA000FBE700BFE90500205806002011060020A2
:104AB000A3060020A0060020BC0400200708002058
:104AC0000D080020B0070020FC070020194B012230
:104AD000D0B51A70184B194A00260027C3E90067A1
:104AE000174B00241C70174BC3E90067164B13606B
:104AF000164A1360FFF714FE154B16491648C3E912
:104B000000670AF0F5FB154B1C60154BD3E900015B
:104B1000144BC3E90001144B1C70144B1C700BF0B8
:104B200079F8134B13491860BDE8D04012480AF0D9
:104B30004FBA00BF600000202806002010010020AE
:104B4000D0050020C805002020A107001401002086
:104B5000F0070020B68201004C0600204806002025
:104B60003806002040060020800500203006002086
:104B700010080020DF7C0100A8160020FFFFFFFFC7
:104B80002DE9F04FA24CDFF8C8B22678DFF8B4A2C6
:104B9000A04D87B096B90BF03DF82378CBF8000014
:104BA00083F0010323709C4B00200021C3E9000126
:104BB0009A4B1E70D5E90023CAE90023984CD5E929
:104BC0000067D4E90089304642464B4639460EF02C
:104BD000B7FB944D002800F0FA80934B1B78002B14
:104BE00040F0F58001232B600BF014F8DBF8003067
:104BF000C01A042840F2B680D4E90023DAE90001A3
:104C00000EF094FB002840F0AD80884B1B7823B950
:104C1000854B1B78002B00F0A580854C2378BFF3D3
:104C20005B8FDB0715D420460DF03DFF88B10AF0FD
:104C3000F1FFDBF80030C01A0EF096F870A3D3E94C
:104C400000230EF00BF97B4BC3E9000120460DF069
:104C500036FF28680EF098F8DAE90089DFF8B8A185
:104C6000744B9AED007B8DED007B93ED007B044649
:104C70000D4665A3D3E9002351EC170B8DED027BA4
:104C80000EF0ECF8424606464B460F4620462946B3
:104C90000EF0E4F8624BCDE90401D3E9002320468D
:104CA00029460EF0DBF8644BD3E900230DF01EFF1C
:104CB00002460B46DDE904010EF056FB32460028A1
:104CC00000F09480584B1B78002B40F08F803B46BF
:104CD000DDE900010DF00AFF584F504B012200267C
:104CE0001A70CAE9000132463B460EF033FB08B1A8
:104CF000CAE90067524BD3E90067DAE9000132469E
:104D00003B460EF03BFB08B1CAE90067DAE90067F1
:104D1000DDE90223304639460EF0A0F822462B4644
:104D20000EF09CF84B4642460DF0E2FE454BC3E9BF
:104D300000013A4B1B788BB932463B463046394628
:104D40000EF08CF80022404B0EF0B2F93F4BD3E945
:104D500000230DF0CDFE384BC3E900010AF05AFFE5
:104D60003B4B1860374D2E4CDFF8B8A0D5E90067F3
:104D7000D4E90023304639460EF0D8FAAB46002875
:104D800078D12A4B1B78002B74D1274B1A78002A34
:104D900070D11F492F480B7883F001030B701D4B16
:104DA0002D49C3E900671D4B1A700AF0ABFA0028C1
:104DB0005AD02A4B1B78002B5CD001232849294864
:104DC000CAF800300AF004F9FFF7BCFD52E04FF0DA
:104DD000FF332B6042464B46304639460EF0A6FA6A
:104DE00000283FF401AFFFF771FEFDE63B46DDE929
:104DF00000010DF07DFECAE900017BE7AFF3008002
:104E000012FE7F7B2278F13E0000000000C072405D
:104E1000200100202008002028060020D0050020C6
:104E200038060020480600207805002030060020C3
:104E30001005002060050020C80500200000E03FAC
:104E4000F00700201808002000C082401801002050
:104E5000D00700204C060020BE7D01008005002008
:104E6000C97D0100A81600206A496B480AF04AFA79
:104E700000289ED1DAF800000DF086FFDBE9002360
:104E800080468946D4E900450DF0E8FF22460646F3
:104E90000F462B46404649460DF0E0FF02460B46C2
:104EA000304639460EF060FA002800F0AF805B4EC5
:104EB0005B495948C6E900450AF024FA08B1FFF7F2
:104EC00005FE544954480AF01DFA08B1FFF7FEFDEB
:104ED000544951480AF016FA002800F08F80FFF775
:104EE000F5FD51494C480AF00DFA002867D04F4BA8
:104EF0001B78002B63D04E4DDFF868812B781BB9EF
:104F00000AF088FEC8F800004A4A4B4913784B4C17
:104F10004FF0010983EA09031370DBE90023C6E9B6
:104F20000023474B85F80090D3E90067D1E90001E1
:104F300032463B460EF00EFA18B123780BB984F8CE
:104F40000090404B3046D3E9002339460EF00CFA6E
:104F500020B13D4B1A780AB901221A7023787BB12F
:104F6000394E337863B1394939480AF031F80023B2
:104F70002B70237033700123CAF80030FFF7E2FC76
:104F80000AF048FED8F80030C01A0DF0EDFE314BA3
:104F9000D3E900230EF0F2F988B123782A4A0BB145
:104FA000137863B9002313702B7023702A492848A3
:104FB0000123CAF800300AF00BF8FFF7C3FC1A49C6
:104FC00015480AF09FF908B3184B1B78F3B91B4B2F
:104FD0001D491A780AB10A78C2B915480022027030
:104FE0001A700A7001231D491948CAF8003009F0E7
:104FF000EFFF07B0BDE8F04FFFF7A4BC1849064823
:105000000AF080F900287FF46AAF6AE707B0BDE8CC
:10501000F08F00BFC37D01004C0600202008002057
:10502000D77D0100F87B0100BE7D01001C06002039
:105030007805002020010020C0040020D0040020BA
:1050400008000020C8040020F8040020DE7D0100D4
:10505000A816002010000020EC7D0100C97D010091
:10506000557F01007C050020A54B1B782DE9F743F7
:10507000002B00F0F080A349A34C8FA3D3E90023B9
:10508000D1E900010DF0EAFE4FF066329F4B0DF0C2
:105090002FFDC4E900019E499E480AF033F92546D8
:1050A00000284AD09C4DD4E90089D5E900674246E2
:1050B0004B46304639460DF0D1FE4246CDE900015F
:1050C0004B46304607F100410DF0C8FE9DED001B38
:1050D00041EC100B914803F092FAD5E90067D4E94E
:1050E0000045304622462B4639460DF0B7FE224693
:1050F000CDE900012B46304607F100410DF0AEFE30
:105100009DED001B41EC100BCEE09FED6D1B9FED64
:105110006E0B824803F073FA9FED691B9FED6A0BDB
:10512000C2E09FED6B1B9FED6C0B7C4803F067FAB0
:105130009FED671B9FED680BB6E0794975480AF053
:10514000E1F838B3D4E9006732463B463046394689
:105150000DF0CEFC0022CDE900014FF04043304677
:1051600039460DF07BFE9DED001B41EC100B6B48AA
:1051700003F045FAD4E9004522462B46204629464D
:105180000DF0B6FCCDE9000100224FF0404320466F
:105190002946B3E7634964480AF0B4F8F0B96349B3
:1051A00061480AF0AFF8C8B961495A480AF0AAF84C
:1051B00000286ED05F4B1B782BB35F495F4B0022FA
:1051C000D1E900010EF0DAF8002862D15C495B4BAE
:1051D0000022D1E900010EF0D1F812E0594B5649F6
:1051E000D3E90067D1E9000132463B460EF0C6F82C
:1051F00000284ED1524B3046D3E9002339460EF0F9
:105200009FF8002845D1D5E9006735A3D3E90023ED
:10521000304639460DF022FE33A3D3E90023CDE911
:105220000001304639460DF019FE9DED001B41ECA2
:10523000100B3A4803F0E3F9D5E9004528A3D3E978
:105240000023204629460DF009FE27A3D3E90023B9
:10525000CDE900019BE73849384B0022D1E9000134
:105260000EF08CF848B93649344B0022D1E90001E0
:105270000EF084F800283FF454AF2E4B1B78002B1F
:105280003FF443AF30492348FFF7CAF800283FF402
:105290003CAF9FED171B9FED180B204803F0AFF9B3
:1052A0009FED131B9FED140B284803B0BDE8F0439E
:1052B00003F0A5B9AFF300800000000000C05C401F
:1052C0000000000000408F400000000000408FC040
:1052D000000000000000694000000000000069C0FC
:1052E000666666666666D63F666666666666D6BF4C
:1052F000000000000044A640000000000044A6C0DA
:105300003006002028060020A806002066662640F9
:10531000ED7C01009406002058000020C00600200B
:10532000F97C0100F87B01004C060020497F010058
:10533000057D0100A1060020900000200000F03F44
:10534000D800002070000020F47C01003807002005
:10535000D0B5D0E90667044600220D4B30463946E9
:105360000EF00CF848B100220A4B304639460DF0D9
:10537000E7FF10B173232374D0BD0022044B3046E5
:1053800039460DF0E7FF08B16E23F4E77023F2E72A
:10539000000024C0000024402DE9F347444D454F50
:1053A000454C464EDFF824A1D5E90223D5E900019A
:1053B0000DF09CFB894680460AF02CFC3B68C01A25
:1053C0000DF0D2FC38A3D3E900230DF047FD0246CF
:1053D0000B46404649460DF06BFED5E90023C6E971
:1053E0000001C5E90223D4E90001D4E902230DF04C
:1053F0007DFB894680460AF00DFC3B68304FC01AA1
:105400000DF0B2FC28A3D3E900230DF027FD0246DE
:105410000B46404649460DF04BFED4E90023CDE94A
:105420000001C4E90223DAE90001D6E900230DF006
:105430005FFB244E80468946D7E90023DDE9000161
:10544000CAE900890DF054FB33680133022BCDE922
:105450000001C7E90001336020DD00221A4B4046FD
:1054600049460DF025FE0022C5E90601164BDDE98F
:1054700000010DF01DFE00220023C4E90601CAE967
:105480000023C7E90023284600233360FFF760FFAD
:10549000204602B0BDE8F047FFF75ABF02B0BDE8B2
:1054A000F08700BFAFF300807A88ED07E879F13E1E
:1054B00090000020D8070020D800002050050020D0
:1054C0004805002058050020000008404005002045
:1054D0002DE9F04F2DED028B85B00AF09BFBB64A0B
:1054E00003921368DFF820A3DFF820B3C01AB34B90
:1054F0001B689842C0F0AC80DAF800000DF044FC64
:1055000006460F4602460B46DBE900010DF0D0FDD2
:10551000AB4B0D46AB490446C3E9004532463B461A
:10552000D1E900010DF0C4FDA74B80468946C3E9CF
:105530000089204696A3D3E9002329460DF08EFC6E
:105540000022A24BA24CA34D0DF0B2FD06460F4621
:10555000C4E908678EA3D3E90023404649460DF00D
:105560007DFC0022994B0DF0A3FD80468946C5E9DC
:105570000889D4E90A23304639460DF0B7FA0646C1
:105580000F46D5E90A2340464946C4E900670DF0B5
:10559000ADFA80468946C5E90089002200233046DD
:1055A00039460DF0EBFE02954FF00105002800F0A2
:1055B000D18079A3D3E90023304639460DF0CAFEE5
:1055C00000B90546EDB29FED768B0DB184ED008BF1
:1055D00000220023404649460DF0D0FE4FF0010561
:1055E000002800F0BF806CA3D3E900234046494661
:1055F0000DF0B0FE00B90546EDB215B1029B83ED8A
:10560000008B75497548764E09F07CFE002800F045
:10561000B180744B1B7A002B40F0FA8072496F48BE
:1056200009F070FE002840F02381704B86ED008B5E
:1056300083ED008B0023CAF80030624B8BED008BAA
:1056400083ED008BFFF7A8FE0AF0E4FA039B1860D5
:105650000F2009F05FFA0646102009F05BFA41F2CC
:1056600094140023054640F2FF3219460094304658
:1056700009F06EFB0DF088FB00225D4B0DF018FD6C
:10568000002340F2FF3206460F4600941946284692
:1056900009F05EFB0DF078FB0022554B0DF008FD84
:1056A000002204460D46534B304639460DF066FE47
:1056B000002840F0108100224F4B304639460DF053
:1056C00015FA00224D4B0DF0C9FB37A3D3E9002397
:1056D0000DF0C4FB002200230DF00AFA06460F4627
:1056E0000022444B204629460DF048FE002840F099
:1056F000F6800022404B204629460DF0F7F90022A3
:105700003E4B0DF0ABFB28A3D3E900230DF0A6FB25
:10571000002200230DF0ECF904460D46DAF80030C3
:105720000133CAF8003032463B46DBE900010DF098
:10573000DFF9CBE90001234922462B460C46D1E98B
:1057400000010DF0D5F9C4E9000105B0BDEC028BF4
:10575000BDE8F08F16A3D3E90023304639460DF09B
:1057600003FE2DE712A3D3E90023404649460DF07E
:10577000FBFD3FE72249194809F0C4FD00283FF42A
:105780004DAF204B1B78002B7FF443AF46E700BFA3
:105790002A51CB8B0F96214052B81E85EB51B83F52
:1057A00000000000000000007B14AE47E153AC4055
:1057B00052B81E85EB51B8BFD80700200801002061
:1057C00068050020600800207005002000409F4010
:1057D00090000020D8000020BE7D01004C06002073
:1057E00078080020B0050020F87B01008008002028
:1057F00000408F40000012400000E03F0000D03F1A
:10580000D77D0100A1060020F807002058080020DD
:10581000394BD3E900890022384BD4E900010DF05F
:1058200047FC42464B460DF019FB0022002304467C
:105830000D460DF0A3FD08B90024002502992F4B59
:105840000022C6E90045D1E900010DF031FC4246D5
:105850004B460DF003FB0022002304460D460DF0DD
:105860008DFD08B900240025254BC3E90045E1E67C
:10587000244B1B7A002B3FF4D8AE1F4BD3E9008991
:1058800000221E4BD4E900010DF012FC42464B46AB
:105890000DF0E4FA14A3D3E900230DF027F9002258
:1058A000002304460D460DF069FD08B900240025CB
:1058B0000299124BC6E900450022D1E900010DF022
:1058C000F7FB42464B460DF0C9FA07A3D3E9002384
:1058D0000DF00CF9BFE706A7D7E9006700E704A5BC
:1058E000D5E900451AE700BF7B14AE47E17A743F63
:1058F0007B14AE47E153AC40680000200000294013
:1059000080080020B00500201349144BD0B50022B8
:10591000D1E900010DF032FD38B911490F4B0022D9
:10592000D1E900010DF02AFDA8B10E490E48FEF79D
:1059300077FD80B10D490C48FEF772FD58B10C4C53
:105940000C4F002632463B46D4E900010DF016FD0F
:1059500008B1C4E90067D0BD9000002000002440D9
:10596000D8000020F87B01004C060020497F010090
:10597000F007002000000840164B174A1B7813B9A7
:105980001649097821B9117811B91549087800B379
:105990001278DAB91249114A08781249127809784E
:1059A00021B942B13BB938B9022070471AB113B9D5
:1059B00010B90320704760B10B4B1B7843B90B4BF8
:1059C0001B78002B14BF0020042070470120704773
:1059D00000207047580600202506002004080020FB
:1059E000EA07002060000020A3060020A006002097
:1059F00010B5042800F2A780DFE800F003484AA1B0
:105A0000A300524B1B782BB951495248BDE81040B6
:105A100009F06EBC504B1B78002B00F096804F4B6A
:105A20001B781BB14E494B4809F062FC4D4B1B786B
:105A30001BB14D49474809F05BFC4C4B1B781BB12F
:105A40004B49444809F054FC4A4B1B781BB14A4966
:105A5000404809F04DFC494B1B781BB148493D4873
:105A600009F046FC474B1B781BB14749394809F000
:105A70003FFC464B1B781BB14549364809F038FCC2
:105A8000444B1B78002B60D04349BEE74349BCE739
:105A90004349444809F036FC18B143492D4809F000
:105AA00027FC42493F4809F02DFC38B1404B1B7898
:105AB000002B3ED03F49274809F01AFC3E4939489F
:105AC00009F020FC38B13D4B1B78002B33D03C490A
:105AD000204809F00DFC3B49324809F013FCA8B1FD
:105AE000394B1B784BB3394C227832B9384B1B7881
:105AF0001BB93849174809F0FBFB237833B1344B05
:105B00001B781BB13449134809F0F2FB334925488F
:105B100009F0F8FB30B1324B1B781BB931490D4805
:105B200009F0E6FB30491F4809F0ECFB68B12F494A
:105B30006BE72F49BFE72F49CAE72F49E3E72F4912
:105B400063E72F4961E72F495FE710BD0408002094
:105B5000017E01009406002058060020BC040020AD
:105B6000197E0100E90500202C7E0100B00700200D
:105B70003F7E01000D080020537E01001106002029
:105B8000677E0100A3060020797E0100070800203F
:105B90008B7E0100A0060020A37E0100ED7C0100A9
:105BA000557F01004C060020F97C0100D77D0100E3
:105BB000FD070020057D0100C37D010030060020A7
:105BC000C67E0100BE7D01001C060020D00400201E
:105BD000F8040020DF7E0100E87E0100F87B010070
:105BE00025060020097F0100497F0100157F010083
:105BF000B67E0100D07E0100FB7E0100F47C010036
:105C00002A7F0100377F01002DE9F74F019100281D
:105C10004ED05D4CD4E9008900220023404649461D
:105C20000DF01CF90022002306460F460DF0A6FBDE
:105C3000A34610B907F100431F46DFF868A1DAE96F
:105C4000004542464B46204629460CF04FFF0022B5
:105C50000023804689460DF091FB10B909F10043FD
:105C6000994642464B46304639460DF07DFB90B191
:105C700000220023204629460DF080FB00286BD02F
:105C80003DA3D3E90023204629460DF077FB10B150
:105C90003E4B1B7863B102F003FE3D4802F022FE4A
:105CA0003C4B186802F02AFEDAE90023CBE9002316
:105CB000019B002B4DD0384CD4E9008900220023F1
:105CC000404649460DF0CAF80022002306460F461A
:105CD0000DF054FBA34610B907F100431F46DFF84F
:105CE000C8A0DAE9004542464B46204629460CF05A
:105CF000FDFE00220023804689460DF03FFB10B9CF
:105D000009F10043994642464B46304639460DF06C
:105D10002BFB88B100220023204629460DF02EFBE4
:105D200010B315A3D3E90023204629460DF026FB26
:105D300010B1164B1B7863B102F05AFE174802F0FF
:105D400079FE174B186802F081FEDAE90023CBE9EF
:105D5000002303B0BDE8F08F09A3D3E90023204658
:105D600029460DF0EDFA92E705A3D3E9002320467A
:105D700029460DF0E5FADBE70000000000E0754081
:105D80000000000000E075C0C0070020EA07002006
:105D90005943000010010020C8070020BD43000047
:105DA00014010020B0060020B8060020FFFFFFFF0E
:105DB0002DE9F041A04D09F02DFF2B68C01A0828ED
:105DC00044D9FFF751F99D4B9D49DFF8CC82D3E9C7
:105DD0000067D1E9000132463B460CF087FE0B46D6
:105DE00098490246D1E900010CF082FE964BC3E9C6
:105DF0000001964932463B46D1E900010CF076FE9F
:105E00000B4693490246D1E900010CF071FE914B1B
:105E1000C3E90001904802F0B1FA904802F0AEFAEE
:105E20008F4B5B7DA3B18F4BC8F800308E4BDFF8F2
:105E30006C825B7D002B7DD08A4BC8F8003001213D
:105E40000846FFF7E1FE09F0E5FE2860BDE8F081B5
:105E5000864B874CD3E90067864B1B78E3B9C4E9CE
:105E600000678549854809F04DFAD4E900670028A4
:105E70004DD000220023304639460DF061FAD8B9E2
:105E800067A3D3E90023304639460DF077FAA8B16D
:105E900063A7D7E9006711E0794B18680CF074FF2D
:105EA000784BD3E900230CF0D9FF32463B460CF087
:105EB0001FFEC4E90001D4E700260027C4E90067FB
:105EC000D4E9006700220023304639460DF02EFA4F
:105ED0000028A8D132463B4653A1D1E900010DF07C
:105EE000E7F80022684B0DF0E3F800220023064695
:105EF0000F460DF043FAB8B1644B002230463946E4
:105F00000CF0ACFF0DF05AFAC8F800008EE748A379
:105F1000D3E90023304639460DF012FA0028AFD0FD
:105F200043A7D7E90067C9E7304607F100410022DF
:105F3000564BE5E7564B574CD3E900674D4B1B7862
:105F4000E3B9C4E900674C494C4809F0DBF9D4E9EE
:105F5000006700284ED000220023304639460DF05D
:105F6000EFF9D8B92EA3D3E90023304639460DF016
:105F700005FAA8B12AA7D7E9006711E0404B1868D5
:105F80000CF002FF3F4BD3E900230CF067FF3246D1
:105F90003B460CF0ADFDC4E90001D4E70026002724
:105FA000C4E90067D4E9006700220023304639467F
:105FB0000DF0BCF900287FF43FAF32463B461AA1F2
:105FC000D1E900010DF074F800222F4B0DF070F8AC
:105FD0000022002306460F460DF0D0F9B8B12B4B36
:105FE0000022304639460CF039FF0DF0E7F9C8F8C9
:105FF000000024E70EA3D3E90023304639460DF014
:106000009FF90028AED00AA7D7E90067C8E7304655
:1060100007F1004100221D4BE5E700BFAFF3008010
:10602000000000000044A64000000000389C8C41A5
:10603000000000000044A6C0E0070020180800206F
:10604000F005002078080020C0040020F80500209A
:1060500080080020C8040020C00600203807002067
:106060007800002000E1F505C0000020D8040020E1
:10607000B006002030060020497F01004C060020B9
:1060800048060020A8060020000059400000E03F1C
:10609000E0040020B80600201001002014010020B8
:1060A0002DE9F8434C4C09F0B5FD2368C01A0828C7
:1060B00078D9FEF7D9FF494B49494A4DD3E90067E2
:1060C000D1E9000132463B460CF010FD464BC3E9D6
:1060D0000001464932463B46D1E900010CF006FD7D
:1060E000434BC3E90001434802F048F9424802F03B
:1060F00045F9424BD3E90089414BC3E90089414B43
:10610000D3E90067404B0022C3E900674046002303
:1061100049460DF00BF900284CD142464B462CA1C4
:10612000D1E900010CF0C4FF0022384B0CF0C0FF95
:1061300000220023804689460DF020F9A0B3344B9D
:106140000022404649460CF089FE0DF037F92860E0
:1061500000220023304639460DF0E8F82D4D90BB63
:1061600032463B461AA1D1E900010CF0A1FF002202
:10617000264B0CF09DFF0022002306460F460DF033
:10618000FDF8D0B1224B0022304639460CF066FEB5
:106190000DF014F9286001210846FFF735FD09F0DC
:1061A00039FD2060BDE8F883404609F10041002236
:1061B000174BC8E7184B2B60CAE7304607F1004180
:1061C0000022134BE2E7144B2B60E4E7AFF30080AF
:1061D00000000000389C8C41E007002038060020B9
:1061E000F005002010010020C0040020F805002068
:1061F000C8040020C006002038070020D804002072
:10620000B0060020E0040020B8060020000059403D
:106210000000E03F1401002000E1F5052DE9F843FE
:10622000089C0F4691461E46054630B3264A274B2A
:10623000274993FBF4F34846002BCCBF254B264B54
:1062400093FBF4F3136009F05DF8DFF8A48050B11C
:10625000224B0022C8E9002387B939460120BDE856
:10626000F843FFF7D1BC1E49484609F04BF800221D
:1062700008B11C4BEEE70023ECE711B3134B93FB83
:10628000F4F3002BCCBF134B134B93FBF4F4164BDE
:106290000F491C60304609F035F8144C38B10F4BEB
:1062A0000022C4E9002365B901212846D7E70C493B
:1062B000304609F027F8002208B10A4BF1E7002325
:1062C000EFE70121CAE700BF10010020C027090045
:1062D000107D0100E0930400206CFBFF0000F03F04
:1062E000B17E01000000F0BF14010020B8060020BC
:1062F000B006002010B50C4620B102F0D1FA054BD3
:10630000054A1A6024B102F073FB044B024A1A607A
:1063100010BD00BF1001002000E1F50514010020B0
:10632000012110B50846FFF7E5FF1B491B48002275
:106330000023C1E900231A49C1E900231949C1E931
:1063400000231949C1E900231849C1E9002318496C
:10635000C1E900231749C1E900231749C1E9002316
:106360001649C1E90023164908F0C2FF154B002465
:106370001C70154B5C75154B5C75154B1C70154BE3
:106380001C70154B1C70154B1C6009F043FC144B22
:106390001860144B1C7010BD900500204C060020A6
:1063A000980500202008002018080020380600204A
:1063B00028060020F0070020C0040020C8040020A8
:1063C000B68201002506002078000020C0000020D1
:1063D00078050020D0040020F80400205008002098
:1063E0006C0800202406002030B51A4D1A4C2B787A
:1063F00089B0FBB9194902A808F05BFF174905A845
:1064000008F057FF012140F24A2302AA08460093F0
:1064100005ABFFF703FF05A808F000FF02A808F08E
:10642000FDFE01230E490F482B7008F0D1FD09F045
:10643000F1FB206009F0EEFB2368C01A42F21073F2
:10644000984204D9084B01221A70FFF769FF09B07E
:1064500030BD00BF2406002018060020107D01007A
:10646000A77D0100A8160020FC070020FFFFFFFF0A
:10647000274938B5D1E900011DA3D3E900230CF069
:1064800069FF40B123491AA3D3E90023D1E90001F0
:106490000CF060FFB0B9204917A3D3E90023D1E97C
:1064A00000010CF025FB0022002304460D460CF0F1
:1064B00065FF70B112A3D3E90023204629460CF0F2
:1064C0003FFF70B1154B01221A70BDE83840FFF74D
:1064D00027BF0DA3D3E90023204629460CF04EFF29
:1064E000EFE7BDE83840FEF76BBA00BFAFF30080BE
:1064F0009A9999999999C93F9A9999999999A93F7E
:10650000FCA9F1D24D62503FFCA9F1D24D6250BFBF
:1065100090000020D800002018080020FC07002070
:1065200038B5114B5B7AEBB109F074FB0F4B1B686C
:10653000C01A0F4B1B68984214D90E4C22788AB9A6
:106540000D4B01251D7009F065FB0C4B0C491860C3
:106550000C48FDF765FF18B10B4B1D70FFF788FF66
:106560000123237038BD00BFB00500207008002053
:1065700028010020740800201D06002020060020AD
:10658000497F01004C060020A006002090ED000B82
:10659000F8B5022180ED0A0B0546154808F034FED7
:1065A000D5E90A6700220023304639460CF0E6FEA2
:1065B0004FF00104002298B10E4B304639460CF0E2
:1065C000DDFE00B90446E4B284B100220023C5E92F
:1065D0000A23094B01221A70BDE8F840FFF748BFB3
:1065E000064B304639460CF0ABFEEAE7F8BD00BF7B
:1065F000A816002000000440B0070020000004C0DE
:106600002DE97043D0E90089414D04463CA3D3E90C
:106610000023404649462E680CF0B0FE00283BD0CF
:1066200039A3D3E90023404649460CF089FE0028EF
:1066300032D0A36801330022B342A360C4E903222D
:1066400004DB73232375A368B34207DAE368B3421C
:1066500004DA2369B342BCBF6623237509F0DAFA72
:106660002C4B1B68C01A41F28833984235D92A490D
:106670002A4808F047FE50B3294B1B786BBB94F9AE
:106680001430702B30D10121264B08461970FFF7CA
:1066900031FEFFF7EDFE2CE019A3D3E900234046BD
:1066A00049460CF057FE48B1E36801330022B3427B
:1066B000E3602261A260C6DB6E23C3E72369A060AA
:1066C0000133B342C4E90303BDDB7023BAE71649C3
:1066D000124808F017FE0028CED114490F4808F0E0
:1066E00011FE50B1142305E06E2B02D12B68052B4F
:1066F000C9D10A232B60BDE870830523FAE700BFE8
:106700007B14AE47E17A84BF7B14AE47E17A843FC5
:106710000400002010080020F47C010094060020F2
:10672000580600200D080020017E0100ED7C0100CC
:106730002DE9F0472E4C09F06DFA2368C01A132892
:106740004DD92C4F2C4D2D4EDFF8BCA0D5E90023A0
:10675000D7E900010CF0CAF98946804609F05AFAD7
:106760002368C01A0CF000FB1FA3D3E900230CF030
:1067700075FB02460B46404649460CF099FCD7E9AA
:1067800000231F4FC5E90023C6E90001D7E9002314
:10679000DAE900010CF0AAF98946804609F03AFAD4
:1067A0002368184DC01A0CF0DFFA0FA3D3E90023B9
:1067B0000CF054FB02460B46404649460CF078FC70
:1067C000DAE90023C5E900013046C7E90023FFF7F5
:1067D00017FF2846FFF714FF09F01CFA2060BDE8F8
:1067E000F08700BFAFF300807A88ED07E879F13ECB
:1067F000E4070020F0050020780600207800002043
:1068000080060020C0000020F80500204A4B2DE93A
:10681000F74FDFF854B1DFF854A1D3E90067DBE9A3
:106820000001464B9AED007BD3E9004532463B46DA
:106830008DED007B0CF05CF92246804689462B46A4
:10684000DDE900010CF054F902460B46404649468A
:106850000CF04CF9002200230CF090FDDBE9002342
:10686000DAE90089002834D0304639460CF040F986
:10687000424606460F464B46204629460CF038F95C
:1068800002460B46304639460CF030F902460B46BC
:106890002B492C4D2C4CC1E900232C49D1E9000196
:1068A0000CF04EFD58B32A4B1B7843BB29492A48AC
:1068B000FDF7B6FD18B3294B1B7803BB284B1B789B
:1068C000EBB92B781BBB09F0A5F9012320602B70D5
:1068D0001AE0304639460CF00BF9424606460F46A0
:1068E0004B46204629460CF003F902460B4630463B
:1068F00039460CF0FBF8024601F10043C8E70023DB
:106900002B7009F087F9206003B0BDE8F08F09F023
:1069100081F92368C01A6328F6D9124C2378002B1A
:10692000F2D101210846FFF7E5FC0123237003B0F3
:10693000BDE8F04FFFF79CBD7808002080080020DC
:10694000E0050020E8050020EC05002040000020C4
:1069500025060020557F01004C060020EA07002094
:1069600058060020E9050020F0050020F805002069
:10697000544B2DE9F047D3E90045534BDFF87C81B8
:10698000D3E9006722462B46D8E900010CF0AEF8A7
:1069900032463B460CF0ACF8002200230CF0EEFC33
:1069A00022462B46002859D0D8E900010CF09EF869
:1069B00032463B460CF09CF806460F46434BDFF848
:1069C00040A1C3E90067424BD3E9008922462B4628
:1069D000DAE900010CF08AF842464B460CF088F8E0
:1069E000002200230CF0CAFC22462B46002841D08E
:1069F000DAE900010CF07AF842464B460CF078F8E0
:106A000004460D46334BC3E90045334BD3E90089B7
:106A100032463B46404649460CF092FC2F4F304EE2
:106A200030B922462B46404649460CF089FC68B3F3
:106A30002C4B1B7853BB2C492C48FDF7F1FC28B399
:106A40002B4B1B7813BB2B4B1B78FBB93B7823BB21
:106A500009F0E0F8012330603B701CE0D8E9000148
:106A60000CF044F832463B460CF042F8064601F181
:106A70000047A3E7DAE900010CF038F842464B463C
:106A80000CF036F8044601F10045BBE700233B70EB
:106A900009F0C0F83060BDE8F08709F0BBF8336852
:106AA000C01AB0F5FA7FF6D3134C2378002BF2D13D
:106AB00001210846FFF71EFC01232370BDE8F047C3
:106AC000FFF7D6BC18080020780800200006002038
:106AD0008008002008060020480000201006002042
:106AE0001406002025060020557F01004C060020DA
:106AF000EA0700205806002011060020F0050020BB
:106B0000F80500201D4B1B7810B51D4C002B32D111
:106B10001C491D4B0022D1E900010CF02FFC38B9B3
:106B20001A49194B0022D1E900010CF027FC10B3DF
:106B3000174B1B78FBB923782BB909F06BF8154B71
:106B40001860012323702378BBB109F063F8114B5F
:106B50001B68C01A47F2305398420ED90E4C237866
:106B60005BB901210846FFF7C5FB01232370BDE88F
:106B70001040FFF77DBC0023237010BD30060020BD
:106B80000C0800209000002000000440D8000020E5
:106B900058060020080800200708002070B50A20C9
:106BA0002E4C2F4E08F070FF22788242054602D00C
:106BB00009F030F8306009F02DF833682A1CA0EB9A
:106BC000030018BF0122282804D9264B1978A942AE
:106BD00018BF1A7022700B20234C244E08F054FF6B
:106BE00022788242054602D009F014F8306009F09C
:106BF00011F833682A1CA0EB030018BF01222828D3
:106C000004D91B4B1978A94218BF1A70194D22706C
:106C10002A7812BB134B1B7813B1154B1B78E3B9C1
:106C2000154B1B78CBB915491548FDF7F9FBA0B1F9
:106C3000144B1B788BB1144B1B7873B90124134987
:106C40000F482C70FDF7ECFB38B121462046FFF7CA
:106C500051FBBDE87040FFF70BBC70BD6100002028
:106C6000640600200000002062000020680600206A
:106C700001000020BC04002025060020557F0100F3
:106C80004C06002004080020EA070020497F01008C
:106C900070B5013888B0032805D8DFE810F00A0085
:106CA0007F015A02A30201210846FFF723FB08B027
:106CB00070BD8D4C8D4E2368002B34D18C4B8D498B
:106CC0000020C3E900018C4B8C490020C3E900017E
:106CD0008B4B8C498C4801251D7008F009FBFDF792
:106CE0004FFFFFF765F808F095FF884B1B68C01A47
:106CF000B0F5C87F17D3864996F9143091F914205E
:106D0000732B08BF7575732A40F0DA8001224A752B
:106D10006E2B08D17F4B8049804801221A7008F001
:106D200057F9FFF7A5FB737D002B4DD0784B5B7DAA
:106D3000002B49D02368002B46D1794A794D002099
:106D40000021C2E90001784AC2E90001774AC2E99C
:106D50000001774AC2E90001654AC2E90001754AAB
:106D6000C2E90001644AC2E90001734AC2E90001B4
:106D7000724AC2E9000101222A70714D2B70714DD7
:106D80002B70714D2B70634D2B70704D2B70704DAF
:106D90002B70704D2B70704D2B70704D2B70704D93
:106DA0002B70704D2B70704D2B70704D2B70704B85
:106DB000C3E90A016F4BC3E90A0111461046FFF708
:106DC00099FA23680133236023686B4D012B05D1A9
:106DD00008F020FF236828600133236008F01AFFC1
:106DE0002B68C01A0BF0C0FF39A3D3E900230CF0C5
:106DF000BBFA00282FD02368022B2CD15F4B1B78C5
:106E00002BB95B48FFF7C2FB5A48FFF7BFFB444969
:106E100000220023C1E900234349C1E9002308F00F
:106E2000F9FE2368286001335549236002A808F061
:106E300040FA534905A808F03CFA0121C823084646
:106E4000009302AA05ABFFF7E9F905A808F0E6F9F7
:106E500002A808F0E3F908F0DDFE2B68C01A0BF079
:106E600083FF0022474B0CF07FFA00283FF41FAF4E
:106E70002368032B7FF41BAF01210846FFF73AFA82
:106E80004149214808F034FA13A1D1E900011A4B15
:106E9000C3E9000112A1D1E90001154BC3E90001CA
:106EA0003A4B00251D7008F0B5FE394B757518601A
:106EB000384B25601D70164B5D75374B1D70F6E61F
:106EC0006E2B3FF427AF6E2A23E700BFAFF300809D
:106ED0000000000000709740CDCCCCCCCCCCDC3F87
:106EE0009A9999999999A9BF500800207800002093
:106EF0003806002000002440F00700200000144065
:106F000030060020F87B01004C0600206C080020B1
:106F1000C0000020A0060020B07C0100A8160020C0
:106F2000900500200408002098050020200800207B
:106F30001808002028060020C0040020C8040020F3
:106F4000E905002011060020A30600200708002004
:106F50000D080020B0070020BC040020FC07002022
:106F60002406002078050020D0040020F80400202A
:106F700090000020D8000020D4070020020000204C
:106F8000B17E010000409F40557F0100600000205D
:106F9000E00700202001002025060020744C6EA38D
:106FA000D3E90023D4E900010CF0E8F938B97149BC
:106FB00000220023D1E900010CF0CCF930B16E4B76
:106FC000D3E90023C4E90023FDF780FD6B496C4839
:106FD00008F098F938B16B4B1A786B4B1A70FDF7C3
:106FE000CFFDFEF7E5FE6949654808F08BF938B337
:106FF000674B1A78644B1A70664B197811B90AB14D
:1070000001221A70644956A3D3E90023D1E9000193
:107010000BF06EFD614BD3E900230CF091F950B1F8
:10702000554BD3E90023C4E90023FDF74FFD5C492C
:107030005C4807F0CDFFFDF7A3FDFEF7B9FE05E0C4
:1070400059494F4808F05EF90028D1D157494C48BA
:1070500008F058F9002833D0504BD4E90001D3E9A7
:1070600000230CF081F9002862D0474B01221A70EE
:1070700008F0D0FD4E4B1B68C01A40F2ED23984239
:107080001AD94C494C4B0022D1E900010CF076F999
:1070900090B14A4B93F91430702B04D1484B93F9BB
:1070A0001430702B08D0474B47493E4801221A70D4
:1070B00007F08EFFFFF7DCF9FDF762FDFEF778FEC3
:1070C00042492F4808F01EF918B3414926A3D3E9D5
:1070D0000023D1E900010CF051F940B93D4922A348
:1070E000D3E90023D1E900010CF048F958B33A4B39
:1070F0001B782BBB294BD4E90001D3E900230CF00A
:1071000033F9E8B1204B01221A70FDF739FDFEF783
:107110004FFE32491A4808F0F5F800283FF4C7AD91
:10712000194B01221A70FDF72BFDFEF741FEBEE55B
:10713000114BD3E90023C4E90023FDF7C7FCBBE7EB
:10714000FFF752F9E5E7264B01221A70FFF7E8F83E
:10715000DFE7FEF7A5FFAAE59A9999999999A9BF42
:107160002D431CEBE2361A3F9A9999999999C93F98
:1071700038060020F007002040060020D77D0100DF
:107180004C060020FD07002030060020C37D0100D2
:107190001C06002080050020180000201808002090
:1071A000BE7C0100A8160020BE7D0100F87B010016
:1071B00068080020280600200000F83F7800002022
:1071C000C0000020A0060020D07C0100497F010003
:1071D00090000020D8000020BC040020557F010052
:1071E000FC070020294C2278D2B9294D2E78BEB94F
:1071F000284902A808F05DF8274905A808F059F8C1
:10720000782302AA31460093012005ABFFF706F868
:1072100005A808F003F802A808F000F801232B7075
:1072200023783BB101F03CFB1C4B1D4A1A60184B04
:1072300000221A701B4C2278D2B91B4D2E78BEB991
:10724000154902A808F035F8124905A808F031F8E8
:10725000782302AA01210093304605ABFEF7DEFF3A
:1072600005A807F0DBFF02A807F0D8FF01232B7069
:107270002378002B3FF41BAD01F0BAFB0B4B084AFF
:107280001A60094B00221A7011E500BF200000208F
:10729000E8070020B17E0100B68201001001002045
:1072A00000E1F50521000020E9070020140100207D
:1072B00038B5684C08F0AEFC2368C01AC72840F205
:1072C000C88008F0A7FC644920606448644C654DA0
:1072D00007F06FFE6449614807F066FE63495F4846
:1072E00007F067FE624B5D4893ED000B042107F049
:1072F00089FF6049594807F05CFE5F4B574893EDA2
:10730000000B042107F07EFF5C49544807F051FE52
:107310005B4B524893ED000B042107F073FF594972
:107320004E4807F046FE584B4C4893ED000B0121A8
:1073300007F068FF5549494807F03BFE94ED000B04
:107340000421464807F05EFF5149444807F031FEEA
:1073500095ED000B0321414807F054FF4D493F488C
:1073600007F027FE4C4B3D4893ED000B012107F041
:1073700049FF4A49394807F01CFE494B37481978FC
:107380000A2207F06FFE4749344807F012FE464BC9
:10739000324819780A2207F065FE44492F4807F061
:1073A00008FE434B2D4819780A2281F0010107F0AD
:1073B00059FE4049294807F0FCFDD5E90023D4E9EE
:1073C00000010BF093FB0022002304460D460BF056
:1073D000D5FF10B905F100431D46374B1F4845EC5A
:1073E000104B0321C3E9004507F00CFF33491B484C
:1073F00007F0DFFD324B194893ED000B012107F038
:1074000001FF3049154807F0D4FD2F4B134893ED89
:10741000000B012107F0F6FE2C49104807F0C9FDCA
:107420002B4B0E4819780A2207F01CFE294B1B78BB
:107430004BB12949094807F0BCFD284B074819689A
:107440000A2207F011FE26490448BDE8384007F03B
:10745000BFBD38BDDC070020137D0100A816002049
:107460001808002038060020940600201C7D01002A
:10747000F0050020247D0100F80500202C7D01008E
:10748000E0050020327D010028060020387D010043
:10749000437D01004E7D0100F00700205A7D010070
:1074A00020000020627D0100210000206A7D010093
:1074B00050000020717D0100D80500207B7D010077
:1074C00090000020837D0100D80000208B7D01000A
:1074D000BC04002002000020957D010088060020E9
:1074E0009C7D010038B5174C174D1849204607F010
:1074F00060FD95ED000B0121204607F083FE7C2105
:10750000204607F05AFD0A22297A204607F0AAFDF4
:107510007C21204607F051FD0A22697A204607F0B7
:10752000A1FD7C21204607F048FD032195ED040BC9
:10753000204607F067FE20460549BDE8384007F0C1
:1075400047BD00BFA8160020B00500209E7D0100A9
:107550009C7D010010B5184C1849204607F029FD04
:10756000174B042193ED000B204607F04BFE7C21C6
:10757000204607F022FD134B0A221978204607F017
:1075800071FD7C21204607F018FD0F4B012193ED82
:10759000000B204607F036FE7C21204607F00DFD4B
:1075A0000A4B204619780A2207F05CFD204608495C
:1075B000BDE8104007F00CBDA8160020FA7D0100C0
:1075C00018000020A106002038080020EA0700204B
:1075D0009C7D010038B5444C2378002B35D0434BBB
:1075E0001B78002B31D1424B4249D3E90045D1E908
:1075F000000122462B460BF0C1FE38B93E4B204617
:10760000D3E9002329460BF09BFED0B13B4D3C4C07
:107610002B78002B3BD008F0FDFA2368C01A394BB9
:107620001B68984210D3384B1B786BB90121084670
:10763000FEF760FE344B01221A70BDE83840FEF7B9
:1076400017BF2E4B00221A7038BD3049304807F062
:1076500059FE10B3254B1B782BBB23781BBB2D4B3E
:107660002449D3E90045D1E9000122462B460BF01D
:1076700085FE40B9204B2046D3E9002329460BF074
:107680005FFE0028DDD01D4D1D4C2B78C3B908F0DE
:10769000C1FA012320602B70D6E71F491C4807F070
:1076A00031FE0028D6D11D4B1B78002BD7D1237873
:1076B000002BC9D10D4B1B78002BC5D1184B93E77C
:1076C00008F0A8FA2368C01A0E4B1B689842BBD377
:1076D0000D4B1A78002AB7D1104B19780029A5D084
:1076E0001A70FFF737FFA1E7A10600205806002017
:1076F0003808002090000020D8000020A2060020BA
:10770000A406002014050020A3060020D77D010058
:107710004C06002070000020557F0100EA07002081
:10772000B005002008B5144B1B781BB308F072FAA3
:10773000124B1B68C01A41F28833984214D9104981
:10774000104807F045FC01210846FEF7D3FDBFF3C2
:107750004F8F0D490D4BCA6802F4E0621343CB60B2
:10776000BFF34F8F00BFFDE709490A48FCF758FEF9
:107770000028E4D108BD00BF1D060020200600201F
:107780003F7F0100A816002000ED00E00400FA058C
:10779000497F01004C06002010B5114C2278F2B14F
:1077A00008F038FA0F4B1B68C01A41F28833984230
:1077B0000FD901210846FEF79DFDFEF7B1FD00231C
:1077C000094A237009490A481370BDE8104007F0C0
:1077D000FFBB08490848FCF723FE0028E9D110BD8B
:1077E000FE070020000800208C0500205A7F0100C1
:1077F000A8160020497F01004C0600202DE9F04F1B
:1078000085B00DF11008002348F8083D0F46914659
:107810001446182601F06EFB4246394601F0FDFB86
:10782000012821D1029DB54228BF354604EB050A47
:10783000A7EB040B544504EB0B030DD014F8011B0C
:10784000019103A80393FCF7F2FD01998142F1D065
:1078500003A8FCF705FEEDE7761B2F4401F04AFB79
:1078600001F0A3FB002ED5D1484605B0BDE8F08F4E
:1078700037B502AC002544F8045D2046FCF7D7FD7F
:10788000AA280ED0094A0A480121FFF7B7FFAA210A
:1078900020460195FCF7E4FD0648FCF7D1FD03B056
:1078A00030BD0448FCF7CCFD0348F6E72800002073
:1078B00018050020B005002038080020FFFFFFFF5A
:1078C00010B52DED068B9FED20AB9FED219BB0EE0B
:1078D0004A2AF0EE6A2A9FED208BB0EE491AF0EEAC
:1078E000691A82B00024B0EE480AF0EE680A0094EB
:1078F0001B4B1C4A1C491D4800F06AFFB0EE4A2A87
:10790000F0EE6A2AB0EE491AF0EE691AB0EE480AB3
:10791000F0EE680A164B174A00941749174800F012
:1079200057FF1749174807F0C4FC1749174807F0D5
:10793000C0FC174B174A1B680333136002B0BDEC41
:10794000068B10BDAFF300800000000000000000B7
:1079500000000000004CFD40000000000088E340F3
:1079600000050020D8040020C0040020C00600202C
:1079700008050020E0040020C8040020380700208B
:10798000B68201004C060020017E01009406002012
:10799000080100201405002008B5044807F03EFC4B
:1079A0000348BDE8084007F039BC00BF940600203A
:1079B0004C060020FFFFFFFF38B56B4D6B4C2DEDE3
:1079C000068B9FED5F8B9FED60AB9FED619B01216F
:1079D000284600F084FEB0EE482AF0EE682AB0EEA9
:1079E0004A1AF0EE6A1AB0EE490AF0EE690A284621
:1079F00000F0DCFD2846072100F0DBFD5C4B012197
:107A0000204683ED008B00F06AFEB0EE482AF0EECF
:107A1000682AB0EE4A1AF0EE6A1AB0EE490AF0EEA1
:107A2000690A204600F0C2FD2046072100F0C1FD92
:107A3000504B02210C2083ED008B08F001F802214D
:107A4000082007F0FDFF082006F061FC02224A49E9
:107A500006F0CEFC0C2006F05AFC0222474906F044
:107A6000C7FC0221084607F0EBFF0221032007F0C4
:107A7000E7FF022006F04BFC0222414906F0B8FC69
:107A8000032006F044FC02223E4906F0B1FC01212D
:107A90000E2007F0D5FF9FED309B9FED318B01212C
:107AA000112007F0CDFF0121072007F0C9FF0121B8
:107AB000092007F0C5FFB0EE491AF0EE691AB0EEE2
:107AC000480AF0EE680A284600F099FDB0EE491A1F
:107AD000F0EE691AB0EE480AF0EE680A20462A4C29
:107AE00000F08DFD204600F087FE204600F02CFFC0
:107AF00001210846FEF7FEFB0221042007F0A0FF4B
:107B00000221052007F09CFF0221062007F098FFC4
:107B100000210A2007F094FF00210B2007F090FFBE
:107B2000FFF7A6FE042007F013F8BDEC068B4FF418
:107B3000E1311648BDE838400AF05FBCAFF3008081
:107B4000000000000000000000000000004CFD40AC
:107B5000000000000088E3400000000000005940E1
:107B600000000000000059C0C006002038070020B7
:107B70000005002008050020014100009941000097
:107B800031420000C542000040420F00A81600200C
:107B9000F0B52DED028B9F4883B00AF03FFC58B141
:107BA0009C480AF09DFC40B23C289B4B08D1012226
:107BB0001A709A4B00221A6003B0BDEC028BF0BD24
:107BC0003E2840F0A98200221A70944B944E954DA5
:107BD0001B682968F25430460CF027FD924C50B1D6
:107BE0002378002B40D091498A4807F0E2F93146CA
:107BF000884807F0EDF9296889480CF016FDA8B906
:107C000025787DB901238A498248237007F0E0F97D
:107C1000FFF768FCFFF79EFC864B4FF4FA701D706F
:107C200007F0B4FF07F0F6FF834B18602378002BB2
:107C3000C2D082497A480CF0F8FC00282ED1804945
:107C4000804807F05FFB88B17F4B8049D3E9002370
:107C5000C1E900237E49C1E9002303B0BDEC028BDA
:107C6000BDE8F040FCF732BF7A49C1E77A49754870
:107C700007F048FB0028E7D17849724807F042FB3B
:107C80000028E1D176496F4807F03CFB0028DBD1A2
:107C900074496C4807F036FB0028D5D1724960481A
:107CA0000CF0C3FC002833D070495D480CF0BDFCDB
:107CB00000282DD06E495A480CF0B7FC002838D067
:107CC0006C4957480CF0B1FC002832D004226A49B4
:107CD00053480CF0BCFC002862D0684950480CF0B6
:107CE000A4FC002840F08980654B01221A70654B86
:107CF0001A7812B11870FFF72DFC4E4B1B78002B31
:107D000077D003B0BDEC028BBDE8F040FEF7B0BB0E
:107D1000554943480CF089FC5B4B40B901221A706D
:107D200003B0BDEC028BBDE8F040FFF713BC0022AE
:107D3000F5E74F493A480CF078FC0446D0B14D497C
:107D400037480CF072FC044600287FF435AF4D4BE9
:107D50001870FFF7FFFB01210846FEF7CBFA4B4BEB
:107D60001C704B4B1C7003B0BDEC028BBDE8F040A7
:107D7000FEF7D6BA4749334807F0C4FA0028DED0E8
:107D8000454B1B78002BDAD0444B1B78002BD6D008
:107D90003C4B01221A703A4B1C70414B1C70BFE7E0
:107DA00040480BF0A4FD51EC100B0BF027FB364BB9
:107DB0001B7808EE100A002B3FF4FEAE0AF0F6FF27
:107DC000394BD3E9004522462B4606460F460BF0B9
:107DD000B7FA50B9F2EE097AB4EEE78AF1EE10FA8A
:107DE000CDBF324D34463D460024314BC3E90045FA
:107DF00096E7304B01221A70DEE62F4908480CF056
:107E000014FC00285AD103B0BDEC028BBDE8F04051
:107E1000FFF768BBA8160020390500203C050020AC
:107E200019050020240100208C050020007C0100A1
:107E3000287C01000408002070080020357C010027
:107E4000FB7E010094060020180800203806002060
:107E500020080020127C0100B67E0100F47C0100A5
:107E6000D07E0100097F01003C7C0100497C0100BB
:107E7000577C0100657C0100747C0100797C010065
:107E8000A0060020EA070020A1060020E807002045
:107E9000E9070020A37E010020000020210000202F
:107EA000A30600201D0500207000002000002940CE
:107EB00038080020FC0700207E7C0100A449A5486A
:107EC0000CF0B3FB00283FF42BAFA34BA14819687B
:107ED0000CF0ABFB88B9A14B01221A7007F09AFE97
:107EE0009F4B18609F49A048FCF79AFA00283FF47E
:107EF00063AE9E4B01221A7003E79D4B95481968AB
:107F00000CF093FB30B99B4B01221A7007F082FEF4
:107F1000994BE6E799498F480CF087FB10B9984BCD
:107F20001B78CBB197498B4803220CF090FB01469C
:107F3000002850D00322944986480CF088FB002882
:107F40005ED192480BF0D3FC914A82ED000B0121E7
:107F50009048FFF753FC56E78F4B9049D3E9004513
:107F6000D1E9000122462B460BF008FA40B98C4BB0
:107F70002046D3E9002329460BF0E2F9044640B13C
:107F80008849894803B0BDEC028BBDE8F04007F09A
:107F90001FB8864B01221A70854BD3E90001854B2F
:107FA000C3E90001844BD3E90001844BC3E900011C
:107FB000834B1C70834BD3E90001834BC3E9000161
:107FC00007F028FE814B186007F024FE804B1860F4
:107FD000804B1C60F0E56D480DF05EF956A3D3E9C7
:107FE000002351EC100B8DED000B0BF0B3F90028C2
:107FF0003FF496AE9DED000B774B83ED000B8FE6C3
:108000000322764953480CF022FB40B95F480BF03D
:1080100071FC5F4A003018BF0120107297E70322FD
:108020006F494C480CF013FB40B958480BF062FC08
:10803000574A003018BF0120507288E7032269496F
:1080400044480CF004FB48B95048514C0BF052FC2A
:108050000AF09AFE2246C4E9040178E762496348BF
:1080600007F050F900283FF4A7AD614939480DF0F9
:1080700027F95F49054600200DF022F95C490446C6
:1080800000200DF01DF9064625B31CB3002128463B
:108090000DF002F92AA3D3E9002351EC100B0AF0EA
:1080A000DDFE41EC100B0BF0C9FB25A3D3E9002347
:1080B00051EC100B0AF0FCFF4E4BC3E9000100210C
:1080C00020460DF0E9F84C4B2748314683ED000B74
:1080D00007F00EF9494A00231370344A1AA1D1E976
:1080E00000011370464AC2E90001464AC2E9000194
:1080F000334A1370444A5375444A5375444B002124
:108100000020C3E9000107F085FD304B186007F03F
:1081100081FD404B18604FE51B78002B3FF44CADC0
:108120003D4A13681E2BDFBF0A49C8540133136050
:1081300042E500BFAFF300809A9999999999A9BF38
:1081400000000000006AF8407B14AE47E17A843FEB
:10815000817C010019050020540000201D0600202C
:1081600020060020497F01004C060020A0060020C8
:108170000C010020FE07002000080020847C010084
:10818000EA070020877C01009D7C01001C0500207F
:10819000B00500201805002070000020900000208D
:1081A000D80000208B7C0100A816002025060020A6
:1081B000F005002078060020F80500208006002049
:1081C000200100201808002020080020E0070020DF
:1081D0006C0800205008002018000020A17C01003D
:1081E000A57C0100A97C0100F47C0100940600201C
:1081F000AD7C010038060020F00700206000002060
:10820000B0060020B806002078000020C000002042
:1082100028060020680800203C05002030B5394CB5
:10822000237889B01BB107F0FBFC374B1860FFF7D0
:10823000AFFC364B1B78002B56D0FCF731FAFFF71A
:1082400037F8FEF7E3FA23780BB9FEF791FBFEF758
:108250006FFA2F4B07932F4B06932F4B05932F4B02
:1082600004932F4B03932F4B02932F4B01932F4BD0
:1082700000932F4A2F4B30493048314DFCF714F909
:10828000304B0793304B0693304B0593304B0493A0
:10829000304B0393304B0293304B0193304B314AB8
:1082A000314932480093324BFCF7FEF8FFF792F960
:1082B000FDF72AFBFCF75AFAFCF7CAFA2878FDF713
:1082C00097FBFDF705F9FCF7CBFBFEF729F9FEF765
:1082D00019FCFDF751FB2870FEF7DAFCFEF75EFC97
:1082E000FFF75AFAFFF71EFA237843B107F098FC1C
:1082F000204B1860044B1B68C01A1F4B186009B054
:1083000030BD00BF02000020900600208C05002038
:10831000987F0100687F0100A87F0100787F01003D
:10832000B87F0100887F0100C00600200006002001
:10833000A4050020E8040020EC040020E90400204B
:10834000A0050020A07F0100707F0100B07F010028
:10835000807F0100C07F0100907F0100380700206E
:1083600008060020A8050020F4040020F1040020E5
:10837000F00400208C060020880600202DE9F04F34
:1083800090F8705089B0044625B90025284609B0F8
:10839000BDE8F08F07F03EFC636CA26DC31A9A42F1
:1083A0008046F2D8A36B216C93ED007BD1E90001EC
:1083B00053EC172B8DED007B0AF098FBD4E91423C6
:1083C000CDE90401DDE900010AF090FBD4E90823BE
:1083D000CDE90601DDE904010AF040FDD4E91223EC
:1083E0000AF086FB94F8719006460F46C4E91267BE
:1083F000B9F1000F0DD1D4E90623DDE906010AF039
:108400002DFD02460B46304639460AF06FFBC4E9A3
:10841000120194ED127BD4E91AAB51EC170B5246C2
:108420005B468DED027B0AF0A9FF00283AD0C4E933
:1084300012ABB9F1000F42D0D4E90623DDE9040103
:108440000AF00CFD06460F46D4E90A23DDE90601D1
:108450000AF004FD02460B46D4E912010AF046FB7D
:1084600032463B460AF044FB06460F4602460B46A0
:10847000504659460AF064FF50B9D4E918AB324669
:108480003B46504659460AF079FF08B9B246BB460A
:108490009DED007BE36BC3E900AB84ED147BC4F876
:1084A000448073E7D4E91867DDE9020132463B46B0
:1084B0000AF046FF0028BCD0C4E91267B9E70026DD
:1084C0000027C1E72DE9F74F55EC104B82468B464C
:1084D0000022002310EE100A294659EC118B57ECAC
:1084E000126B0AF02DFF00285BD1002200234046CA
:1084F00049460AF025FF002853D1002200233046C8
:1085000039460AF01DFF00284BD10BF1FF33CAF8A2
:1085100034B0D3F1000B4BEB030BCAE90289CAE973
:1085200004678AF871B0CAE90045DAF858000AF021
:108530001BFC00221C4B0AF0BBFDCAE90645CDE935
:10854000000102460B46404649460AF087FC804639
:108550008946DDE9002330463946CAE908890AF030
:10856000A7FDDAF8303006460F46012BCAE90A6744
:1085700017D122462B46002000210AF0B7FA4246C6
:10858000CAE906014B46002000210AF0AFFA324644
:10859000CAE908013B46002000210AF0A7FACAE90F
:1085A0000A0103B0BDE8F08F00408F40416BFFF738
:1085B00089BFF8B50D1E044620DD28460AF0E4FB0D
:1085C0000646A06D0F460AF0CFFB02460B4630462A
:1085D00039460AF06DFD02460B4606460F46D4E9C1
:1085E00008010AF03BFC3246C4E908013B46D4E9E5
:1085F0000A010AF05DFDC4E90A01A565F8BD2DE98F
:10860000F84F55EC104B57EC116B824611EE102AC7
:108610003B4610EE100A29460AF0A6FE002837D184
:108620009AF87030CAE91845CAE91A67002B2FD0AA
:10863000DAF83CB0DBE90089304642464B46394621
:108640000AF07EFE78B1CBE90067DAE91267DAE971
:108650001A45304622462B4639460AF08FFE68B14D
:10866000CAE9124514E042464B46204629460AF024
:1086700085FE0028E9D0CBE90045E6E7DAE91845B0
:10868000304622462B4639460AF05AFE0028E7D1EA
:10869000BDE8F88FC36B2DE9D043D3E90067C0E98B
:1086A0001267836BD0E91A89D3E900230446C0E935
:1086B0001423394642464B4630460AF05FFE10B15D
:1086C000C4E9128909E0D4E91889304642464B468C
:1086D00039460AF035FE0028F2D1BDE8D0830129E1
:1086E00038B504460CBF0125002504D190F8703040
:1086F0000BB9FFF7CFFF84F8705038BD38B590F84C
:10870000703004460D46D3B1036B8B4217D0D0E9CD
:108710000623002100200AF0E9F9D4E90823C4E97E
:108720000601002000210AF0E1F9D4E90A23C4E996
:108730000801002000210AF0D9F9C4E90A012563E3
:1087400038BDFFFFFFFFFFFF10B52DED068BB0EE2C
:10875000408AF0EE608AB0EE419AF0EE619A0364CE
:108760000023C0E90E12B0EE42AAF0EE62AA80F831
:10877000703000220023C0E9182313A3D3E900239B
:10878000C0E91A236423044683650999FFF7B6FFFD
:10879000B0EE4A2AF0EE6A2AB0EE491AF0EE691AF3
:1087A0000899B0EE480AF0EE680A2046FFF78AFE04
:1087B00007F030FABDEC068BA36DC01A606420464A
:1087C00010BD00BFAFF300800000000000E06F406C
:1087D00037B5069D0195012500950446FFF7B4FFC6
:1087E000204603B030BDFFFF014B1B68184700BF98
:1087F0008C080020FFFFFFFF2DE9F341204F3C785C
:108800005CBB204B204D18600AF0AEFA02460B46C6
:1088100019A1D1E900010AF04BFC0AF0EFFDDFF8E5
:108820007C802C70C8F800002146284604F058FCD3
:10883000164E0028307014DB2B7893B900211448B1
:10884000009033782A780191DFED120A98ED000A42
:108850001148012404F0EAFC3C70204602B0BDE857
:10886000F0810121084804F03BFC00283070E5DA73
:10887000F3E700BFAFF300800000000080842E41CA
:1088800098080020D40800208808002090080020C4
:10889000E9870000000000009C08002094080020E8
:1088A000034B1B7813B1034804F043BD704700BF6E
:1088B000980800209C08002008B5084B1B7863B17D
:1088C00000220C21064804F005FE054804F00AFDCC
:1088D0000348BDE8084004F043BD08BD98080020E7
:1088E0009C080020034B1B781BB1034B1860FFF75B
:1088F000E3BF7047980800208C08002008B5064B9D
:108900001B7843B10AF030FABDE8084041EC100B87
:10891000024804F0B7BD08BD980800209C0800205C
:10892000014804F01BBB00BF9C080020014804F074
:1089300069BD00BF9C080020014B1B68184700BFA1
:10894000DC080020FFFFFFFF2DE9F341204F3C78BA
:108950005CBB204B204D18600AF006FA02460B461D
:1089600019A1D1E900010AF0A3FB0AF047FDDFF8E5
:108970007C802C70C8F800002146284604F0B0FB2B
:10898000164E0028307014DB2B7893B90021144860
:10899000009033782A780191DFED120A98ED000AF1
:1089A0001148012404F042FC3C70204602B0BDE8AE
:1089B000F0810121084804F093FB00283070E5DACB
:1089C000F3E700BFAFF300800000000080842E4179
:1089D000E808002024090020D8080020E008002032
:1089E0003989000000000000EC080020E4080020A5
:1089F000034B1B7813B1034804F09BBC704700BFC6
:108A0000E8080020EC08002008B5084B1B7863B18B
:108A100000220C21064804F05DFD054804F062FCCC
:108A20000348BDE8084004F09BBC08BDE8080020EE
:108A3000EC080020034B1B781BB1034B1860FFF7B9
:108A4000E3BF7047E8080020DC08002008B5064BAB
:108A50001B7843B10AF088F9BDE8084041EC100BDF
:108A6000024804F00FBD08BDE8080020EC08002013
:108A7000014804F073BA00BFEC080020014804F07C
:108A8000C1BC00BFEC080020012070472DE9D04F89
:108A90009B4603681B6B92460446DDE908899847AC
:108AA00002460B46504659460AF048FD134302D091
:108AB0000020BDE8D08F236820461B6B98470246F4
:108AC0000B46404649460AF039FD1343F0D123686E
:108AD0001AEB08069B6C20464BEB09079847B942F6
:108AE00008BFB0422CBF01200020E2E701682DE959
:108AF000F041C96B14461D460646884702460B46A0
:108B0000204629460AF01AFD134302D00020BDE892
:108B1000F081DDE90623A71845EB0308336817F158
:108B2000FF32D96B304648F1FF33884702460B4687
:108B3000384641460AF002FD1343E7D13368304618
:108B40009B6C9847414508BFB8422CBF01200020CC
:108B5000DDE72DE9D04F9B4603685B6B92460446E8
:108B6000DDE90889984702460B46504659460AF007
:108B7000E5FC134302D00020BDE8D08F23682046D7
:108B80005B6B984702460B46404649460AF0D6FCC6
:108B90001343F0D123681AEB08069B6C20464BEB7D
:108BA00009079847B94208BFB0422CBF01200020F6
:108BB000E2E700207047002070474FF0FF30704719
:108BC00003689B6B18477047704703681B6818471A
:108BD00003685B68184710B40468A468A4465DF88D
:108BE000044B604790F8803010B5044653B9036ACF
:108BF00043B100F16C013430984710B9012384F877
:108C0000803010BD0620FCE790F8803010B5044697
:108C10003BB1036B2BB134309847002384F880308C
:108C200010BD0620FCE7D0E906017047D0E9040139
:108C30007047FFFF00487047CD7F010010B58821C5
:108C4000044609F049FF204610BDFFFF16490162A6
:108C500030B51649164C41621649174A8162002503
:108C600016490260C0E9024500224FF40054002575
:108C7000C162134980F88020C0E9044501634FF4C4
:108C80008064FF21002580F86C200267C0E91D2266
:108C9000DF22C0E9064580F87C1080F87D2080F84E
:108CA0007E1080F87F2030BD29BE000029BB000067
:108CB0000000104065BC0000E07F0100ADBB00007B
:108CC000D1B8000010B50A4C2378BFF35B8FDB07E7
:108CD0000CD4204609F0E7FE40B10648FFF7B6FF86
:108CE000204609F0ECFE044806F0F8FE014810BDED
:108CF0002809002030090020C78B000083689A18DB
:108D000006D200690344934294BF002001207047BB
:108D1000002070472DE9F84F16461F46DDE90A236B
:108D200012F1FF3243F1FF3392197B4105468A4627
:108D3000FFF7E4FF98B332463B462846FFF7DEFFD5
:108D4000834660B349B395F88020D5F80880B2B95E
:108D50002A6828461268904704465146A8EB0A0044
:108D6000DDE90A890023A1EB0A024B4508BF424511
:108D700009D20B1833441B7801F8013BF0E74FF0A0
:108D8000000B0224E9E7BBF1000F03D02B68284653
:108D90005B6898472046BDE8F88F0224FAE7162062
:108DA000F9E72DE9F84F16461F46DDE90A2312F1CF
:108DB000FF3243F1FF3392197B4104468B46FFF7A4
:108DC0009DFF38B332463B462046FFF797FF0546E6
:108DD00000B394F88030CBB9236820461B689847CD
:108DE0008046D4F824A0BAF1000F07D0A2680A9BED
:108DF0003244594604F13400D04780461DB1226800
:108E00002046526890474046BDE8F88F00254FF055
:108E10000208E6E71620F7E737B585698168C46A76
:108E200011446A42114054B10DF107032A4634300F
:108E3000A04728B99DF8073013B9184600E006206E
:108E400003B030BD8168836A114482695242114087
:108E500013B1012234301847062070472DE9F84F2E
:108E6000DDE90A6716F1FF3A47F1FF3B90461AEB3E
:108E7000020299464BEB03030546FFF73FFFB0B3F1
:108E800042464B462846FFF739FF80B395F88030BD
:108E90004BBB2B6828461B6898470446F0B9AC6961
:108EA000EB692246404649460AF048FBA4EB020A19
:108EB00042464B462846FFF7C5FFB6EB0A06424638
:108EC0004B46284667F10007FFF7A6FFD5F818A024
:108ED000044618B9012E77F10003E9DA2B68284619
:108EE0005B68984700E006242046BDE8F88F16200E
:108EF000FBE7FFFF10B5094C2378BFF35B8FDB075F
:108F000009D4204609F0CFFD28B1204609F0D7FD4D
:108F1000034806F0E3FD034810BD00BFB809002078
:108F2000398F0000BC09002010B50446006808B164
:108F300009F0C8FD204610BD0148FFF7F5BF00BF8E
:108F4000BC090020F0B585B00D46FFF7BBFE012639
:108F500000270368CDE900672A461C6A0DF10F015E
:108F60000023A0479DF80F0005B0F0BD70B5044682
:108F70000D461646FFF7A6FE03685B6B984721680F
:108F800091B1B6FBF0F300FB1362637923B98B5CFC
:108F9000FF2B1CBF01236371237923B98B5CAB4288
:108FA0001CBF012323718D5470BD0368F7B50446BF
:108FB000002B30D00379002B2BD0FFF783FE036802
:108FC0005B6B9847637906460027ABB9FFF77AFEDB
:108FD0000368A2682168CDE900675D6A0023A8479D
:108FE000B0FA80F56D09206808B109F06BFD002327
:108FF0002360284603B0F0BDFFF764FE0368A26853
:10900000CDE90067996A002388470028DED0002553
:10901000E9E70125E7E70125EBE72DE9F3470D46F1
:1090200004469046FFF74EFE03681B6B9847434289
:109030002B40451B1D44A360C8F80050256881469D
:10904000A5B909F04BFD257120606571FFF73AFE67
:109050004E4600270368A2682168CDE900671E6AB2
:109060002B46B047012002B0BDE8F0870220FAE7A6
:1090700000290CBF6FF018000020704701207047D6
:109080006FF0150070476FF01500704711207047A2
:10909000704700207047036801221B6900211847B0
:1090A000036800221B69114618476FF015007047CE
:1090B0001D2070476FF01500704701207047002099
:1090C00070471046704700230B70012070477047AF
:1090D000704710B50421044609F0FEFC204610BD7F
:1090E000002070473F2870B5054621DC114C54F82C
:1090F00020305A1C0ED102280CDCFFF7F1FF03468A
:1091000030B90D4E3378BFF35B8FDB0704D50B4BC3
:1091100044F82530184670BD304609F0C4FC0028DC
:10912000F5D0304609F0CBFC054806F0D7FCEEE759
:109130000023EFE72C010020C80900202C020020AA
:10914000CF90000038B50546FFF7CCFF0B4B00244D
:1091500043F8254030B90AF0D1FB092303604FF0F2
:10916000FF3038BD03685B699847051E04DA0AF0D2
:10917000C5FB6D420560F2E72046F2E72C010020B6
:10918000FFF7E0BF38B50C461546FFF7ABFF38B91F
:109190000AF0B4FB092303604FF0FF34204638BDCA
:1091A00003682146DB682A469847041EF6DA0AF06F
:1091B000A5FB64420460EFE708B5131E06DA0AF067
:1091C0009DFB162303604FF0FF3008BD04D0FFF76E
:1091D000D9FF40EAE070F8E71846F6E738B50C46E4
:1091E0001546FFF77FFF38B90AF088FB09230360B3
:1091F0004FF0FF34204638BD036821469B682A465D
:109200009847041EF6DA0AF079FB64420460EFE73F
:10921000002A08B503DBBDE80840FFF7DFBF0AF00E
:109220006DFB162303604FF0FF3008BD10B5FFF74C
:1092300059FF044628B90AF061FB09230360204660
:1092400010BD0368DB699847041EF8DA0AF056FB84
:10925000644204600024F2E7FFF7E8BF38B50C462B
:109260001546FFF73FFF38B90AF048FB09230360B2
:109270004FF0FF34204638BD036821461B692A465B
:109280009847041EF6DA0AF039FB64420460EFE7FF
:10929000FFF7E4BF38B50D46FFF724FF044630B9A9
:1092A0000AF02CFB092303604FF0FF3038BD036840
:1092B000DB699847002814BF4FF400534FF4004374
:1092C0006B60236820469B6A984728610020EDE781
:1092D000FFF7E0BF08B506F041FC002008BD1B20E9
:1092E0007047FFFF034AB2F8CC3043F08003A2F886
:1092F000CC3070470000094037B501210D2006F041
:109300009FFB00210D2006F0B3FB684607220321D6
:1093100009F048FBBDF800301C4CC3F38413012551
:10932000684607220521E55409F03CFBBDF80030F2
:10933000C3F38413684607220621E55409F032FB83
:10934000BDF80030C3F38413684607220921E554B1
:1093500009F028FBBDF80030C3F3841368460722E8
:109360000A21E55409F01EFBBDF80030C3F3841355
:1093700007220B216846E55409F014FBBDF80030C4
:10938000C3F38413E55403B030BD00BFDA090020F5
:10939000F0B44B788E780A78CD780F4C1B013603E9
:1093A000A75C0C794A7906F440562D02DBB205F42D
:1093B0004071334307F003050B43D201E101074C31
:1093C0002B43C9B2064DA171D2B2638022720560EF
:1093D0000020F0BC704700BF0C8201000042044036
:1093E00054445700024B0020FF2218701A70704737
:1093F0000042044070B5836A84B004460E46ABB1A7
:1094000093E8070001AD85E807006168E26A097822
:1094100019601E719A601846636A9847A36A1BB167
:1094200095E8070083E8070004B070BD01AD2B4646
:10943000EBE700BF30B4EFF30383103B5BB203F103
:10944000C0011C4A1C4C52F821006FF3104042F836
:10945000210054F82330D3E906218A4212D018693A
:109460009C6868B193F820500F2D18D9616840F8B6
:109470002210D96901328A429A6103D030BC704708
:109480006068F7E75B680D4993F90330012203F048
:109490001F005B09824041F8232030BC7047072D34
:1094A00003D821798154D969E4E7A48820F81240CF
:1094B000E0E700BF00600040EC17002000E100E0A2
:1094C000F0B4EFF30383103B5BB203F1C002284911
:1094D000284C51F822006FF3104041F8220054F854
:1094E00023305C685A69206ADD6910B14078012830
:1094F0000FD0AA420BD0D3E9020129B193F8204042
:109500000F2C16D951F82210416001325A61F0BC7B
:1095100070476E1E964214D021690029E9D094F953
:109520000310154C01F01F064909B04044F8210012
:10953000DFE7072C95BF895C31F81210017181803B
:10954000E3E794F9036006F1C0077409A40051F839
:1095500027C004F1604404F5614406F01F06B040E2
:109560006FF3104C41F827C0C4F880012060C0E7B9
:1095700000600040EC17002000E100E070B4EFF361
:109580000383103B5BB2304A304C03F1C00152F808
:1095900021006FF3104042F8210054F82300826844
:1095A000D278920705D54268527A012A01D070BC60
:1095B0007047590920310122254C03F01F0302FA9C
:1095C00003F344F82130BFF34F8FBFF36F8F43682D
:1095D00093F90230002B2EDB5909203103F01F03D1
:1095E00002FA03F344F82130BFF34F8FBFF36F8FBC
:1095F000D0E90114237891F902106FF38613002942
:10960000237014DB01F1C0050F4C4B099B0054F88B
:10961000256003F1604303F5614301F01F018A40B7
:109620006FF3104644F82560C3F880211A600121C9
:1096300070BCFFF7DFBE826813786FF38613137078
:10964000012170BCFFF7D6BE00600040EC1700207F
:1096500000E100E0F8B5EFF30384103C314B64B255
:1096600053F82460736893F90230002B42DB5A09E7
:10967000203201202C4903F01F0300FA03F341F8C4
:109680002230BFF34F8FBFF36F8FD6E901121378EB
:1096900091F902106FF386130029137015DB01F1A5
:1096A000C007224D4B099B0055F827C003F16043CA
:1096B00003F5614301F01F0100FA01F16FF3104C53
:1096C00045F827C0C3F880111960D5780023EDB2A2
:1096D000D3702A0721D4EB0712D405F01405142DFA
:1096E00016D0C034114B53F824206FF3104243F8C6
:1096F0002420F8BDB26813786FF386131370E4E783
:109700000421304605F01405FFF774FE142DE8D14E
:1097100030460821FFF76EFEE3E705213046FFF7EC
:1097200069FED8E7EC17002000E100E0006000408F
:1097300070B50D46016A8B7803F07B038B7003785C
:10974000044623B3C0E90352E369186988B122696A
:109750007AB1A378816800688E68E16803F003033A
:10976000013B22FA03F300229BB22261B04768B9A1
:10977000216A8B7843F080038B70207878B9A378C6
:1097800003F00303022B0CD02B78CB7070BD8378D1
:1097900003F00303D21A2B44C0E90332D4E70020BC
:1097A00070BD2B8843F47E43CB8170BD036A9A78E9
:1097B00070B4D2B2054602F00B004E780C78987067
:1097C0000020E8608D785D701D7866F301051D70DE
:1097D000C9789974DD7904F05C0105F0A304214394
:1097E00002F07B02D97170BC9A707047F0B5846A40
:1097F00085B006468C461746BCB194E80F006D460E
:1098000085E80F00F269F36A12782260E360C4F819
:1098100008C027712046736A9847B46A1CB195E85E
:109820000F0084E80F0005B0F0BD6D462C46E9E757
:1098300070B5D0E9072592F905202F490446500953
:109840000123203002F01F02002603FA02F26660B4
:10985000AE7041F82020BFF34F8FBFF36F8FE269E6
:1098600092F90B205009203002F01F0203FA02F295
:1098700041F82020BFF34F8FBFF36F8FE26992F959
:1098800007205009203002F01F0203FA02F241F8CB
:109890002020BFF34F8FBFF36F8FE26992F9092049
:1098A0005009203002F01F02934041F82030BFF3EE
:1098B0004F8FBFF36F8FE369DA6822B19368106846
:1098C0001B6A9847E3691B691BB19A681868136A99
:1098D0009847EFF31082012383F31088E06907496A
:1098E00000784C68C0F11F00834023434B604B68F5
:1098F00082F31088002070BD00E100E0FC6F04409E
:109900002DE9F8430D4609780323CB4013F00103FA
:1099100001F1007218BF1023037002F560528378C2
:1099200052010121026204466A78C56161F30103B4
:10993000D5E9051061620021A370C4E90A1022B9BB
:10994000DBB2022262F30103A37095F90B60674B4F
:10995000A87A7209203206F01F07012101FA07F7E1
:1099600043F82270BFF34F8FBFF36F8F604A614F90
:1099700006F1C00C03EB060852F82CE000016FF36F
:10998000104E42F82CE0C0B288F8000395F90500AB
:1099900047F826404FEA501C0CF1200C00F01F0E37
:1099A00001FA0EFE2E7943F82CE0BFF34F8FBFF380
:1099B0006F8F00F1C00C03EB000852F82CE0360169
:1099C0006FF3104E42F82CE0F6B288F8006395F978
:1099D000076047F820404FEA561C0CF1200C06F0B7
:1099E0001F0E01FA0EFEA87943F82CE0BFF34F8F4B
:1099F000BFF36F8F06F1C00C03EB060852F82CE0A2
:109A000000016FF3104E42F82CE0C0B288F800035A
:109A100095F9090047F826404FEA501C00F01F0650
:109A20000CF1200CB1402E7A43F82C10BFF34F8F6D
:109A3000BFF36F8F00F1C00C310152F82C6003446A
:109A4000C9B26FF3104642F82C6083F8001347F850
:109A50002040EB68F3B15968266A0A68E7694FF459
:109A6000002C701DC2E900C094F800C0BCF1000FCA
:109A700001D0113656607E7836B9D67801270B3082
:109A800067F305165060D6709A681868136898478F
:109A9000064640BB2B69002B2ED05968266A0A68FF
:109AA000E7694FF0006CF01CC2F800C0906094F8B9
:109AB00000C0BCF1000F01D00F3696607E7836B939
:109AC000D67801270B3067F305169060D6709A6838
:109AD000186813689847064670B1EB681BB19A681E
